{
  "abi": [
    {
      "inputs": [
        {
          "internalType": "uint256",
          "name": "_totalSupply",
          "type": "uint256"
        },
        {
          "internalType": "uint256",
          "name": "_price",
          "type": "uint256"
        }
      ],
      "stateMutability": "nonpayable",
      "type": "constructor",
      "signature": "constructor"
    },
    {
      "anonymous": false,
      "inputs": [
        {
          "indexed": true,
          "internalType": "address",
          "name": "purchaser",
          "type": "address"
        },
        {
          "indexed": false,
          "internalType": "uint256",
          "name": "value",
          "type": "uint256"
        },
        {
          "indexed": false,
          "internalType": "uint256",
          "name": "amount",
          "type": "uint256"
        }
      ],
      "name": "TokenPurchase",
      "type": "event",
      "signature": "0xcd60aa75dea3072fbc07ae6d7d856b5dc5f4eee88854f5b4abf7b680ef8bc50f"
    },
    {
      "inputs": [],
      "name": "buyTokens",
      "outputs": [],
      "stateMutability": "payable",
      "type": "function",
      "payable": true,
      "signature": "0xd0febe4c"
    },
    {
      "inputs": [],
      "name": "token",
      "outputs": [
        {
          "internalType": "contract EDFToken",
          "name": "",
          "type": "address"
        }
      ],
      "stateMutability": "view",
      "type": "function",
      "constant": true,
      "signature": "0xfc0c546a"
    },
    {
      "inputs": [],
      "name": "tokenPrice",
      "outputs": [
        {
          "internalType": "uint256",
          "name": "",
          "type": "uint256"
        }
      ],
      "stateMutability": "view",
      "type": "function",
      "constant": true,
      "signature": "0x7ff9b596"
    },
    {
      "inputs": [],
      "name": "tokensSold",
      "outputs": [
        {
          "internalType": "uint256",
          "name": "",
          "type": "uint256"
        }
      ],
      "stateMutability": "view",
      "type": "function",
      "constant": true,
      "signature": "0x518ab2a8"
    }
  ],
  "devdoc": {
    "kind": "dev",
    "methods": {},
    "version": 1
  },
  "evm": {
    "assembly": "    /* \"input\":5793:6516  contract EDFCrowdsale {... */\n  mstore(0x40, 0x80)\n    /* \"input\":6032:6152  constructor(uint256 _totalSupply, uint256 _price) {... */\n  callvalue\n  dup1\n  iszero\n  tag_1\n  jumpi\n  0x00\n  dup1\n  revert\ntag_1:\n  pop\n  mload(0x40)\n  sub(codesize, bytecodeSize)\n  dup1\n  bytecodeSize\n  dup4\n  codecopy\n  dup2\n  dup2\n  add\n  0x40\n  mstore\n  dup2\n  add\n  swap1\n  tag_2\n  swap2\n  swap1\n  tag_3\n  jump\t// in\ntag_2:\n    /* \"input\":6109:6121  _totalSupply */\n  dup2\n    /* \"input\":6096:6122  new EDFToken(_totalSupply) */\n  mload(0x40)\n  tag_6\n  swap1\n  tag_7\n  jump\t// in\ntag_6:\n  tag_8\n  swap2\n  swap1\n  tag_9\n  jump\t// in\ntag_8:\n  mload(0x40)\n  dup1\n  swap2\n  sub\n  swap1\n  0x00\n  create\n  dup1\n  iszero\n  dup1\n  iszero\n  tag_10\n  jumpi\n  returndatasize\n  0x00\n  dup1\n  returndatacopy\n  revert(0x00, returndatasize)\ntag_10:\n  pop\n    /* \"input\":6088:6093  token */\n  0x00\n  dup1\n    /* \"input\":6088:6122  token = new EDFToken(_totalSupply) */\n  0x0100\n  exp\n  dup2\n  sload\n  dup2\n  0xffffffffffffffffffffffffffffffffffffffff\n  mul\n  not\n  and\n  swap1\n  dup4\n  0xffffffffffffffffffffffffffffffffffffffff\n  and\n  mul\n  or\n  swap1\n  sstore\n  pop\n    /* \"input\":6141:6147  _price */\n  dup1\n    /* \"input\":6128:6138  tokenPrice */\n  0x01\n    /* \"input\":6128:6147  tokenPrice = _price */\n  dup2\n  swap1\n  sstore\n  pop\n    /* \"input\":6032:6152  constructor(uint256 _totalSupply, uint256 _price) {... */\n  pop\n  pop\n    /* \"input\":5793:6516  contract EDFCrowdsale {... */\n  jump(tag_11)\ntag_7:\n  dataSize(sub_1)\n  dup1\n  dataOffset(sub_1)\n  dup4\n  codecopy\n  add\n  swap1\n  jump\t// out\n    /* \"#utility.yul\":88:205   */\ntag_13:\n    /* \"#utility.yul\":197:198   */\n  0x00\n    /* \"#utility.yul\":194:195   */\n  dup1\n    /* \"#utility.yul\":187:199   */\n  revert\n    /* \"#utility.yul\":334:411   */\ntag_15:\n    /* \"#utility.yul\":371:378   */\n  0x00\n    /* \"#utility.yul\":400:405   */\n  dup2\n    /* \"#utility.yul\":389:405   */\n  swap1\n  pop\n    /* \"#utility.yul\":334:411   */\n  swap2\n  swap1\n  pop\n  jump\t// out\n    /* \"#utility.yul\":417:539   */\ntag_16:\n    /* \"#utility.yul\":490:514   */\n  tag_25\n    /* \"#utility.yul\":508:513   */\n  dup2\n    /* \"#utility.yul\":490:514   */\n  tag_15\n  jump\t// in\ntag_25:\n    /* \"#utility.yul\":483:488   */\n  dup2\n    /* \"#utility.yul\":480:515   */\n  eq\n    /* \"#utility.yul\":470:533   */\n  tag_26\n  jumpi\n    /* \"#utility.yul\":529:530   */\n  0x00\n    /* \"#utility.yul\":526:527   */\n  dup1\n    /* \"#utility.yul\":519:531   */\n  revert\n    /* \"#utility.yul\":470:533   */\ntag_26:\n    /* \"#utility.yul\":417:539   */\n  pop\n  jump\t// out\n    /* \"#utility.yul\":545:688   */\ntag_17:\n    /* \"#utility.yul\":602:607   */\n  0x00\n    /* \"#utility.yul\":633:639   */\n  dup2\n    /* \"#utility.yul\":627:640   */\n  mload\n    /* \"#utility.yul\":618:640   */\n  swap1\n  pop\n    /* \"#utility.yul\":649:682   */\n  tag_28\n    /* \"#utility.yul\":676:681   */\n  dup2\n    /* \"#utility.yul\":649:682   */\n  tag_16\n  jump\t// in\ntag_28:\n    /* \"#utility.yul\":545:688   */\n  swap3\n  swap2\n  pop\n  pop\n  jump\t// out\n    /* \"#utility.yul\":694:1201   */\ntag_3:\n    /* \"#utility.yul\":773:779   */\n  0x00\n    /* \"#utility.yul\":781:787   */\n  dup1\n    /* \"#utility.yul\":830:832   */\n  0x40\n    /* \"#utility.yul\":818:827   */\n  dup4\n    /* \"#utility.yul\":809:816   */\n  dup6\n    /* \"#utility.yul\":805:828   */\n  sub\n    /* \"#utility.yul\":801:833   */\n  slt\n    /* \"#utility.yul\":798:917   */\n  iszero\n  tag_30\n  jumpi\n    /* \"#utility.yul\":836:915   */\n  tag_31\n  tag_13\n  jump\t// in\ntag_31:\n    /* \"#utility.yul\":798:917   */\ntag_30:\n    /* \"#utility.yul\":956:957   */\n  0x00\n    /* \"#utility.yul\":981:1045   */\n  tag_32\n    /* \"#utility.yul\":1037:1044   */\n  dup6\n    /* \"#utility.yul\":1028:1034   */\n  dup3\n    /* \"#utility.yul\":1017:1026   */\n  dup7\n    /* \"#utility.yul\":1013:1035   */\n  add\n    /* \"#utility.yul\":981:1045   */\n  tag_17\n  jump\t// in\ntag_32:\n    /* \"#utility.yul\":971:1045   */\n  swap3\n  pop\n    /* \"#utility.yul\":927:1055   */\n  pop\n    /* \"#utility.yul\":1094:1096   */\n  0x20\n    /* \"#utility.yul\":1120:1184   */\n  tag_33\n    /* \"#utility.yul\":1176:1183   */\n  dup6\n    /* \"#utility.yul\":1167:1173   */\n  dup3\n    /* \"#utility.yul\":1156:1165   */\n  dup7\n    /* \"#utility.yul\":1152:1174   */\n  add\n    /* \"#utility.yul\":1120:1184   */\n  tag_17\n  jump\t// in\ntag_33:\n    /* \"#utility.yul\":1110:1184   */\n  swap2\n  pop\n    /* \"#utility.yul\":1065:1194   */\n  pop\n    /* \"#utility.yul\":694:1201   */\n  swap3\n  pop\n  swap3\n  swap1\n  pop\n  jump\t// out\n    /* \"#utility.yul\":1207:1325   */\ntag_18:\n    /* \"#utility.yul\":1294:1318   */\n  tag_35\n    /* \"#utility.yul\":1312:1317   */\n  dup2\n    /* \"#utility.yul\":1294:1318   */\n  tag_15\n  jump\t// in\ntag_35:\n    /* \"#utility.yul\":1289:1292   */\n  dup3\n    /* \"#utility.yul\":1282:1319   */\n  mstore\n    /* \"#utility.yul\":1207:1325   */\n  pop\n  pop\n  jump\t// out\n    /* \"#utility.yul\":1331:1553   */\ntag_9:\n    /* \"#utility.yul\":1424:1428   */\n  0x00\n    /* \"#utility.yul\":1462:1464   */\n  0x20\n    /* \"#utility.yul\":1451:1460   */\n  dup3\n    /* \"#utility.yul\":1447:1465   */\n  add\n    /* \"#utility.yul\":1439:1465   */\n  swap1\n  pop\n    /* \"#utility.yul\":1475:1546   */\n  tag_37\n    /* \"#utility.yul\":1543:1544   */\n  0x00\n    /* \"#utility.yul\":1532:1541   */\n  dup4\n    /* \"#utility.yul\":1528:1545   */\n  add\n    /* \"#utility.yul\":1519:1525   */\n  dup5\n    /* \"#utility.yul\":1475:1546   */\n  tag_18\n  jump\t// in\ntag_37:\n    /* \"#utility.yul\":1331:1553   */\n  swap3\n  swap2\n  pop\n  pop\n  jump\t// out\n    /* \"input\":5793:6516  contract EDFCrowdsale {... */\ntag_11:\n  dataSize(sub_0)\n  dup1\n  dataOffset(sub_0)\n  0x00\n  codecopy\n  0x00\n  return\nstop\n\nsub_0: assembly {\n        /* \"input\":5793:6516  contract EDFCrowdsale {... */\n      mstore(0x40, 0x80)\n      jumpi(tag_1, lt(calldatasize, 0x04))\n      shr(0xe0, calldataload(0x00))\n      dup1\n      0x518ab2a8\n      eq\n      tag_2\n      jumpi\n      dup1\n      0x7ff9b596\n      eq\n      tag_3\n      jumpi\n      dup1\n      0xd0febe4c\n      eq\n      tag_4\n      jumpi\n      dup1\n      0xfc0c546a\n      eq\n      tag_5\n      jumpi\n    tag_1:\n      0x00\n      dup1\n      revert\n        /* \"input\":5873:5898  uint256 public tokensSold */\n    tag_2:\n      callvalue\n      dup1\n      iszero\n      tag_6\n      jumpi\n      0x00\n      dup1\n      revert\n    tag_6:\n      pop\n      tag_7\n      tag_8\n      jump\t// in\n    tag_7:\n      mload(0x40)\n      tag_9\n      swap2\n      swap1\n      tag_10\n      jump\t// in\n    tag_9:\n      mload(0x40)\n      dup1\n      swap2\n      sub\n      swap1\n      return\n        /* \"input\":5844:5869  uint256 public tokenPrice */\n    tag_3:\n      callvalue\n      dup1\n      iszero\n      tag_11\n      jumpi\n      0x00\n      dup1\n      revert\n    tag_11:\n      pop\n      tag_12\n      tag_13\n      jump\t// in\n    tag_12:\n      mload(0x40)\n      tag_14\n      swap2\n      swap1\n      tag_10\n      jump\t// in\n    tag_14:\n      mload(0x40)\n      dup1\n      swap2\n      sub\n      swap1\n      return\n        /* \"input\":6156:6514  function buyTokens() public payable {... */\n    tag_4:\n      tag_15\n      tag_16\n      jump\t// in\n    tag_15:\n      stop\n        /* \"input\":5819:5840  EDFToken public token */\n    tag_5:\n      callvalue\n      dup1\n      iszero\n      tag_17\n      jumpi\n      0x00\n      dup1\n      revert\n    tag_17:\n      pop\n      tag_18\n      tag_19\n      jump\t// in\n    tag_18:\n      mload(0x40)\n      tag_20\n      swap2\n      swap1\n      tag_21\n      jump\t// in\n    tag_20:\n      mload(0x40)\n      dup1\n      swap2\n      sub\n      swap1\n      return\n        /* \"input\":5873:5898  uint256 public tokensSold */\n    tag_8:\n      sload(0x02)\n      dup2\n      jump\t// out\n        /* \"input\":5844:5869  uint256 public tokenPrice */\n    tag_13:\n      sload(0x01)\n      dup2\n      jump\t// out\n        /* \"input\":6156:6514  function buyTokens() public payable {... */\n    tag_16:\n        /* \"input\":6198:6215  uint256 weiAmount */\n      0x00\n        /* \"input\":6218:6227  msg.value */\n      callvalue\n        /* \"input\":6198:6227  uint256 weiAmount = msg.value */\n      swap1\n      pop\n        /* \"input\":6280:6294  uint256 tokens */\n      0x00\n        /* \"input\":6297:6322  weiAmount.div(tokenPrice) */\n      tag_23\n        /* \"input\":6311:6321  tokenPrice */\n      sload(0x01)\n        /* \"input\":6297:6306  weiAmount */\n      dup4\n        /* \"input\":6297:6310  weiAmount.div */\n      tag_24\n      swap1\n        /* \"input\":6297:6322  weiAmount.div(tokenPrice) */\n      swap2\n      swap1\n      0xffffffff\n      and\n      jump\t// in\n    tag_23:\n        /* \"input\":6280:6322  uint256 tokens = weiAmount.div(tokenPrice) */\n      swap1\n      pop\n        /* \"input\":6362:6384  tokensSold.add(tokens) */\n      tag_25\n        /* \"input\":6377:6383  tokens */\n      dup2\n        /* \"input\":6362:6372  tokensSold */\n      sload(0x02)\n        /* \"input\":6362:6376  tokensSold.add */\n      tag_26\n      swap1\n        /* \"input\":6362:6384  tokensSold.add(tokens) */\n      swap2\n      swap1\n      0xffffffff\n      and\n      jump\t// in\n    tag_25:\n        /* \"input\":6349:6359  tokensSold */\n      0x02\n        /* \"input\":6349:6384  tokensSold = tokensSold.add(tokens) */\n      dup2\n      swap1\n      sstore\n      pop\n        /* \"input\":6419:6424  token */\n      0x00\n      dup1\n      sload\n      swap1\n      0x0100\n      exp\n      swap1\n      div\n      0xffffffffffffffffffffffffffffffffffffffff\n      and\n        /* \"input\":6419:6433  token.transfer */\n      0xffffffffffffffffffffffffffffffffffffffff\n      and\n      0xa9059cbb\n        /* \"input\":6434:6444  msg.sender */\n      caller\n        /* \"input\":6446:6452  tokens */\n      dup4\n        /* \"input\":6419:6453  token.transfer(msg.sender, tokens) */\n      mload(0x40)\n      dup4\n      0xffffffff\n      and\n      0xe0\n      shl\n      dup2\n      mstore\n      0x04\n      add\n      tag_27\n      swap3\n      swap2\n      swap1\n      tag_28\n      jump\t// in\n    tag_27:\n      0x20\n      mload(0x40)\n      dup1\n      dup4\n      sub\n      dup2\n      0x00\n      dup8\n      gas\n      call\n      iszero\n      dup1\n      iszero\n      tag_30\n      jumpi\n      returndatasize\n      0x00\n      dup1\n      returndatacopy\n      revert(0x00, returndatasize)\n    tag_30:\n      pop\n      pop\n      pop\n      pop\n      mload(0x40)\n      returndatasize\n      not(0x1f)\n      0x1f\n      dup3\n      add\n      and\n      dup3\n      add\n      dup1\n      0x40\n      mstore\n      pop\n      dup2\n      add\n      swap1\n      tag_31\n      swap2\n      swap1\n      tag_32\n      jump\t// in\n    tag_31:\n      pop\n        /* \"input\":6479:6489  msg.sender */\n      caller\n        /* \"input\":6465:6509  TokenPurchase(msg.sender, msg.value, tokens) */\n      0xffffffffffffffffffffffffffffffffffffffff\n      and\n      0xcd60aa75dea3072fbc07ae6d7d856b5dc5f4eee88854f5b4abf7b680ef8bc50f\n        /* \"input\":6491:6500  msg.value */\n      callvalue\n        /* \"input\":6502:6508  tokens */\n      dup4\n        /* \"input\":6465:6509  TokenPurchase(msg.sender, msg.value, tokens) */\n      mload(0x40)\n      tag_33\n      swap3\n      swap2\n      swap1\n      tag_34\n      jump\t// in\n    tag_33:\n      mload(0x40)\n      dup1\n      swap2\n      sub\n      swap1\n      log2\n        /* \"input\":6192:6514  {... */\n      pop\n      pop\n        /* \"input\":6156:6514  function buyTokens() public payable {... */\n      jump\t// out\n        /* \"input\":5819:5840  EDFToken public token */\n    tag_19:\n      0x00\n      dup1\n      sload\n      swap1\n      0x0100\n      exp\n      swap1\n      div\n      0xffffffffffffffffffffffffffffffffffffffff\n      and\n      dup2\n      jump\t// out\n        /* \"input\":1370:1529  function div(uint256 a, uint256 b) internal pure returns (uint256) {... */\n    tag_24:\n        /* \"input\":1428:1435  uint256 */\n      0x00\n        /* \"input\":1455:1456  0 */\n      dup1\n        /* \"input\":1451:1452  b */\n      dup3\n        /* \"input\":1451:1456  b > 0 */\n      gt\n        /* \"input\":1443:1487  require(b > 0, \"SafeMath: division by zero\") */\n      tag_36\n      jumpi\n      mload(0x40)\n      0x08c379a000000000000000000000000000000000000000000000000000000000\n      dup2\n      mstore\n      0x04\n      add\n      tag_37\n      swap1\n      tag_38\n      jump\t// in\n    tag_37:\n      mload(0x40)\n      dup1\n      swap2\n      sub\n      swap1\n      revert\n    tag_36:\n        /* \"input\":1493:1502  uint256 c */\n      0x00\n        /* \"input\":1509:1510  b */\n      dup3\n        /* \"input\":1505:1506  a */\n      dup5\n        /* \"input\":1505:1510  a / b */\n      tag_39\n      swap2\n      swap1\n      tag_40\n      jump\t// in\n    tag_39:\n        /* \"input\":1493:1510  uint256 c = a / b */\n      swap1\n      pop\n        /* \"input\":1523:1524  c */\n      dup1\n        /* \"input\":1516:1524  return c */\n      swap2\n      pop\n      pop\n        /* \"input\":1370:1529  function div(uint256 a, uint256 b) internal pure returns (uint256) {... */\n      swap3\n      swap2\n      pop\n      pop\n      jump\t// out\n        /* \"input\":1020:1149  function add(uint256 a, uint256 b) internal pure returns (uint256) {... */\n    tag_26:\n        /* \"input\":1078:1085  uint256 */\n      0x00\n        /* \"input\":1093:1102  uint256 c */\n      dup1\n        /* \"input\":1109:1110  b */\n      dup3\n        /* \"input\":1105:1106  a */\n      dup5\n        /* \"input\":1105:1110  a + b */\n      tag_42\n      swap2\n      swap1\n      tag_43\n      jump\t// in\n    tag_42:\n        /* \"input\":1093:1110  uint256 c = a + b */\n      swap1\n      pop\n        /* \"input\":1128:1129  a */\n      dup4\n        /* \"input\":1123:1124  c */\n      dup2\n        /* \"input\":1123:1129  c >= a */\n      lt\n      iszero\n        /* \"input\":1116:1130  assert(c >= a) */\n      tag_44\n      jumpi\n      tag_45\n      tag_46\n      jump\t// in\n    tag_45:\n    tag_44:\n        /* \"input\":1143:1144  c */\n      dup1\n        /* \"input\":1136:1144  return c */\n      swap2\n      pop\n      pop\n        /* \"input\":1020:1149  function add(uint256 a, uint256 b) internal pure returns (uint256) {... */\n      swap3\n      swap2\n      pop\n      pop\n      jump\t// out\n        /* \"#utility.yul\":7:84   */\n    tag_47:\n        /* \"#utility.yul\":44:51   */\n      0x00\n        /* \"#utility.yul\":73:78   */\n      dup2\n        /* \"#utility.yul\":62:78   */\n      swap1\n      pop\n        /* \"#utility.yul\":7:84   */\n      swap2\n      swap1\n      pop\n      jump\t// out\n        /* \"#utility.yul\":90:208   */\n    tag_48:\n        /* \"#utility.yul\":177:201   */\n      tag_71\n        /* \"#utility.yul\":195:200   */\n      dup2\n        /* \"#utility.yul\":177:201   */\n      tag_47\n      jump\t// in\n    tag_71:\n        /* \"#utility.yul\":172:175   */\n      dup3\n        /* \"#utility.yul\":165:202   */\n      mstore\n        /* \"#utility.yul\":90:208   */\n      pop\n      pop\n      jump\t// out\n        /* \"#utility.yul\":214:436   */\n    tag_10:\n        /* \"#utility.yul\":307:311   */\n      0x00\n        /* \"#utility.yul\":345:347   */\n      0x20\n        /* \"#utility.yul\":334:343   */\n      dup3\n        /* \"#utility.yul\":330:348   */\n      add\n        /* \"#utility.yul\":322:348   */\n      swap1\n      pop\n        /* \"#utility.yul\":358:429   */\n      tag_73\n        /* \"#utility.yul\":426:427   */\n      0x00\n        /* \"#utility.yul\":415:424   */\n      dup4\n        /* \"#utility.yul\":411:428   */\n      add\n        /* \"#utility.yul\":402:408   */\n      dup5\n        /* \"#utility.yul\":358:429   */\n      tag_48\n      jump\t// in\n    tag_73:\n        /* \"#utility.yul\":214:436   */\n      swap3\n      swap2\n      pop\n      pop\n      jump\t// out\n        /* \"#utility.yul\":442:568   */\n    tag_49:\n        /* \"#utility.yul\":479:486   */\n      0x00\n        /* \"#utility.yul\":519:561   */\n      0xffffffffffffffffffffffffffffffffffffffff\n        /* \"#utility.yul\":512:517   */\n      dup3\n        /* \"#utility.yul\":508:562   */\n      and\n        /* \"#utility.yul\":497:562   */\n      swap1\n      pop\n        /* \"#utility.yul\":442:568   */\n      swap2\n      swap1\n      pop\n      jump\t// out\n        /* \"#utility.yul\":574:634   */\n    tag_50:\n        /* \"#utility.yul\":602:605   */\n      0x00\n        /* \"#utility.yul\":623:628   */\n      dup2\n        /* \"#utility.yul\":616:628   */\n      swap1\n      pop\n        /* \"#utility.yul\":574:634   */\n      swap2\n      swap1\n      pop\n      jump\t// out\n        /* \"#utility.yul\":640:782   */\n    tag_51:\n        /* \"#utility.yul\":690:699   */\n      0x00\n        /* \"#utility.yul\":723:776   */\n      tag_77\n        /* \"#utility.yul\":741:775   */\n      tag_78\n        /* \"#utility.yul\":750:774   */\n      tag_79\n        /* \"#utility.yul\":768:773   */\n      dup5\n        /* \"#utility.yul\":750:774   */\n      tag_49\n      jump\t// in\n    tag_79:\n        /* \"#utility.yul\":741:775   */\n      tag_50\n      jump\t// in\n    tag_78:\n        /* \"#utility.yul\":723:776   */\n      tag_49\n      jump\t// in\n    tag_77:\n        /* \"#utility.yul\":710:776   */\n      swap1\n      pop\n        /* \"#utility.yul\":640:782   */\n      swap2\n      swap1\n      pop\n      jump\t// out\n        /* \"#utility.yul\":788:914   */\n    tag_52:\n        /* \"#utility.yul\":838:847   */\n      0x00\n        /* \"#utility.yul\":871:908   */\n      tag_81\n        /* \"#utility.yul\":902:907   */\n      dup3\n        /* \"#utility.yul\":871:908   */\n      tag_51\n      jump\t// in\n    tag_81:\n        /* \"#utility.yul\":858:908   */\n      swap1\n      pop\n        /* \"#utility.yul\":788:914   */\n      swap2\n      swap1\n      pop\n      jump\t// out\n        /* \"#utility.yul\":920:1062   */\n    tag_53:\n        /* \"#utility.yul\":986:995   */\n      0x00\n        /* \"#utility.yul\":1019:1056   */\n      tag_83\n        /* \"#utility.yul\":1050:1055   */\n      dup3\n        /* \"#utility.yul\":1019:1056   */\n      tag_52\n      jump\t// in\n    tag_83:\n        /* \"#utility.yul\":1006:1056   */\n      swap1\n      pop\n        /* \"#utility.yul\":920:1062   */\n      swap2\n      swap1\n      pop\n      jump\t// out\n        /* \"#utility.yul\":1068:1231   */\n    tag_54:\n        /* \"#utility.yul\":1171:1224   */\n      tag_85\n        /* \"#utility.yul\":1218:1223   */\n      dup2\n        /* \"#utility.yul\":1171:1224   */\n      tag_53\n      jump\t// in\n    tag_85:\n        /* \"#utility.yul\":1166:1169   */\n      dup3\n        /* \"#utility.yul\":1159:1225   */\n      mstore\n        /* \"#utility.yul\":1068:1231   */\n      pop\n      pop\n      jump\t// out\n        /* \"#utility.yul\":1237:1491   */\n    tag_21:\n        /* \"#utility.yul\":1346:1350   */\n      0x00\n        /* \"#utility.yul\":1384:1386   */\n      0x20\n        /* \"#utility.yul\":1373:1382   */\n      dup3\n        /* \"#utility.yul\":1369:1387   */\n      add\n        /* \"#utility.yul\":1361:1387   */\n      swap1\n      pop\n        /* \"#utility.yul\":1397:1484   */\n      tag_87\n        /* \"#utility.yul\":1481:1482   */\n      0x00\n        /* \"#utility.yul\":1470:1479   */\n      dup4\n        /* \"#utility.yul\":1466:1483   */\n      add\n        /* \"#utility.yul\":1457:1463   */\n      dup5\n        /* \"#utility.yul\":1397:1484   */\n      tag_54\n      jump\t// in\n    tag_87:\n        /* \"#utility.yul\":1237:1491   */\n      swap3\n      swap2\n      pop\n      pop\n      jump\t// out\n        /* \"#utility.yul\":1497:1593   */\n    tag_55:\n        /* \"#utility.yul\":1534:1541   */\n      0x00\n        /* \"#utility.yul\":1563:1587   */\n      tag_89\n        /* \"#utility.yul\":1581:1586   */\n      dup3\n        /* \"#utility.yul\":1563:1587   */\n      tag_49\n      jump\t// in\n    tag_89:\n        /* \"#utility.yul\":1552:1587   */\n      swap1\n      pop\n        /* \"#utility.yul\":1497:1593   */\n      swap2\n      swap1\n      pop\n      jump\t// out\n        /* \"#utility.yul\":1599:1717   */\n    tag_56:\n        /* \"#utility.yul\":1686:1710   */\n      tag_91\n        /* \"#utility.yul\":1704:1709   */\n      dup2\n        /* \"#utility.yul\":1686:1710   */\n      tag_55\n      jump\t// in\n    tag_91:\n        /* \"#utility.yul\":1681:1684   */\n      dup3\n        /* \"#utility.yul\":1674:1711   */\n      mstore\n        /* \"#utility.yul\":1599:1717   */\n      pop\n      pop\n      jump\t// out\n        /* \"#utility.yul\":1723:2055   */\n    tag_28:\n        /* \"#utility.yul\":1844:1848   */\n      0x00\n        /* \"#utility.yul\":1882:1884   */\n      0x40\n        /* \"#utility.yul\":1871:1880   */\n      dup3\n        /* \"#utility.yul\":1867:1885   */\n      add\n        /* \"#utility.yul\":1859:1885   */\n      swap1\n      pop\n        /* \"#utility.yul\":1895:1966   */\n      tag_93\n        /* \"#utility.yul\":1963:1964   */\n      0x00\n        /* \"#utility.yul\":1952:1961   */\n      dup4\n        /* \"#utility.yul\":1948:1965   */\n      add\n        /* \"#utility.yul\":1939:1945   */\n      dup6\n        /* \"#utility.yul\":1895:1966   */\n      tag_56\n      jump\t// in\n    tag_93:\n        /* \"#utility.yul\":1976:2048   */\n      tag_94\n        /* \"#utility.yul\":2044:2046   */\n      0x20\n        /* \"#utility.yul\":2033:2042   */\n      dup4\n        /* \"#utility.yul\":2029:2047   */\n      add\n        /* \"#utility.yul\":2020:2026   */\n      dup5\n        /* \"#utility.yul\":1976:2048   */\n      tag_48\n      jump\t// in\n    tag_94:\n        /* \"#utility.yul\":1723:2055   */\n      swap4\n      swap3\n      pop\n      pop\n      pop\n      jump\t// out\n        /* \"#utility.yul\":2142:2259   */\n    tag_58:\n        /* \"#utility.yul\":2251:2252   */\n      0x00\n        /* \"#utility.yul\":2248:2249   */\n      dup1\n        /* \"#utility.yul\":2241:2253   */\n      revert\n        /* \"#utility.yul\":2388:2478   */\n    tag_60:\n        /* \"#utility.yul\":2422:2429   */\n      0x00\n        /* \"#utility.yul\":2465:2470   */\n      dup2\n        /* \"#utility.yul\":2458:2471   */\n      iszero\n        /* \"#utility.yul\":2451:2472   */\n      iszero\n        /* \"#utility.yul\":2440:2472   */\n      swap1\n      pop\n        /* \"#utility.yul\":2388:2478   */\n      swap2\n      swap1\n      pop\n      jump\t// out\n        /* \"#utility.yul\":2484:2600   */\n    tag_61:\n        /* \"#utility.yul\":2554:2575   */\n      tag_100\n        /* \"#utility.yul\":2569:2574   */\n      dup2\n        /* \"#utility.yul\":2554:2575   */\n      tag_60\n      jump\t// in\n    tag_100:\n        /* \"#utility.yul\":2547:2552   */\n      dup2\n        /* \"#utility.yul\":2544:2576   */\n      eq\n        /* \"#utility.yul\":2534:2594   */\n      tag_101\n      jumpi\n        /* \"#utility.yul\":2590:2591   */\n      0x00\n        /* \"#utility.yul\":2587:2588   */\n      dup1\n        /* \"#utility.yul\":2580:2592   */\n      revert\n        /* \"#utility.yul\":2534:2594   */\n    tag_101:\n        /* \"#utility.yul\":2484:2600   */\n      pop\n      jump\t// out\n        /* \"#utility.yul\":2606:2743   */\n    tag_62:\n        /* \"#utility.yul\":2660:2665   */\n      0x00\n        /* \"#utility.yul\":2691:2697   */\n      dup2\n        /* \"#utility.yul\":2685:2698   */\n      mload\n        /* \"#utility.yul\":2676:2698   */\n      swap1\n      pop\n        /* \"#utility.yul\":2707:2737   */\n      tag_103\n        /* \"#utility.yul\":2731:2736   */\n      dup2\n        /* \"#utility.yul\":2707:2737   */\n      tag_61\n      jump\t// in\n    tag_103:\n        /* \"#utility.yul\":2606:2743   */\n      swap3\n      swap2\n      pop\n      pop\n      jump\t// out\n        /* \"#utility.yul\":2749:3094   */\n    tag_32:\n        /* \"#utility.yul\":2816:2822   */\n      0x00\n        /* \"#utility.yul\":2865:2867   */\n      0x20\n        /* \"#utility.yul\":2853:2862   */\n      dup3\n        /* \"#utility.yul\":2844:2851   */\n      dup5\n        /* \"#utility.yul\":2840:2863   */\n      sub\n        /* \"#utility.yul\":2836:2868   */\n      slt\n        /* \"#utility.yul\":2833:2952   */\n      iszero\n      tag_105\n      jumpi\n        /* \"#utility.yul\":2871:2950   */\n      tag_106\n      tag_58\n      jump\t// in\n    tag_106:\n        /* \"#utility.yul\":2833:2952   */\n    tag_105:\n        /* \"#utility.yul\":2991:2992   */\n      0x00\n        /* \"#utility.yul\":3016:3077   */\n      tag_107\n        /* \"#utility.yul\":3069:3076   */\n      dup5\n        /* \"#utility.yul\":3060:3066   */\n      dup3\n        /* \"#utility.yul\":3049:3058   */\n      dup6\n        /* \"#utility.yul\":3045:3067   */\n      add\n        /* \"#utility.yul\":3016:3077   */\n      tag_62\n      jump\t// in\n    tag_107:\n        /* \"#utility.yul\":3006:3077   */\n      swap2\n      pop\n        /* \"#utility.yul\":2962:3087   */\n      pop\n        /* \"#utility.yul\":2749:3094   */\n      swap3\n      swap2\n      pop\n      pop\n      jump\t// out\n        /* \"#utility.yul\":3100:3432   */\n    tag_34:\n        /* \"#utility.yul\":3221:3225   */\n      0x00\n        /* \"#utility.yul\":3259:3261   */\n      0x40\n        /* \"#utility.yul\":3248:3257   */\n      dup3\n        /* \"#utility.yul\":3244:3262   */\n      add\n        /* \"#utility.yul\":3236:3262   */\n      swap1\n      pop\n        /* \"#utility.yul\":3272:3343   */\n      tag_109\n        /* \"#utility.yul\":3340:3341   */\n      0x00\n        /* \"#utility.yul\":3329:3338   */\n      dup4\n        /* \"#utility.yul\":3325:3342   */\n      add\n        /* \"#utility.yul\":3316:3322   */\n      dup6\n        /* \"#utility.yul\":3272:3343   */\n      tag_48\n      jump\t// in\n    tag_109:\n        /* \"#utility.yul\":3353:3425   */\n      tag_110\n        /* \"#utility.yul\":3421:3423   */\n      0x20\n        /* \"#utility.yul\":3410:3419   */\n      dup4\n        /* \"#utility.yul\":3406:3424   */\n      add\n        /* \"#utility.yul\":3397:3403   */\n      dup5\n        /* \"#utility.yul\":3353:3425   */\n      tag_48\n      jump\t// in\n    tag_110:\n        /* \"#utility.yul\":3100:3432   */\n      swap4\n      swap3\n      pop\n      pop\n      pop\n      jump\t// out\n        /* \"#utility.yul\":3438:3607   */\n    tag_63:\n        /* \"#utility.yul\":3522:3533   */\n      0x00\n        /* \"#utility.yul\":3556:3562   */\n      dup3\n        /* \"#utility.yul\":3551:3554   */\n      dup3\n        /* \"#utility.yul\":3544:3563   */\n      mstore\n        /* \"#utility.yul\":3596:3600   */\n      0x20\n        /* \"#utility.yul\":3591:3594   */\n      dup3\n        /* \"#utility.yul\":3587:3601   */\n      add\n        /* \"#utility.yul\":3572:3601   */\n      swap1\n      pop\n        /* \"#utility.yul\":3438:3607   */\n      swap3\n      swap2\n      pop\n      pop\n      jump\t// out\n        /* \"#utility.yul\":3613:3789   */\n    tag_64:\n        /* \"#utility.yul\":3753:3781   */\n      0x536166654d6174683a206469766973696f6e206279207a65726f000000000000\n        /* \"#utility.yul\":3749:3750   */\n      0x00\n        /* \"#utility.yul\":3741:3747   */\n      dup3\n        /* \"#utility.yul\":3737:3751   */\n      add\n        /* \"#utility.yul\":3730:3782   */\n      mstore\n        /* \"#utility.yul\":3613:3789   */\n      pop\n      jump\t// out\n        /* \"#utility.yul\":3795:4161   */\n    tag_65:\n        /* \"#utility.yul\":3937:3940   */\n      0x00\n        /* \"#utility.yul\":3958:4025   */\n      tag_114\n        /* \"#utility.yul\":4022:4024   */\n      0x1a\n        /* \"#utility.yul\":4017:4020   */\n      dup4\n        /* \"#utility.yul\":3958:4025   */\n      tag_63\n      jump\t// in\n    tag_114:\n        /* \"#utility.yul\":3951:4025   */\n      swap2\n      pop\n        /* \"#utility.yul\":4034:4127   */\n      tag_115\n        /* \"#utility.yul\":4123:4126   */\n      dup3\n        /* \"#utility.yul\":4034:4127   */\n      tag_64\n      jump\t// in\n    tag_115:\n        /* \"#utility.yul\":4152:4154   */\n      0x20\n        /* \"#utility.yul\":4147:4150   */\n      dup3\n        /* \"#utility.yul\":4143:4155   */\n      add\n        /* \"#utility.yul\":4136:4155   */\n      swap1\n      pop\n        /* \"#utility.yul\":3795:4161   */\n      swap2\n      swap1\n      pop\n      jump\t// out\n        /* \"#utility.yul\":4167:4586   */\n    tag_38:\n        /* \"#utility.yul\":4333:4337   */\n      0x00\n        /* \"#utility.yul\":4371:4373   */\n      0x20\n        /* \"#utility.yul\":4360:4369   */\n      dup3\n        /* \"#utility.yul\":4356:4374   */\n      add\n        /* \"#utility.yul\":4348:4374   */\n      swap1\n      pop\n        /* \"#utility.yul\":4420:4429   */\n      dup2\n        /* \"#utility.yul\":4414:4418   */\n      dup2\n        /* \"#utility.yul\":4410:4430   */\n      sub\n        /* \"#utility.yul\":4406:4407   */\n      0x00\n        /* \"#utility.yul\":4395:4404   */\n      dup4\n        /* \"#utility.yul\":4391:4408   */\n      add\n        /* \"#utility.yul\":4384:4431   */\n      mstore\n        /* \"#utility.yul\":4448:4579   */\n      tag_117\n        /* \"#utility.yul\":4574:4578   */\n      dup2\n        /* \"#utility.yul\":4448:4579   */\n      tag_65\n      jump\t// in\n    tag_117:\n        /* \"#utility.yul\":4440:4579   */\n      swap1\n      pop\n        /* \"#utility.yul\":4167:4586   */\n      swap2\n      swap1\n      pop\n      jump\t// out\n        /* \"#utility.yul\":4592:4772   */\n    tag_66:\n        /* \"#utility.yul\":4640:4717   */\n      0x4e487b7100000000000000000000000000000000000000000000000000000000\n        /* \"#utility.yul\":4637:4638   */\n      0x00\n        /* \"#utility.yul\":4630:4718   */\n      mstore\n        /* \"#utility.yul\":4737:4741   */\n      0x12\n        /* \"#utility.yul\":4734:4735   */\n      0x04\n        /* \"#utility.yul\":4727:4742   */\n      mstore\n        /* \"#utility.yul\":4761:4765   */\n      0x24\n        /* \"#utility.yul\":4758:4759   */\n      0x00\n        /* \"#utility.yul\":4751:4766   */\n      revert\n        /* \"#utility.yul\":4778:4958   */\n    tag_67:\n        /* \"#utility.yul\":4826:4903   */\n      0x4e487b7100000000000000000000000000000000000000000000000000000000\n        /* \"#utility.yul\":4823:4824   */\n      0x00\n        /* \"#utility.yul\":4816:4904   */\n      mstore\n        /* \"#utility.yul\":4923:4927   */\n      0x11\n        /* \"#utility.yul\":4920:4921   */\n      0x04\n        /* \"#utility.yul\":4913:4928   */\n      mstore\n        /* \"#utility.yul\":4947:4951   */\n      0x24\n        /* \"#utility.yul\":4944:4945   */\n      0x00\n        /* \"#utility.yul\":4937:4952   */\n      revert\n        /* \"#utility.yul\":4964:5149   */\n    tag_40:\n        /* \"#utility.yul\":5004:5005   */\n      0x00\n        /* \"#utility.yul\":5021:5041   */\n      tag_121\n        /* \"#utility.yul\":5039:5040   */\n      dup3\n        /* \"#utility.yul\":5021:5041   */\n      tag_47\n      jump\t// in\n    tag_121:\n        /* \"#utility.yul\":5016:5041   */\n      swap2\n      pop\n        /* \"#utility.yul\":5055:5075   */\n      tag_122\n        /* \"#utility.yul\":5073:5074   */\n      dup4\n        /* \"#utility.yul\":5055:5075   */\n      tag_47\n      jump\t// in\n    tag_122:\n        /* \"#utility.yul\":5050:5075   */\n      swap3\n      pop\n        /* \"#utility.yul\":5094:5095   */\n      dup3\n        /* \"#utility.yul\":5084:5119   */\n      tag_123\n      jumpi\n        /* \"#utility.yul\":5099:5117   */\n      tag_124\n      tag_66\n      jump\t// in\n    tag_124:\n        /* \"#utility.yul\":5084:5119   */\n    tag_123:\n        /* \"#utility.yul\":5141:5142   */\n      dup3\n        /* \"#utility.yul\":5138:5139   */\n      dup3\n        /* \"#utility.yul\":5134:5143   */\n      div\n        /* \"#utility.yul\":5129:5143   */\n      swap1\n      pop\n        /* \"#utility.yul\":4964:5149   */\n      swap3\n      swap2\n      pop\n      pop\n      jump\t// out\n        /* \"#utility.yul\":5155:5460   */\n    tag_43:\n        /* \"#utility.yul\":5195:5198   */\n      0x00\n        /* \"#utility.yul\":5214:5234   */\n      tag_126\n        /* \"#utility.yul\":5232:5233   */\n      dup3\n        /* \"#utility.yul\":5214:5234   */\n      tag_47\n      jump\t// in\n    tag_126:\n        /* \"#utility.yul\":5209:5234   */\n      swap2\n      pop\n        /* \"#utility.yul\":5248:5268   */\n      tag_127\n        /* \"#utility.yul\":5266:5267   */\n      dup4\n        /* \"#utility.yul\":5248:5268   */\n      tag_47\n      jump\t// in\n    tag_127:\n        /* \"#utility.yul\":5243:5268   */\n      swap3\n      pop\n        /* \"#utility.yul\":5402:5403   */\n      dup3\n        /* \"#utility.yul\":5334:5400   */\n      0xffffffffffffffffffffffffffffffffffffffffffffffffffffffffffffffff\n        /* \"#utility.yul\":5330:5404   */\n      sub\n        /* \"#utility.yul\":5327:5328   */\n      dup3\n        /* \"#utility.yul\":5324:5405   */\n      gt\n        /* \"#utility.yul\":5321:5428   */\n      iszero\n      tag_128\n      jumpi\n        /* \"#utility.yul\":5408:5426   */\n      tag_129\n      tag_67\n      jump\t// in\n    tag_129:\n        /* \"#utility.yul\":5321:5428   */\n    tag_128:\n        /* \"#utility.yul\":5452:5453   */\n      dup3\n        /* \"#utility.yul\":5449:5450   */\n      dup3\n        /* \"#utility.yul\":5445:5454   */\n      add\n        /* \"#utility.yul\":5438:5454   */\n      swap1\n      pop\n        /* \"#utility.yul\":5155:5460   */\n      swap3\n      swap2\n      pop\n      pop\n      jump\t// out\n        /* \"#utility.yul\":5466:5646   */\n    tag_46:\n        /* \"#utility.yul\":5514:5591   */\n      0x4e487b7100000000000000000000000000000000000000000000000000000000\n        /* \"#utility.yul\":5511:5512   */\n      0x00\n        /* \"#utility.yul\":5504:5592   */\n      mstore\n        /* \"#utility.yul\":5611:5615   */\n      0x01\n        /* \"#utility.yul\":5608:5609   */\n      0x04\n        /* \"#utility.yul\":5601:5616   */\n      mstore\n        /* \"#utility.yul\":5635:5639   */\n      0x24\n        /* \"#utility.yul\":5632:5633   */\n      0x00\n        /* \"#utility.yul\":5625:5640   */\n      revert\n\n    auxdata: 0xa26469706673582212206dfc266383a7a9cf565754a0d4eee202a2c12528eafadf9d175c9f8bf9c34bc864736f6c634300080c0033\n}\n\nsub_1: assembly {\n        /* \"input\":1533:5791  contract EDFToken is IERC20 {... */\n      mstore(0x40, 0x80)\n        /* \"input\":1565:1599  string private _name = \"EDF Token\" */\n      mload(0x40)\n      dup1\n      0x40\n      add\n      0x40\n      mstore\n      dup1\n      0x09\n      dup2\n      mstore\n      0x20\n      add\n      0x45444620546f6b656e0000000000000000000000000000000000000000000000\n      dup2\n      mstore\n      pop\n      0x00\n      swap1\n      dup1\n      mload\n      swap1\n      0x20\n      add\n      swap1\n      tag_1\n      swap3\n      swap2\n      swap1\n      tag_2\n      jump\t// in\n    tag_1:\n      pop\n        /* \"input\":1603:1633  string private _symbol = \"EDF\" */\n      mload(0x40)\n      dup1\n      0x40\n      add\n      0x40\n      mstore\n      dup1\n      0x03\n      dup2\n      mstore\n      0x20\n      add\n      0x4544460000000000000000000000000000000000000000000000000000000000\n      dup2\n      mstore\n      pop\n      0x01\n      swap1\n      dup1\n      mload\n      swap1\n      0x20\n      add\n      swap1\n      tag_3\n      swap3\n      swap2\n      swap1\n      tag_2\n      jump\t// in\n    tag_3:\n      pop\n        /* \"input\":1663:1664  0 */\n      0x00\n        /* \"input\":1637:1664  uint8 private _decimals = 0 */\n      0x02\n      exp(0x0100, 0x00)\n      dup2\n      sload\n      dup2\n      0xff\n      mul\n      not\n      and\n      swap1\n      dup4\n      0xff\n      and\n      mul\n      or\n      swap1\n      sstore\n      pop\n        /* \"input\":1856:1997  constructor(uint256 initialSupply) {... */\n      callvalue\n      dup1\n      iszero\n      tag_4\n      jumpi\n      0x00\n      dup1\n      revert\n    tag_4:\n      pop\n      mload(0x40)\n      sub(codesize, bytecodeSize)\n      dup1\n      bytecodeSize\n      dup4\n      codecopy\n      dup2\n      dup2\n      add\n      0x40\n      mstore\n      dup2\n      add\n      swap1\n      tag_5\n      swap2\n      swap1\n      tag_6\n      jump\t// in\n    tag_5:\n        /* \"input\":1914:1948  initialSupply.mul(10 ** _decimals) */\n      tag_9\n        /* \"input\":1938:1947  _decimals */\n      0x02\n      0x00\n      swap1\n      sload\n      swap1\n      0x0100\n      exp\n      swap1\n      div\n      0xff\n      and\n        /* \"input\":1932:1934  10 */\n      0x0a\n        /* \"input\":1932:1947  10 ** _decimals */\n      tag_10\n      swap2\n      swap1\n      tag_11\n      jump\t// in\n    tag_10:\n        /* \"input\":1914:1927  initialSupply */\n      dup3\n        /* \"input\":1914:1931  initialSupply.mul */\n      or(tag_0_53, shl(0x20, tag_12))\n      swap1\n        /* \"input\":1914:1948  initialSupply.mul(10 ** _decimals) */\n      swap2\n      swap1\n      0x20\n      shr\n      jump\t// in\n    tag_9:\n        /* \"input\":1899:1911  _totalSupply */\n      0x03\n        /* \"input\":1899:1948  _totalSupply = initialSupply.mul(10 ** _decimals) */\n      dup2\n      swap1\n      sstore\n      pop\n        /* \"input\":1980:1992  _totalSupply */\n      sload(0x03)\n        /* \"input\":1956:1965  _balances */\n      0x04\n        /* \"input\":1956:1977  _balances[msg.sender] */\n      0x00\n        /* \"input\":1966:1976  msg.sender */\n      caller\n        /* \"input\":1956:1977  _balances[msg.sender] */\n      0xffffffffffffffffffffffffffffffffffffffff\n      and\n      0xffffffffffffffffffffffffffffffffffffffff\n      and\n      dup2\n      mstore\n      0x20\n      add\n      swap1\n      dup2\n      mstore\n      0x20\n      add\n      0x00\n      keccak256\n        /* \"input\":1956:1992  _balances[msg.sender] = _totalSupply */\n      dup2\n      swap1\n      sstore\n      pop\n        /* \"input\":1856:1997  constructor(uint256 initialSupply) {... */\n      pop\n        /* \"input\":1533:5791  contract EDFToken is IERC20 {... */\n      jump(tag_13)\n        /* \"input\":1153:1366  function mul(uint256 a, uint256 b) internal pure returns (uint256) {... */\n    tag_12:\n        /* \"input\":1211:1218  uint256 */\n      0x00\n        /* \"input\":1235:1236  0 */\n      dup1\n        /* \"input\":1230:1231  a */\n      dup4\n        /* \"input\":1230:1236  a == 0 */\n      eq\n        /* \"input\":1226:1261  if (a == 0) {... */\n      iszero\n      tag_15\n      jumpi\n        /* \"input\":1253:1254  0 */\n      0x00\n        /* \"input\":1246:1254  return 0 */\n      swap1\n      pop\n      jump(tag_14)\n        /* \"input\":1226:1261  if (a == 0) {... */\n    tag_15:\n        /* \"input\":1267:1276  uint256 c */\n      0x00\n        /* \"input\":1283:1284  b */\n      dup3\n        /* \"input\":1279:1280  a */\n      dup5\n        /* \"input\":1279:1284  a * b */\n      tag_16\n      swap2\n      swap1\n      tag_17\n      jump\t// in\n    tag_16:\n        /* \"input\":1267:1284  uint256 c = a * b */\n      swap1\n      pop\n        /* \"input\":1307:1308  b */\n      dup3\n        /* \"input\":1302:1303  a */\n      dup5\n        /* \"input\":1298:1299  c */\n      dup3\n        /* \"input\":1298:1303  c / a */\n      tag_18\n      swap2\n      swap1\n      tag_19\n      jump\t// in\n    tag_18:\n        /* \"input\":1298:1308  c / a == b */\n      eq\n        /* \"input\":1290:1346  require(c / a == b, \"SafeMath: multiplication overflow\") */\n      tag_20\n      jumpi\n      mload(0x40)\n      0x08c379a000000000000000000000000000000000000000000000000000000000\n      dup2\n      mstore\n      0x04\n      add\n      tag_21\n      swap1\n      tag_22\n      jump\t// in\n    tag_21:\n      mload(0x40)\n      dup1\n      swap2\n      sub\n      swap1\n      revert\n    tag_20:\n        /* \"input\":1360:1361  c */\n      dup1\n        /* \"input\":1353:1361  return c */\n      swap2\n      pop\n      pop\n        /* \"input\":1153:1366  function mul(uint256 a, uint256 b) internal pure returns (uint256) {... */\n    tag_14:\n      swap3\n      swap2\n      pop\n      pop\n      jump\t// out\n        /* \"input\":1533:5791  contract EDFToken is IERC20 {... */\n    tag_2:\n      dup3\n      dup1\n      sload\n      tag_23\n      swap1\n      tag_24\n      jump\t// in\n    tag_23:\n      swap1\n      0x00\n      mstore\n      keccak256(0x00, 0x20)\n      swap1\n      0x1f\n      add\n      0x20\n      swap1\n      div\n      dup2\n      add\n      swap3\n      dup3\n      tag_26\n      jumpi\n      0x00\n      dup6\n      sstore\n      jump(tag_25)\n    tag_26:\n      dup3\n      0x1f\n      lt\n      tag_27\n      jumpi\n      dup1\n      mload\n      not(0xff)\n      and\n      dup4\n      dup1\n      add\n      or\n      dup6\n      sstore\n      jump(tag_25)\n    tag_27:\n      dup3\n      dup1\n      add\n      0x01\n      add\n      dup6\n      sstore\n      dup3\n      iszero\n      tag_25\n      jumpi\n      swap2\n      dup3\n      add\n    tag_28:\n      dup3\n      dup2\n      gt\n      iszero\n      tag_29\n      jumpi\n      dup3\n      mload\n      dup3\n      sstore\n      swap2\n      0x20\n      add\n      swap2\n      swap1\n      0x01\n      add\n      swap1\n      jump(tag_28)\n    tag_29:\n    tag_25:\n      pop\n      swap1\n      pop\n      tag_30\n      swap2\n      swap1\n      tag_31\n      jump\t// in\n    tag_30:\n      pop\n      swap1\n      jump\t// out\n    tag_31:\n    tag_32:\n      dup1\n      dup3\n      gt\n      iszero\n      tag_33\n      jumpi\n      0x00\n      dup2\n      0x00\n      swap1\n      sstore\n      pop\n      0x01\n      add\n      jump(tag_32)\n    tag_33:\n      pop\n      swap1\n      jump\t// out\n        /* \"#utility.yul\":88:205   */\n    tag_35:\n        /* \"#utility.yul\":197:198   */\n      0x00\n        /* \"#utility.yul\":194:195   */\n      dup1\n        /* \"#utility.yul\":187:199   */\n      revert\n        /* \"#utility.yul\":334:411   */\n    tag_37:\n        /* \"#utility.yul\":371:378   */\n      0x00\n        /* \"#utility.yul\":400:405   */\n      dup2\n        /* \"#utility.yul\":389:405   */\n      swap1\n      pop\n        /* \"#utility.yul\":334:411   */\n      swap2\n      swap1\n      pop\n      jump\t// out\n        /* \"#utility.yul\":417:539   */\n    tag_38:\n        /* \"#utility.yul\":490:514   */\n      tag_56\n        /* \"#utility.yul\":508:513   */\n      dup2\n        /* \"#utility.yul\":490:514   */\n      tag_37\n      jump\t// in\n    tag_56:\n        /* \"#utility.yul\":483:488   */\n      dup2\n        /* \"#utility.yul\":480:515   */\n      eq\n        /* \"#utility.yul\":470:533   */\n      tag_57\n      jumpi\n        /* \"#utility.yul\":529:530   */\n      0x00\n        /* \"#utility.yul\":526:527   */\n      dup1\n        /* \"#utility.yul\":519:531   */\n      revert\n        /* \"#utility.yul\":470:533   */\n    tag_57:\n        /* \"#utility.yul\":417:539   */\n      pop\n      jump\t// out\n        /* \"#utility.yul\":545:688   */\n    tag_39:\n        /* \"#utility.yul\":602:607   */\n      0x00\n        /* \"#utility.yul\":633:639   */\n      dup2\n        /* \"#utility.yul\":627:640   */\n      mload\n        /* \"#utility.yul\":618:640   */\n      swap1\n      pop\n        /* \"#utility.yul\":649:682   */\n      tag_59\n        /* \"#utility.yul\":676:681   */\n      dup2\n        /* \"#utility.yul\":649:682   */\n      tag_38\n      jump\t// in\n    tag_59:\n        /* \"#utility.yul\":545:688   */\n      swap3\n      swap2\n      pop\n      pop\n      jump\t// out\n        /* \"#utility.yul\":694:1045   */\n    tag_6:\n        /* \"#utility.yul\":764:770   */\n      0x00\n        /* \"#utility.yul\":813:815   */\n      0x20\n        /* \"#utility.yul\":801:810   */\n      dup3\n        /* \"#utility.yul\":792:799   */\n      dup5\n        /* \"#utility.yul\":788:811   */\n      sub\n        /* \"#utility.yul\":784:816   */\n      slt\n        /* \"#utility.yul\":781:900   */\n      iszero\n      tag_61\n      jumpi\n        /* \"#utility.yul\":819:898   */\n      tag_62\n      tag_35\n      jump\t// in\n    tag_62:\n        /* \"#utility.yul\":781:900   */\n    tag_61:\n        /* \"#utility.yul\":939:940   */\n      0x00\n        /* \"#utility.yul\":964:1028   */\n      tag_63\n        /* \"#utility.yul\":1020:1027   */\n      dup5\n        /* \"#utility.yul\":1011:1017   */\n      dup3\n        /* \"#utility.yul\":1000:1009   */\n      dup6\n        /* \"#utility.yul\":996:1018   */\n      add\n        /* \"#utility.yul\":964:1028   */\n      tag_39\n      jump\t// in\n    tag_63:\n        /* \"#utility.yul\":954:1028   */\n      swap2\n      pop\n        /* \"#utility.yul\":910:1038   */\n      pop\n        /* \"#utility.yul\":694:1045   */\n      swap3\n      swap2\n      pop\n      pop\n      jump\t// out\n        /* \"#utility.yul\":1051:1231   */\n    tag_40:\n        /* \"#utility.yul\":1099:1176   */\n      0x4e487b7100000000000000000000000000000000000000000000000000000000\n        /* \"#utility.yul\":1096:1097   */\n      0x00\n        /* \"#utility.yul\":1089:1177   */\n      mstore\n        /* \"#utility.yul\":1196:1200   */\n      0x11\n        /* \"#utility.yul\":1193:1194   */\n      0x04\n        /* \"#utility.yul\":1186:1201   */\n      mstore\n        /* \"#utility.yul\":1220:1224   */\n      0x24\n        /* \"#utility.yul\":1217:1218   */\n      0x00\n        /* \"#utility.yul\":1210:1225   */\n      revert\n        /* \"#utility.yul\":1237:1339   */\n    tag_41:\n        /* \"#utility.yul\":1279:1287   */\n      0x00\n        /* \"#utility.yul\":1326:1331   */\n      dup2\n        /* \"#utility.yul\":1323:1324   */\n      0x01\n        /* \"#utility.yul\":1319:1332   */\n      shr\n        /* \"#utility.yul\":1298:1332   */\n      swap1\n      pop\n        /* \"#utility.yul\":1237:1339   */\n      swap2\n      swap1\n      pop\n      jump\t// out\n        /* \"#utility.yul\":1345:2193   */\n    tag_42:\n        /* \"#utility.yul\":1406:1411   */\n      0x00\n        /* \"#utility.yul\":1413:1417   */\n      dup1\n        /* \"#utility.yul\":1437:1443   */\n      dup3\n        /* \"#utility.yul\":1428:1443   */\n      swap2\n      pop\n        /* \"#utility.yul\":1461:1466   */\n      dup4\n        /* \"#utility.yul\":1452:1466   */\n      swap1\n      pop\n        /* \"#utility.yul\":1475:2187   */\n    tag_67:\n        /* \"#utility.yul\":1496:1497   */\n      0x01\n        /* \"#utility.yul\":1486:1494   */\n      dup6\n        /* \"#utility.yul\":1483:1498   */\n      gt\n        /* \"#utility.yul\":1475:2187   */\n      iszero\n      tag_69\n      jumpi\n        /* \"#utility.yul\":1591:1595   */\n      dup1\n        /* \"#utility.yul\":1586:1589   */\n      dup7\n        /* \"#utility.yul\":1582:1596   */\n      div\n        /* \"#utility.yul\":1576:1580   */\n      dup2\n        /* \"#utility.yul\":1573:1597   */\n      gt\n        /* \"#utility.yul\":1570:1620   */\n      iszero\n      tag_70\n      jumpi\n        /* \"#utility.yul\":1600:1618   */\n      tag_71\n      tag_40\n      jump\t// in\n    tag_71:\n        /* \"#utility.yul\":1570:1620   */\n    tag_70:\n        /* \"#utility.yul\":1650:1651   */\n      0x01\n        /* \"#utility.yul\":1640:1648   */\n      dup6\n        /* \"#utility.yul\":1636:1652   */\n      and\n        /* \"#utility.yul\":1633:2084   */\n      iszero\n      tag_72\n      jumpi\n        /* \"#utility.yul\":2065:2069   */\n      dup1\n        /* \"#utility.yul\":2058:2063   */\n      dup3\n        /* \"#utility.yul\":2054:2070   */\n      mul\n        /* \"#utility.yul\":2045:2070   */\n      swap2\n      pop\n        /* \"#utility.yul\":1633:2084   */\n    tag_72:\n        /* \"#utility.yul\":2115:2119   */\n      dup1\n        /* \"#utility.yul\":2109:2113   */\n      dup2\n        /* \"#utility.yul\":2105:2120   */\n      mul\n        /* \"#utility.yul\":2097:2120   */\n      swap1\n      pop\n        /* \"#utility.yul\":2145:2177   */\n      tag_73\n        /* \"#utility.yul\":2168:2176   */\n      dup6\n        /* \"#utility.yul\":2145:2177   */\n      tag_41\n      jump\t// in\n    tag_73:\n        /* \"#utility.yul\":2133:2177   */\n      swap5\n      pop\n        /* \"#utility.yul\":1475:2187   */\n      jump(tag_67)\n    tag_69:\n        /* \"#utility.yul\":1345:2193   */\n      swap5\n      pop\n      swap5\n      swap3\n      pop\n      pop\n      pop\n      jump\t// out\n        /* \"#utility.yul\":2199:3272   */\n    tag_43:\n        /* \"#utility.yul\":2253:2258   */\n      0x00\n        /* \"#utility.yul\":2444:2452   */\n      dup3\n        /* \"#utility.yul\":2434:2474   */\n      tag_75\n      jumpi\n        /* \"#utility.yul\":2465:2466   */\n      0x01\n        /* \"#utility.yul\":2456:2466   */\n      swap1\n      pop\n        /* \"#utility.yul\":2467:2472   */\n      jump(tag_74)\n        /* \"#utility.yul\":2434:2474   */\n    tag_75:\n        /* \"#utility.yul\":2493:2497   */\n      dup2\n        /* \"#utility.yul\":2483:2519   */\n      tag_76\n      jumpi\n        /* \"#utility.yul\":2510:2511   */\n      0x00\n        /* \"#utility.yul\":2501:2511   */\n      swap1\n      pop\n        /* \"#utility.yul\":2512:2517   */\n      jump(tag_74)\n        /* \"#utility.yul\":2483:2519   */\n    tag_76:\n        /* \"#utility.yul\":2579:2583   */\n      dup2\n        /* \"#utility.yul\":2627:2628   */\n      0x01\n        /* \"#utility.yul\":2622:2649   */\n      dup2\n      eq\n      tag_78\n      jumpi\n        /* \"#utility.yul\":2663:2664   */\n      0x02\n        /* \"#utility.yul\":2658:2849   */\n      dup2\n      eq\n      tag_79\n      jumpi\n        /* \"#utility.yul\":2572:2849   */\n      jump(tag_77)\n        /* \"#utility.yul\":2622:2649   */\n    tag_78:\n        /* \"#utility.yul\":2640:2641   */\n      0x01\n        /* \"#utility.yul\":2631:2641   */\n      swap2\n      pop\n        /* \"#utility.yul\":2642:2647   */\n      pop\n      jump(tag_74)\n        /* \"#utility.yul\":2658:2849   */\n    tag_79:\n        /* \"#utility.yul\":2703:2706   */\n      0xff\n        /* \"#utility.yul\":2693:2701   */\n      dup5\n        /* \"#utility.yul\":2690:2707   */\n      gt\n        /* \"#utility.yul\":2687:2730   */\n      iszero\n      tag_80\n      jumpi\n        /* \"#utility.yul\":2710:2728   */\n      tag_81\n      tag_40\n      jump\t// in\n    tag_81:\n        /* \"#utility.yul\":2687:2730   */\n    tag_80:\n        /* \"#utility.yul\":2759:2767   */\n      dup4\n        /* \"#utility.yul\":2756:2757   */\n      0x02\n        /* \"#utility.yul\":2752:2768   */\n      exp\n        /* \"#utility.yul\":2743:2768   */\n      swap2\n      pop\n        /* \"#utility.yul\":2794:2797   */\n      dup5\n        /* \"#utility.yul\":2787:2792   */\n      dup3\n        /* \"#utility.yul\":2784:2798   */\n      gt\n        /* \"#utility.yul\":2781:2821   */\n      iszero\n      tag_82\n      jumpi\n        /* \"#utility.yul\":2801:2819   */\n      tag_83\n      tag_40\n      jump\t// in\n    tag_83:\n        /* \"#utility.yul\":2781:2821   */\n    tag_82:\n        /* \"#utility.yul\":2834:2839   */\n      pop\n      jump(tag_74)\n        /* \"#utility.yul\":2572:2849   */\n    tag_77:\n      pop\n        /* \"#utility.yul\":2958:2960   */\n      0x20\n        /* \"#utility.yul\":2948:2956   */\n      dup4\n        /* \"#utility.yul\":2945:2961   */\n      lt\n        /* \"#utility.yul\":2939:2942   */\n      0x0133\n        /* \"#utility.yul\":2933:2937   */\n      dup4\n        /* \"#utility.yul\":2930:2943   */\n      lt\n        /* \"#utility.yul\":2926:2962   */\n      and\n        /* \"#utility.yul\":2908:2910   */\n      0x4e\n        /* \"#utility.yul\":2898:2906   */\n      dup5\n        /* \"#utility.yul\":2895:2911   */\n      lt\n        /* \"#utility.yul\":2890:2892   */\n      0x0b\n        /* \"#utility.yul\":2884:2888   */\n      dup5\n        /* \"#utility.yul\":2881:2893   */\n      lt\n        /* \"#utility.yul\":2877:2912   */\n      and\n        /* \"#utility.yul\":2861:2972   */\n      or\n        /* \"#utility.yul\":2858:3104   */\n      iszero\n      tag_84\n      jumpi\n        /* \"#utility.yul\":3014:3022   */\n      dup3\n        /* \"#utility.yul\":3008:3012   */\n      dup3\n        /* \"#utility.yul\":3004:3023   */\n      exp\n        /* \"#utility.yul\":2995:3023   */\n      swap1\n      pop\n        /* \"#utility.yul\":3049:3052   */\n      dup4\n        /* \"#utility.yul\":3042:3047   */\n      dup2\n        /* \"#utility.yul\":3039:3053   */\n      gt\n        /* \"#utility.yul\":3036:3076   */\n      iszero\n      tag_85\n      jumpi\n        /* \"#utility.yul\":3056:3074   */\n      tag_86\n      tag_40\n      jump\t// in\n    tag_86:\n        /* \"#utility.yul\":3036:3076   */\n    tag_85:\n        /* \"#utility.yul\":3089:3094   */\n      jump(tag_74)\n        /* \"#utility.yul\":2858:3104   */\n    tag_84:\n        /* \"#utility.yul\":3129:3171   */\n      tag_87\n        /* \"#utility.yul\":3167:3170   */\n      dup5\n        /* \"#utility.yul\":3157:3165   */\n      dup5\n        /* \"#utility.yul\":3151:3155   */\n      dup5\n        /* \"#utility.yul\":3148:3149   */\n      0x01\n        /* \"#utility.yul\":3129:3171   */\n      tag_42\n      jump\t// in\n    tag_87:\n        /* \"#utility.yul\":3114:3171   */\n      swap3\n      pop\n      swap1\n      pop\n        /* \"#utility.yul\":3203:3207   */\n      dup2\n        /* \"#utility.yul\":3198:3201   */\n      dup5\n        /* \"#utility.yul\":3194:3208   */\n      div\n        /* \"#utility.yul\":3187:3192   */\n      dup2\n        /* \"#utility.yul\":3184:3209   */\n      gt\n        /* \"#utility.yul\":3181:3232   */\n      iszero\n      tag_88\n      jumpi\n        /* \"#utility.yul\":3212:3230   */\n      tag_89\n      tag_40\n      jump\t// in\n    tag_89:\n        /* \"#utility.yul\":3181:3232   */\n    tag_88:\n        /* \"#utility.yul\":3261:3265   */\n      dup2\n        /* \"#utility.yul\":3254:3259   */\n      dup2\n        /* \"#utility.yul\":3250:3266   */\n      mul\n        /* \"#utility.yul\":3241:3266   */\n      swap1\n      pop\n        /* \"#utility.yul\":2199:3272   */\n    tag_74:\n      swap4\n      swap3\n      pop\n      pop\n      pop\n      jump\t// out\n        /* \"#utility.yul\":3278:3364   */\n    tag_44:\n        /* \"#utility.yul\":3313:3320   */\n      0x00\n        /* \"#utility.yul\":3353:3357   */\n      0xff\n        /* \"#utility.yul\":3346:3351   */\n      dup3\n        /* \"#utility.yul\":3342:3358   */\n      and\n        /* \"#utility.yul\":3331:3358   */\n      swap1\n      pop\n        /* \"#utility.yul\":3278:3364   */\n      swap2\n      swap1\n      pop\n      jump\t// out\n        /* \"#utility.yul\":3370:3651   */\n    tag_11:\n        /* \"#utility.yul\":3428:3433   */\n      0x00\n        /* \"#utility.yul\":3452:3475   */\n      tag_92\n        /* \"#utility.yul\":3470:3474   */\n      dup3\n        /* \"#utility.yul\":3452:3475   */\n      tag_37\n      jump\t// in\n    tag_92:\n        /* \"#utility.yul\":3444:3475   */\n      swap2\n      pop\n        /* \"#utility.yul\":3496:3521   */\n      tag_93\n        /* \"#utility.yul\":3512:3520   */\n      dup4\n        /* \"#utility.yul\":3496:3521   */\n      tag_44\n      jump\t// in\n    tag_93:\n        /* \"#utility.yul\":3484:3521   */\n      swap3\n      pop\n        /* \"#utility.yul\":3540:3644   */\n      tag_94\n        /* \"#utility.yul\":3577:3643   */\n      0xffffffffffffffffffffffffffffffffffffffffffffffffffffffffffffffff\n        /* \"#utility.yul\":3567:3575   */\n      dup5\n        /* \"#utility.yul\":3561:3565   */\n      dup5\n        /* \"#utility.yul\":3540:3644   */\n      tag_43\n      jump\t// in\n    tag_94:\n        /* \"#utility.yul\":3531:3644   */\n      swap1\n      pop\n        /* \"#utility.yul\":3370:3651   */\n      swap3\n      swap2\n      pop\n      pop\n      jump\t// out\n        /* \"#utility.yul\":3657:4005   */\n    tag_17:\n        /* \"#utility.yul\":3697:3704   */\n      0x00\n        /* \"#utility.yul\":3720:3740   */\n      tag_96\n        /* \"#utility.yul\":3738:3739   */\n      dup3\n        /* \"#utility.yul\":3720:3740   */\n      tag_37\n      jump\t// in\n    tag_96:\n        /* \"#utility.yul\":3715:3740   */\n      swap2\n      pop\n        /* \"#utility.yul\":3754:3774   */\n      tag_97\n        /* \"#utility.yul\":3772:3773   */\n      dup4\n        /* \"#utility.yul\":3754:3774   */\n      tag_37\n      jump\t// in\n    tag_97:\n        /* \"#utility.yul\":3749:3774   */\n      swap3\n      pop\n        /* \"#utility.yul\":3942:3943   */\n      dup2\n        /* \"#utility.yul\":3874:3940   */\n      0xffffffffffffffffffffffffffffffffffffffffffffffffffffffffffffffff\n        /* \"#utility.yul\":3870:3944   */\n      div\n        /* \"#utility.yul\":3867:3868   */\n      dup4\n        /* \"#utility.yul\":3864:3945   */\n      gt\n        /* \"#utility.yul\":3859:3860   */\n      dup3\n        /* \"#utility.yul\":3852:3861   */\n      iszero\n        /* \"#utility.yul\":3845:3862   */\n      iszero\n        /* \"#utility.yul\":3841:3946   */\n      and\n        /* \"#utility.yul\":3838:3969   */\n      iszero\n      tag_98\n      jumpi\n        /* \"#utility.yul\":3949:3967   */\n      tag_99\n      tag_40\n      jump\t// in\n    tag_99:\n        /* \"#utility.yul\":3838:3969   */\n    tag_98:\n        /* \"#utility.yul\":3997:3998   */\n      dup3\n        /* \"#utility.yul\":3994:3995   */\n      dup3\n        /* \"#utility.yul\":3990:3999   */\n      mul\n        /* \"#utility.yul\":3979:3999   */\n      swap1\n      pop\n        /* \"#utility.yul\":3657:4005   */\n      swap3\n      swap2\n      pop\n      pop\n      jump\t// out\n        /* \"#utility.yul\":4011:4191   */\n    tag_45:\n        /* \"#utility.yul\":4059:4136   */\n      0x4e487b7100000000000000000000000000000000000000000000000000000000\n        /* \"#utility.yul\":4056:4057   */\n      0x00\n        /* \"#utility.yul\":4049:4137   */\n      mstore\n        /* \"#utility.yul\":4156:4160   */\n      0x12\n        /* \"#utility.yul\":4153:4154   */\n      0x04\n        /* \"#utility.yul\":4146:4161   */\n      mstore\n        /* \"#utility.yul\":4180:4184   */\n      0x24\n        /* \"#utility.yul\":4177:4178   */\n      0x00\n        /* \"#utility.yul\":4170:4185   */\n      revert\n        /* \"#utility.yul\":4197:4382   */\n    tag_19:\n        /* \"#utility.yul\":4237:4238   */\n      0x00\n        /* \"#utility.yul\":4254:4274   */\n      tag_102\n        /* \"#utility.yul\":4272:4273   */\n      dup3\n        /* \"#utility.yul\":4254:4274   */\n      tag_37\n      jump\t// in\n    tag_102:\n        /* \"#utility.yul\":4249:4274   */\n      swap2\n      pop\n        /* \"#utility.yul\":4288:4308   */\n      tag_103\n        /* \"#utility.yul\":4306:4307   */\n      dup4\n        /* \"#utility.yul\":4288:4308   */\n      tag_37\n      jump\t// in\n    tag_103:\n        /* \"#utility.yul\":4283:4308   */\n      swap3\n      pop\n        /* \"#utility.yul\":4327:4328   */\n      dup3\n        /* \"#utility.yul\":4317:4352   */\n      tag_104\n      jumpi\n        /* \"#utility.yul\":4332:4350   */\n      tag_105\n      tag_45\n      jump\t// in\n    tag_105:\n        /* \"#utility.yul\":4317:4352   */\n    tag_104:\n        /* \"#utility.yul\":4374:4375   */\n      dup3\n        /* \"#utility.yul\":4371:4372   */\n      dup3\n        /* \"#utility.yul\":4367:4376   */\n      div\n        /* \"#utility.yul\":4362:4376   */\n      swap1\n      pop\n        /* \"#utility.yul\":4197:4382   */\n      swap3\n      swap2\n      pop\n      pop\n      jump\t// out\n        /* \"#utility.yul\":4388:4557   */\n    tag_46:\n        /* \"#utility.yul\":4472:4483   */\n      0x00\n        /* \"#utility.yul\":4506:4512   */\n      dup3\n        /* \"#utility.yul\":4501:4504   */\n      dup3\n        /* \"#utility.yul\":4494:4513   */\n      mstore\n        /* \"#utility.yul\":4546:4550   */\n      0x20\n        /* \"#utility.yul\":4541:4544   */\n      dup3\n        /* \"#utility.yul\":4537:4551   */\n      add\n        /* \"#utility.yul\":4522:4551   */\n      swap1\n      pop\n        /* \"#utility.yul\":4388:4557   */\n      swap3\n      swap2\n      pop\n      pop\n      jump\t// out\n        /* \"#utility.yul\":4563:4783   */\n    tag_47:\n        /* \"#utility.yul\":4703:4737   */\n      0x536166654d6174683a206d756c7469706c69636174696f6e206f766572666c6f\n        /* \"#utility.yul\":4699:4700   */\n      0x00\n        /* \"#utility.yul\":4691:4697   */\n      dup3\n        /* \"#utility.yul\":4687:4701   */\n      add\n        /* \"#utility.yul\":4680:4738   */\n      mstore\n        /* \"#utility.yul\":4772:4775   */\n      0x7700000000000000000000000000000000000000000000000000000000000000\n        /* \"#utility.yul\":4767:4769   */\n      0x20\n        /* \"#utility.yul\":4759:4765   */\n      dup3\n        /* \"#utility.yul\":4755:4770   */\n      add\n        /* \"#utility.yul\":4748:4776   */\n      mstore\n        /* \"#utility.yul\":4563:4783   */\n      pop\n      jump\t// out\n        /* \"#utility.yul\":4789:5155   */\n    tag_48:\n        /* \"#utility.yul\":4931:4934   */\n      0x00\n        /* \"#utility.yul\":4952:5019   */\n      tag_109\n        /* \"#utility.yul\":5016:5018   */\n      0x21\n        /* \"#utility.yul\":5011:5014   */\n      dup4\n        /* \"#utility.yul\":4952:5019   */\n      tag_46\n      jump\t// in\n    tag_109:\n        /* \"#utility.yul\":4945:5019   */\n      swap2\n      pop\n        /* \"#utility.yul\":5028:5121   */\n      tag_110\n        /* \"#utility.yul\":5117:5120   */\n      dup3\n        /* \"#utility.yul\":5028:5121   */\n      tag_47\n      jump\t// in\n    tag_110:\n        /* \"#utility.yul\":5146:5148   */\n      0x40\n        /* \"#utility.yul\":5141:5144   */\n      dup3\n        /* \"#utility.yul\":5137:5149   */\n      add\n        /* \"#utility.yul\":5130:5149   */\n      swap1\n      pop\n        /* \"#utility.yul\":4789:5155   */\n      swap2\n      swap1\n      pop\n      jump\t// out\n        /* \"#utility.yul\":5161:5580   */\n    tag_22:\n        /* \"#utility.yul\":5327:5331   */\n      0x00\n        /* \"#utility.yul\":5365:5367   */\n      0x20\n        /* \"#utility.yul\":5354:5363   */\n      dup3\n        /* \"#utility.yul\":5350:5368   */\n      add\n        /* \"#utility.yul\":5342:5368   */\n      swap1\n      pop\n        /* \"#utility.yul\":5414:5423   */\n      dup2\n        /* \"#utility.yul\":5408:5412   */\n      dup2\n        /* \"#utility.yul\":5404:5424   */\n      sub\n        /* \"#utility.yul\":5400:5401   */\n      0x00\n        /* \"#utility.yul\":5389:5398   */\n      dup4\n        /* \"#utility.yul\":5385:5402   */\n      add\n        /* \"#utility.yul\":5378:5425   */\n      mstore\n        /* \"#utility.yul\":5442:5573   */\n      tag_112\n        /* \"#utility.yul\":5568:5572   */\n      dup2\n        /* \"#utility.yul\":5442:5573   */\n      tag_48\n      jump\t// in\n    tag_112:\n        /* \"#utility.yul\":5434:5573   */\n      swap1\n      pop\n        /* \"#utility.yul\":5161:5580   */\n      swap2\n      swap1\n      pop\n      jump\t// out\n        /* \"#utility.yul\":5586:5766   */\n    tag_49:\n        /* \"#utility.yul\":5634:5711   */\n      0x4e487b7100000000000000000000000000000000000000000000000000000000\n        /* \"#utility.yul\":5631:5632   */\n      0x00\n        /* \"#utility.yul\":5624:5712   */\n      mstore\n        /* \"#utility.yul\":5731:5735   */\n      0x22\n        /* \"#utility.yul\":5728:5729   */\n      0x04\n        /* \"#utility.yul\":5721:5736   */\n      mstore\n        /* \"#utility.yul\":5755:5759   */\n      0x24\n        /* \"#utility.yul\":5752:5753   */\n      0x00\n        /* \"#utility.yul\":5745:5760   */\n      revert\n        /* \"#utility.yul\":5772:6092   */\n    tag_24:\n        /* \"#utility.yul\":5816:5822   */\n      0x00\n        /* \"#utility.yul\":5853:5854   */\n      0x02\n        /* \"#utility.yul\":5847:5851   */\n      dup3\n        /* \"#utility.yul\":5843:5855   */\n      div\n        /* \"#utility.yul\":5833:5855   */\n      swap1\n      pop\n        /* \"#utility.yul\":5900:5901   */\n      0x01\n        /* \"#utility.yul\":5894:5898   */\n      dup3\n        /* \"#utility.yul\":5890:5902   */\n      and\n        /* \"#utility.yul\":5921:5939   */\n      dup1\n        /* \"#utility.yul\":5911:5992   */\n      tag_115\n      jumpi\n        /* \"#utility.yul\":5977:5981   */\n      0x7f\n        /* \"#utility.yul\":5969:5975   */\n      dup3\n        /* \"#utility.yul\":5965:5982   */\n      and\n        /* \"#utility.yul\":5955:5982   */\n      swap2\n      pop\n        /* \"#utility.yul\":5911:5992   */\n    tag_115:\n        /* \"#utility.yul\":6039:6041   */\n      0x20\n        /* \"#utility.yul\":6031:6037   */\n      dup3\n        /* \"#utility.yul\":6028:6042   */\n      lt\n        /* \"#utility.yul\":6008:6026   */\n      dup2\n        /* \"#utility.yul\":6005:6043   */\n      eq\n        /* \"#utility.yul\":6002:6086   */\n      iszero\n      tag_116\n      jumpi\n        /* \"#utility.yul\":6058:6076   */\n      tag_117\n      tag_49\n      jump\t// in\n    tag_117:\n        /* \"#utility.yul\":6002:6086   */\n    tag_116:\n        /* \"#utility.yul\":5823:6092   */\n      pop\n        /* \"#utility.yul\":5772:6092   */\n      swap2\n      swap1\n      pop\n      jump\t// out\n        /* \"input\":1533:5791  contract EDFToken is IERC20 {... */\n    tag_13:\n      dataSize(sub_0)\n      dup1\n      dataOffset(sub_0)\n      0x00\n      codecopy\n      0x00\n      return\n    stop\n\n    sub_0: assembly {\n            /* \"input\":1533:5791  contract EDFToken is IERC20 {... */\n          mstore(0x40, 0x80)\n          callvalue\n          dup1\n          iszero\n          tag_1\n          jumpi\n          0x00\n          dup1\n          revert\n        tag_1:\n          pop\n          jumpi(tag_2, lt(calldatasize, 0x04))\n          shr(0xe0, calldataload(0x00))\n          dup1\n          0x313ce567\n          gt\n          tag_12\n          jumpi\n          dup1\n          0x313ce567\n          eq\n          tag_7\n          jumpi\n          dup1\n          0x70a08231\n          eq\n          tag_8\n          jumpi\n          dup1\n          0x95d89b41\n          eq\n          tag_9\n          jumpi\n          dup1\n          0xa9059cbb\n          eq\n          tag_10\n          jumpi\n          dup1\n          0xdd62ed3e\n          eq\n          tag_11\n          jumpi\n          jump(tag_2)\n        tag_12:\n          dup1\n          0x06fdde03\n          eq\n          tag_3\n          jumpi\n          dup1\n          0x095ea7b3\n          eq\n          tag_4\n          jumpi\n          dup1\n          0x18160ddd\n          eq\n          tag_5\n          jumpi\n          dup1\n          0x23b872dd\n          eq\n          tag_6\n          jumpi\n        tag_2:\n          0x00\n          dup1\n          revert\n            /* \"input\":2056:2142  function name() external view override returns (string memory) {... */\n        tag_3:\n          tag_13\n          tag_14\n          jump\t// in\n        tag_13:\n          mload(0x40)\n          tag_15\n          swap2\n          swap1\n          tag_16\n          jump\t// in\n        tag_15:\n          mload(0x40)\n          dup1\n          swap2\n          sub\n          swap1\n          return\n            /* \"input\":4504:4781  function approve(address spender, uint256 amount) external override returns (bool) {... */\n        tag_4:\n          tag_17\n          0x04\n          dup1\n          calldatasize\n          sub\n          dup2\n          add\n          swap1\n          tag_18\n          swap2\n          swap1\n          tag_19\n          jump\t// in\n        tag_18:\n          tag_20\n          jump\t// in\n        tag_17:\n          mload(0x40)\n          tag_21\n          swap2\n          swap1\n          tag_22\n          jump\t// in\n        tag_21:\n          mload(0x40)\n          dup1\n          swap2\n          sub\n          swap1\n          return\n            /* \"input\":2522:2616  function totalSupply() external view override returns (uint256) {... */\n        tag_5:\n          tag_23\n          tag_24\n          jump\t// in\n        tag_23:\n          mload(0x40)\n          tag_25\n          swap2\n          swap1\n          tag_26\n          jump\t// in\n        tag_25:\n          mload(0x40)\n          dup1\n          swap2\n          sub\n          swap1\n          return\n            /* \"input\":5076:5789  function transferFrom(address sender, address recipient, uint256 amount) external override returns (bool) {... */\n        tag_6:\n          tag_27\n          0x04\n          dup1\n          calldatasize\n          sub\n          dup2\n          add\n          swap1\n          tag_28\n          swap2\n          swap1\n          tag_29\n          jump\t// in\n        tag_28:\n          tag_30\n          jump\t// in\n        tag_27:\n          mload(0x40)\n          tag_31\n          swap2\n          swap1\n          tag_22\n          jump\t// in\n        tag_31:\n          mload(0x40)\n          dup1\n          swap2\n          sub\n          swap1\n          return\n            /* \"input\":2363:2449  function decimals() external view override returns (uint8) {... */\n        tag_7:\n          tag_32\n          tag_33\n          jump\t// in\n        tag_32:\n          mload(0x40)\n          tag_34\n          swap2\n          swap1\n          tag_35\n          jump\t// in\n        tag_34:\n          mload(0x40)\n          dup1\n          swap2\n          sub\n          swap1\n          return\n            /* \"input\":2693:2806  function balanceOf(address account) external view override returns (uint256) {... */\n        tag_8:\n          tag_36\n          0x04\n          dup1\n          calldatasize\n          sub\n          dup2\n          add\n          swap1\n          tag_37\n          swap2\n          swap1\n          tag_38\n          jump\t// in\n        tag_37:\n          tag_39\n          jump\t// in\n        tag_36:\n          mload(0x40)\n          tag_40\n          swap2\n          swap1\n          tag_26\n          jump\t// in\n        tag_40:\n          mload(0x40)\n          dup1\n          swap2\n          sub\n          swap1\n          return\n            /* \"input\":2203:2293  function symbol() external view override returns (string memory) {... */\n        tag_9:\n          tag_41\n          tag_42\n          jump\t// in\n        tag_41:\n          mload(0x40)\n          tag_43\n          swap2\n          swap1\n          tag_16\n          jump\t// in\n        tag_43:\n          mload(0x40)\n          dup1\n          swap2\n          sub\n          swap1\n          return\n            /* \"input\":3016:3466  function transfer(address recipient, uint256 amount) external override returns (bool) {... */\n        tag_10:\n          tag_44\n          0x04\n          dup1\n          calldatasize\n          sub\n          dup2\n          add\n          swap1\n          tag_45\n          swap2\n          swap1\n          tag_19\n          jump\t// in\n        tag_45:\n          tag_46\n          jump\t// in\n        tag_44:\n          mload(0x40)\n          tag_47\n          swap2\n          swap1\n          tag_22\n          jump\t// in\n        tag_47:\n          mload(0x40)\n          dup1\n          swap2\n          sub\n          swap1\n          return\n            /* \"input\":3731:3868  function allowance(address owner, address spender) external view override returns (uint256) {... */\n        tag_11:\n          tag_48\n          0x04\n          dup1\n          calldatasize\n          sub\n          dup2\n          add\n          swap1\n          tag_49\n          swap2\n          swap1\n          tag_50\n          jump\t// in\n        tag_49:\n          tag_51\n          jump\t// in\n        tag_48:\n          mload(0x40)\n          tag_52\n          swap2\n          swap1\n          tag_26\n          jump\t// in\n        tag_52:\n          mload(0x40)\n          dup1\n          swap2\n          sub\n          swap1\n          return\n            /* \"input\":2056:2142  function name() external view override returns (string memory) {... */\n        tag_14:\n            /* \"input\":2104:2117  string memory */\n          0x60\n            /* \"input\":2132:2137  _name */\n          0x00\n            /* \"input\":2125:2137  return _name */\n          dup1\n          sload\n          tag_55\n          swap1\n          tag_56\n          jump\t// in\n        tag_55:\n          dup1\n          0x1f\n          add\n          0x20\n          dup1\n          swap2\n          div\n          mul\n          0x20\n          add\n          mload(0x40)\n          swap1\n          dup2\n          add\n          0x40\n          mstore\n          dup1\n          swap3\n          swap2\n          swap1\n          dup2\n          dup2\n          mstore\n          0x20\n          add\n          dup3\n          dup1\n          sload\n          tag_57\n          swap1\n          tag_56\n          jump\t// in\n        tag_57:\n          dup1\n          iszero\n          tag_58\n          jumpi\n          dup1\n          0x1f\n          lt\n          tag_59\n          jumpi\n          0x0100\n          dup1\n          dup4\n          sload\n          div\n          mul\n          dup4\n          mstore\n          swap2\n          0x20\n          add\n          swap2\n          jump(tag_58)\n        tag_59:\n          dup3\n          add\n          swap2\n          swap1\n          0x00\n          mstore\n          keccak256(0x00, 0x20)\n          swap1\n        tag_60:\n          dup2\n          sload\n          dup2\n          mstore\n          swap1\n          0x01\n          add\n          swap1\n          0x20\n          add\n          dup1\n          dup4\n          gt\n          tag_60\n          jumpi\n          dup3\n          swap1\n          sub\n          0x1f\n          and\n          dup3\n          add\n          swap2\n        tag_58:\n          pop\n          pop\n          pop\n          pop\n          pop\n          swap1\n          pop\n            /* \"input\":2056:2142  function name() external view override returns (string memory) {... */\n          swap1\n          jump\t// out\n            /* \"input\":4504:4781  function approve(address spender, uint256 amount) external override returns (bool) {... */\n        tag_20:\n            /* \"input\":4581:4585  bool */\n          0x00\n            /* \"input\":4620:4621  0 */\n          dup1\n            /* \"input\":4601:4622  spender != address(0) */\n          0xffffffffffffffffffffffffffffffffffffffff\n          and\n            /* \"input\":4601:4608  spender */\n          dup4\n            /* \"input\":4601:4622  spender != address(0) */\n          0xffffffffffffffffffffffffffffffffffffffff\n          and\n          eq\n          iszero\n            /* \"input\":4593:4661  require(spender != address(0), \"ERC20: approve to the zero address\") */\n          tag_62\n          jumpi\n          mload(0x40)\n          0x08c379a000000000000000000000000000000000000000000000000000000000\n          dup2\n          mstore\n          0x04\n          add\n          tag_63\n          swap1\n          tag_64\n          jump\t// in\n        tag_63:\n          mload(0x40)\n          dup1\n          swap2\n          sub\n          swap1\n          revert\n        tag_62:\n            /* \"input\":4703:4709  amount */\n          dup2\n            /* \"input\":4668:4679  _allowances */\n          0x05\n            /* \"input\":4668:4691  _allowances[msg.sender] */\n          0x00\n            /* \"input\":4680:4690  msg.sender */\n          caller\n            /* \"input\":4668:4691  _allowances[msg.sender] */\n          0xffffffffffffffffffffffffffffffffffffffff\n          and\n          0xffffffffffffffffffffffffffffffffffffffff\n          and\n          dup2\n          mstore\n          0x20\n          add\n          swap1\n          dup2\n          mstore\n          0x20\n          add\n          0x00\n          keccak256\n            /* \"input\":4668:4700  _allowances[msg.sender][spender] */\n          0x00\n            /* \"input\":4692:4699  spender */\n          dup6\n            /* \"input\":4668:4700  _allowances[msg.sender][spender] */\n          0xffffffffffffffffffffffffffffffffffffffff\n          and\n          0xffffffffffffffffffffffffffffffffffffffff\n          and\n          dup2\n          mstore\n          0x20\n          add\n          swap1\n          dup2\n          mstore\n          0x20\n          add\n          0x00\n          keccak256\n            /* \"input\":4668:4709  _allowances[msg.sender][spender] = amount */\n          dup2\n          swap1\n          sstore\n          pop\n            /* \"input\":4742:4749  spender */\n          dup3\n            /* \"input\":4721:4758  Approval(msg.sender, spender, amount) */\n          0xffffffffffffffffffffffffffffffffffffffff\n          and\n            /* \"input\":4730:4740  msg.sender */\n          caller\n            /* \"input\":4721:4758  Approval(msg.sender, spender, amount) */\n          0xffffffffffffffffffffffffffffffffffffffff\n          and\n          0x8c5be1e5ebec7d5bd14f71427d1e84f3dd0314c0f7b2291e5b200ac8c7c3b925\n            /* \"input\":4751:4757  amount */\n          dup5\n            /* \"input\":4721:4758  Approval(msg.sender, spender, amount) */\n          mload(0x40)\n          tag_65\n          swap2\n          swap1\n          tag_26\n          jump\t// in\n        tag_65:\n          mload(0x40)\n          dup1\n          swap2\n          sub\n          swap1\n          log3\n            /* \"input\":4772:4776  true */\n          0x01\n            /* \"input\":4765:4776  return true */\n          swap1\n          pop\n            /* \"input\":4504:4781  function approve(address spender, uint256 amount) external override returns (bool) {... */\n          swap3\n          swap2\n          pop\n          pop\n          jump\t// out\n            /* \"input\":2522:2616  function totalSupply() external view override returns (uint256) {... */\n        tag_24:\n            /* \"input\":2577:2584  uint256 */\n          0x00\n            /* \"input\":2599:2611  _totalSupply */\n          sload(0x03)\n            /* \"input\":2592:2611  return _totalSupply */\n          swap1\n          pop\n            /* \"input\":2522:2616  function totalSupply() external view override returns (uint256) {... */\n          swap1\n          jump\t// out\n            /* \"input\":5076:5789  function transferFrom(address sender, address recipient, uint256 amount) external override returns (bool) {... */\n        tag_30:\n            /* \"input\":5176:5180  bool */\n          0x00\n            /* \"input\":5214:5215  0 */\n          dup1\n            /* \"input\":5196:5216  sender != address(0) */\n          0xffffffffffffffffffffffffffffffffffffffff\n          and\n            /* \"input\":5196:5202  sender */\n          dup5\n            /* \"input\":5196:5216  sender != address(0) */\n          0xffffffffffffffffffffffffffffffffffffffff\n          and\n          eq\n          iszero\n            /* \"input\":5188:5258  require(sender != address(0), \"ERC20: transfer from the zero address\") */\n          tag_68\n          jumpi\n          mload(0x40)\n          0x08c379a000000000000000000000000000000000000000000000000000000000\n          dup2\n          mstore\n          0x04\n          add\n          tag_69\n          swap1\n          tag_70\n          jump\t// in\n        tag_69:\n          mload(0x40)\n          dup1\n          swap2\n          sub\n          swap1\n          revert\n        tag_68:\n            /* \"input\":5293:5294  0 */\n          0x00\n            /* \"input\":5272:5295  recipient != address(0) */\n          0xffffffffffffffffffffffffffffffffffffffff\n          and\n            /* \"input\":5272:5281  recipient */\n          dup4\n            /* \"input\":5272:5295  recipient != address(0) */\n          0xffffffffffffffffffffffffffffffffffffffff\n          and\n          eq\n          iszero\n            /* \"input\":5264:5335  require(recipient != address(0), \"ERC20: transfer to the zero address\") */\n          tag_71\n          jumpi\n          mload(0x40)\n          0x08c379a000000000000000000000000000000000000000000000000000000000\n          dup2\n          mstore\n          0x04\n          add\n          tag_72\n          swap1\n          tag_73\n          jump\t// in\n        tag_72:\n          mload(0x40)\n          dup1\n          swap2\n          sub\n          swap1\n          revert\n        tag_71:\n            /* \"input\":5359:5368  _balances */\n          0x04\n            /* \"input\":5359:5376  _balances[sender] */\n          0x00\n            /* \"input\":5369:5375  sender */\n          dup6\n            /* \"input\":5359:5376  _balances[sender] */\n          0xffffffffffffffffffffffffffffffffffffffff\n          and\n          0xffffffffffffffffffffffffffffffffffffffff\n          and\n          dup2\n          mstore\n          0x20\n          add\n          swap1\n          dup2\n          mstore\n          0x20\n          add\n          0x00\n          keccak256\n          sload\n            /* \"input\":5349:5355  amount */\n          dup3\n            /* \"input\":5349:5376  amount <= _balances[sender] */\n          gt\n          iszero\n            /* \"input\":5341:5419  require(amount <= _balances[sender], \"ERC20: transfer amount exceeds balance\") */\n          tag_74\n          jumpi\n          mload(0x40)\n          0x08c379a000000000000000000000000000000000000000000000000000000000\n          dup2\n          mstore\n          0x04\n          add\n          tag_75\n          swap1\n          tag_76\n          jump\t// in\n        tag_75:\n          mload(0x40)\n          dup1\n          swap2\n          sub\n          swap1\n          revert\n        tag_74:\n            /* \"input\":5468:5474  amount */\n          dup2\n            /* \"input\":5433:5444  _allowances */\n          0x05\n            /* \"input\":5433:5452  _allowances[sender] */\n          0x00\n            /* \"input\":5445:5451  sender */\n          dup7\n            /* \"input\":5433:5452  _allowances[sender] */\n          0xffffffffffffffffffffffffffffffffffffffff\n          and\n          0xffffffffffffffffffffffffffffffffffffffff\n          and\n          dup2\n          mstore\n          0x20\n          add\n          swap1\n          dup2\n          mstore\n          0x20\n          add\n          0x00\n          keccak256\n            /* \"input\":5433:5464  _allowances[sender][msg.sender] */\n          0x00\n            /* \"input\":5453:5463  msg.sender */\n          caller\n            /* \"input\":5433:5464  _allowances[sender][msg.sender] */\n          0xffffffffffffffffffffffffffffffffffffffff\n          and\n          0xffffffffffffffffffffffffffffffffffffffff\n          and\n          dup2\n          mstore\n          0x20\n          add\n          swap1\n          dup2\n          mstore\n          0x20\n          add\n          0x00\n          keccak256\n          sload\n            /* \"input\":5433:5474  _allowances[sender][msg.sender] >= amount */\n          lt\n          iszero\n            /* \"input\":5425:5519  require(_allowances[sender][msg.sender] >= amount, \"ERC20: transfer amount exceeds allowance\") */\n          tag_77\n          jumpi\n          mload(0x40)\n          0x08c379a000000000000000000000000000000000000000000000000000000000\n          dup2\n          mstore\n          0x04\n          add\n          tag_78\n          swap1\n          tag_79\n          jump\t// in\n        tag_78:\n          mload(0x40)\n          dup1\n          swap2\n          sub\n          swap1\n          revert\n        tag_77:\n            /* \"input\":5546:5575  _balances[sender].sub(amount) */\n          tag_80\n            /* \"input\":5568:5574  amount */\n          dup3\n            /* \"input\":5546:5555  _balances */\n          0x04\n            /* \"input\":5546:5563  _balances[sender] */\n          0x00\n            /* \"input\":5556:5562  sender */\n          dup8\n            /* \"input\":5546:5563  _balances[sender] */\n          0xffffffffffffffffffffffffffffffffffffffff\n          and\n          0xffffffffffffffffffffffffffffffffffffffff\n          and\n          dup2\n          mstore\n          0x20\n          add\n          swap1\n          dup2\n          mstore\n          0x20\n          add\n          0x00\n          keccak256\n          sload\n            /* \"input\":5546:5567  _balances[sender].sub */\n          tag_81\n          swap1\n            /* \"input\":5546:5575  _balances[sender].sub(amount) */\n          swap2\n          swap1\n          0xffffffff\n          and\n          jump\t// in\n        tag_80:\n            /* \"input\":5526:5535  _balances */\n          0x04\n            /* \"input\":5526:5543  _balances[sender] */\n          0x00\n            /* \"input\":5536:5542  sender */\n          dup7\n            /* \"input\":5526:5543  _balances[sender] */\n          0xffffffffffffffffffffffffffffffffffffffff\n          and\n          0xffffffffffffffffffffffffffffffffffffffff\n          and\n          dup2\n          mstore\n          0x20\n          add\n          swap1\n          dup2\n          mstore\n          0x20\n          add\n          0x00\n          keccak256\n            /* \"input\":5526:5575  _balances[sender] = _balances[sender].sub(amount) */\n          dup2\n          swap1\n          sstore\n          pop\n            /* \"input\":5604:5636  _balances[recipient].add(amount) */\n          tag_82\n            /* \"input\":5629:5635  amount */\n          dup3\n            /* \"input\":5604:5613  _balances */\n          0x04\n            /* \"input\":5604:5624  _balances[recipient] */\n          0x00\n            /* \"input\":5614:5623  recipient */\n          dup7\n            /* \"input\":5604:5624  _balances[recipient] */\n          0xffffffffffffffffffffffffffffffffffffffff\n          and\n          0xffffffffffffffffffffffffffffffffffffffff\n          and\n          dup2\n          mstore\n          0x20\n          add\n          swap1\n          dup2\n          mstore\n          0x20\n          add\n          0x00\n          keccak256\n          sload\n            /* \"input\":5604:5628  _balances[recipient].add */\n          tag_83\n          swap1\n            /* \"input\":5604:5636  _balances[recipient].add(amount) */\n          swap2\n          swap1\n          0xffffffff\n          and\n          jump\t// in\n        tag_82:\n            /* \"input\":5581:5590  _balances */\n          0x04\n            /* \"input\":5581:5601  _balances[recipient] */\n          0x00\n            /* \"input\":5591:5600  recipient */\n          dup6\n            /* \"input\":5581:5601  _balances[recipient] */\n          0xffffffffffffffffffffffffffffffffffffffff\n          and\n          0xffffffffffffffffffffffffffffffffffffffff\n          and\n          dup2\n          mstore\n          0x20\n          add\n          swap1\n          dup2\n          mstore\n          0x20\n          add\n          0x00\n          keccak256\n            /* \"input\":5581:5636  _balances[recipient] = _balances[recipient].add(amount) */\n          dup2\n          swap1\n          sstore\n          pop\n            /* \"input\":5676:5719  _allowances[sender][msg.sender].sub(amount) */\n          tag_84\n            /* \"input\":5712:5718  amount */\n          dup3\n            /* \"input\":5676:5687  _allowances */\n          0x05\n            /* \"input\":5676:5695  _allowances[sender] */\n          0x00\n            /* \"input\":5688:5694  sender */\n          dup8\n            /* \"input\":5676:5695  _allowances[sender] */\n          0xffffffffffffffffffffffffffffffffffffffff\n          and\n          0xffffffffffffffffffffffffffffffffffffffff\n          and\n          dup2\n          mstore\n          0x20\n          add\n          swap1\n          dup2\n          mstore\n          0x20\n          add\n          0x00\n          keccak256\n            /* \"input\":5676:5707  _allowances[sender][msg.sender] */\n          0x00\n            /* \"input\":5696:5706  msg.sender */\n          caller\n            /* \"input\":5676:5707  _allowances[sender][msg.sender] */\n          0xffffffffffffffffffffffffffffffffffffffff\n          and\n          0xffffffffffffffffffffffffffffffffffffffff\n          and\n          dup2\n          mstore\n          0x20\n          add\n          swap1\n          dup2\n          mstore\n          0x20\n          add\n          0x00\n          keccak256\n          sload\n            /* \"input\":5676:5711  _allowances[sender][msg.sender].sub */\n          tag_81\n          swap1\n            /* \"input\":5676:5719  _allowances[sender][msg.sender].sub(amount) */\n          swap2\n          swap1\n          0xffffffff\n          and\n          jump\t// in\n        tag_84:\n            /* \"input\":5642:5653  _allowances */\n          0x05\n            /* \"input\":5642:5661  _allowances[sender] */\n          0x00\n            /* \"input\":5654:5660  sender */\n          dup7\n            /* \"input\":5642:5661  _allowances[sender] */\n          0xffffffffffffffffffffffffffffffffffffffff\n          and\n          0xffffffffffffffffffffffffffffffffffffffff\n          and\n          dup2\n          mstore\n          0x20\n          add\n          swap1\n          dup2\n          mstore\n          0x20\n          add\n          0x00\n          keccak256\n            /* \"input\":5642:5673  _allowances[sender][msg.sender] */\n          0x00\n            /* \"input\":5662:5672  msg.sender */\n          caller\n            /* \"input\":5642:5673  _allowances[sender][msg.sender] */\n          0xffffffffffffffffffffffffffffffffffffffff\n          and\n          0xffffffffffffffffffffffffffffffffffffffff\n          and\n          dup2\n          mstore\n          0x20\n          add\n          swap1\n          dup2\n          mstore\n          0x20\n          add\n          0x00\n          keccak256\n            /* \"input\":5642:5719  _allowances[sender][msg.sender] = _allowances[sender][msg.sender].sub(amount) */\n          dup2\n          swap1\n          sstore\n          pop\n            /* \"input\":5748:5757  recipient */\n          dup3\n            /* \"input\":5731:5766  Transfer(sender, recipient, amount) */\n          0xffffffffffffffffffffffffffffffffffffffff\n          and\n            /* \"input\":5740:5746  sender */\n          dup5\n            /* \"input\":5731:5766  Transfer(sender, recipient, amount) */\n          0xffffffffffffffffffffffffffffffffffffffff\n          and\n          0xddf252ad1be2c89b69c2b068fc378daa952ba7f163c4a11628f55a4df523b3ef\n            /* \"input\":5759:5765  amount */\n          dup5\n            /* \"input\":5731:5766  Transfer(sender, recipient, amount) */\n          mload(0x40)\n          tag_85\n          swap2\n          swap1\n          tag_26\n          jump\t// in\n        tag_85:\n          mload(0x40)\n          dup1\n          swap2\n          sub\n          swap1\n          log3\n            /* \"input\":5780:5784  true */\n          0x01\n            /* \"input\":5773:5784  return true */\n          swap1\n          pop\n            /* \"input\":5076:5789  function transferFrom(address sender, address recipient, uint256 amount) external override returns (bool) {... */\n          swap4\n          swap3\n          pop\n          pop\n          pop\n          jump\t// out\n            /* \"input\":2363:2449  function decimals() external view override returns (uint8) {... */\n        tag_33:\n            /* \"input\":2415:2420  uint8 */\n          0x00\n            /* \"input\":2435:2444  _decimals */\n          0x02\n          0x00\n          swap1\n          sload\n          swap1\n          0x0100\n          exp\n          swap1\n          div\n          0xff\n          and\n            /* \"input\":2428:2444  return _decimals */\n          swap1\n          pop\n            /* \"input\":2363:2449  function decimals() external view override returns (uint8) {... */\n          swap1\n          jump\t// out\n            /* \"input\":2693:2806  function balanceOf(address account) external view override returns (uint256) {... */\n        tag_39:\n            /* \"input\":2761:2768  uint256 */\n          0x00\n            /* \"input\":2783:2792  _balances */\n          0x04\n            /* \"input\":2783:2801  _balances[account] */\n          0x00\n            /* \"input\":2793:2800  account */\n          dup4\n            /* \"input\":2783:2801  _balances[account] */\n          0xffffffffffffffffffffffffffffffffffffffff\n          and\n          0xffffffffffffffffffffffffffffffffffffffff\n          and\n          dup2\n          mstore\n          0x20\n          add\n          swap1\n          dup2\n          mstore\n          0x20\n          add\n          0x00\n          keccak256\n          sload\n            /* \"input\":2776:2801  return _balances[account] */\n          swap1\n          pop\n            /* \"input\":2693:2806  function balanceOf(address account) external view override returns (uint256) {... */\n          swap2\n          swap1\n          pop\n          jump\t// out\n            /* \"input\":2203:2293  function symbol() external view override returns (string memory) {... */\n        tag_42:\n            /* \"input\":2253:2266  string memory */\n          0x60\n            /* \"input\":2281:2288  _symbol */\n          0x01\n            /* \"input\":2274:2288  return _symbol */\n          dup1\n          sload\n          tag_89\n          swap1\n          tag_56\n          jump\t// in\n        tag_89:\n          dup1\n          0x1f\n          add\n          0x20\n          dup1\n          swap2\n          div\n          mul\n          0x20\n          add\n          mload(0x40)\n          swap1\n          dup2\n          add\n          0x40\n          mstore\n          dup1\n          swap3\n          swap2\n          swap1\n          dup2\n          dup2\n          mstore\n          0x20\n          add\n          dup3\n          dup1\n          sload\n          tag_90\n          swap1\n          tag_56\n          jump\t// in\n        tag_90:\n          dup1\n          iszero\n          tag_91\n          jumpi\n          dup1\n          0x1f\n          lt\n          tag_92\n          jumpi\n          0x0100\n          dup1\n          dup4\n          sload\n          div\n          mul\n          dup4\n          mstore\n          swap2\n          0x20\n          add\n          swap2\n          jump(tag_91)\n        tag_92:\n          dup3\n          add\n          swap2\n          swap1\n          0x00\n          mstore\n          keccak256(0x00, 0x20)\n          swap1\n        tag_93:\n          dup2\n          sload\n          dup2\n          mstore\n          swap1\n          0x01\n          add\n          swap1\n          0x20\n          add\n          dup1\n          dup4\n          gt\n          tag_93\n          jumpi\n          dup3\n          swap1\n          sub\n          0x1f\n          and\n          dup3\n          add\n          swap2\n        tag_91:\n          pop\n          pop\n          pop\n          pop\n          pop\n          swap1\n          pop\n            /* \"input\":2203:2293  function symbol() external view override returns (string memory) {... */\n          swap1\n          jump\t// out\n            /* \"input\":3016:3466  function transfer(address recipient, uint256 amount) external override returns (bool) {... */\n        tag_46:\n            /* \"input\":3096:3100  bool */\n          0x00\n            /* \"input\":3137:3138  0 */\n          dup1\n            /* \"input\":3116:3139  recipient != address(0) */\n          0xffffffffffffffffffffffffffffffffffffffff\n          and\n            /* \"input\":3116:3125  recipient */\n          dup4\n            /* \"input\":3116:3139  recipient != address(0) */\n          0xffffffffffffffffffffffffffffffffffffffff\n          and\n          eq\n          iszero\n            /* \"input\":3108:3179  require(recipient != address(0), \"ERC20: transfer to the zero address\") */\n          tag_95\n          jumpi\n          mload(0x40)\n          0x08c379a000000000000000000000000000000000000000000000000000000000\n          dup2\n          mstore\n          0x04\n          add\n          tag_96\n          swap1\n          tag_73\n          jump\t// in\n        tag_96:\n          mload(0x40)\n          dup1\n          swap2\n          sub\n          swap1\n          revert\n        tag_95:\n            /* \"input\":3203:3212  _balances */\n          0x04\n            /* \"input\":3203:3224  _balances[msg.sender] */\n          0x00\n            /* \"input\":3213:3223  msg.sender */\n          caller\n            /* \"input\":3203:3224  _balances[msg.sender] */\n          0xffffffffffffffffffffffffffffffffffffffff\n          and\n          0xffffffffffffffffffffffffffffffffffffffff\n          and\n          dup2\n          mstore\n          0x20\n          add\n          swap1\n          dup2\n          mstore\n          0x20\n          add\n          0x00\n          keccak256\n          sload\n            /* \"input\":3193:3199  amount */\n          dup3\n            /* \"input\":3193:3224  amount <= _balances[msg.sender] */\n          gt\n          iszero\n            /* \"input\":3185:3267  require(amount <= _balances[msg.sender], \"ERC20: transfer amount exceeds balance\") */\n          tag_97\n          jumpi\n          mload(0x40)\n          0x08c379a000000000000000000000000000000000000000000000000000000000\n          dup2\n          mstore\n          0x04\n          add\n          tag_98\n          swap1\n          tag_76\n          jump\t// in\n        tag_98:\n          mload(0x40)\n          dup1\n          swap2\n          sub\n          swap1\n          revert\n        tag_97:\n            /* \"input\":3298:3331  _balances[msg.sender].sub(amount) */\n          tag_99\n            /* \"input\":3324:3330  amount */\n          dup3\n            /* \"input\":3298:3307  _balances */\n          0x04\n            /* \"input\":3298:3319  _balances[msg.sender] */\n          0x00\n            /* \"input\":3308:3318  msg.sender */\n          caller\n            /* \"input\":3298:3319  _balances[msg.sender] */\n          0xffffffffffffffffffffffffffffffffffffffff\n          and\n          0xffffffffffffffffffffffffffffffffffffffff\n          and\n          dup2\n          mstore\n          0x20\n          add\n          swap1\n          dup2\n          mstore\n          0x20\n          add\n          0x00\n          keccak256\n          sload\n            /* \"input\":3298:3323  _balances[msg.sender].sub */\n          tag_81\n          swap1\n            /* \"input\":3298:3331  _balances[msg.sender].sub(amount) */\n          swap2\n          swap1\n          0xffffffff\n          and\n          jump\t// in\n        tag_99:\n            /* \"input\":3274:3283  _balances */\n          0x04\n            /* \"input\":3274:3295  _balances[msg.sender] */\n          0x00\n            /* \"input\":3284:3294  msg.sender */\n          caller\n            /* \"input\":3274:3295  _balances[msg.sender] */\n          0xffffffffffffffffffffffffffffffffffffffff\n          and\n          0xffffffffffffffffffffffffffffffffffffffff\n          and\n          dup2\n          mstore\n          0x20\n          add\n          swap1\n          dup2\n          mstore\n          0x20\n          add\n          0x00\n          keccak256\n            /* \"input\":3274:3331  _balances[msg.sender] = _balances[msg.sender].sub(amount) */\n          dup2\n          swap1\n          sstore\n          pop\n            /* \"input\":3360:3392  _balances[recipient].add(amount) */\n          tag_100\n            /* \"input\":3385:3391  amount */\n          dup3\n            /* \"input\":3360:3369  _balances */\n          0x04\n            /* \"input\":3360:3380  _balances[recipient] */\n          0x00\n            /* \"input\":3370:3379  recipient */\n          dup7\n            /* \"input\":3360:3380  _balances[recipient] */\n          0xffffffffffffffffffffffffffffffffffffffff\n          and\n          0xffffffffffffffffffffffffffffffffffffffff\n          and\n          dup2\n          mstore\n          0x20\n          add\n          swap1\n          dup2\n          mstore\n          0x20\n          add\n          0x00\n          keccak256\n          sload\n            /* \"input\":3360:3384  _balances[recipient].add */\n          tag_83\n          swap1\n            /* \"input\":3360:3392  _balances[recipient].add(amount) */\n          swap2\n          swap1\n          0xffffffff\n          and\n          jump\t// in\n        tag_100:\n            /* \"input\":3337:3346  _balances */\n          0x04\n            /* \"input\":3337:3357  _balances[recipient] */\n          0x00\n            /* \"input\":3347:3356  recipient */\n          dup6\n            /* \"input\":3337:3357  _balances[recipient] */\n          0xffffffffffffffffffffffffffffffffffffffff\n          and\n          0xffffffffffffffffffffffffffffffffffffffff\n          and\n          dup2\n          mstore\n          0x20\n          add\n          swap1\n          dup2\n          mstore\n          0x20\n          add\n          0x00\n          keccak256\n            /* \"input\":3337:3392  _balances[recipient] = _balances[recipient].add(amount) */\n          dup2\n          swap1\n          sstore\n          pop\n            /* \"input\":3425:3434  recipient */\n          dup3\n            /* \"input\":3404:3443  Transfer(msg.sender, recipient, amount) */\n          0xffffffffffffffffffffffffffffffffffffffff\n          and\n            /* \"input\":3413:3423  msg.sender */\n          caller\n            /* \"input\":3404:3443  Transfer(msg.sender, recipient, amount) */\n          0xffffffffffffffffffffffffffffffffffffffff\n          and\n          0xddf252ad1be2c89b69c2b068fc378daa952ba7f163c4a11628f55a4df523b3ef\n            /* \"input\":3436:3442  amount */\n          dup5\n            /* \"input\":3404:3443  Transfer(msg.sender, recipient, amount) */\n          mload(0x40)\n          tag_101\n          swap2\n          swap1\n          tag_26\n          jump\t// in\n        tag_101:\n          mload(0x40)\n          dup1\n          swap2\n          sub\n          swap1\n          log3\n            /* \"input\":3457:3461  true */\n          0x01\n            /* \"input\":3450:3461  return true */\n          swap1\n          pop\n            /* \"input\":3016:3466  function transfer(address recipient, uint256 amount) external override returns (bool) {... */\n          swap3\n          swap2\n          pop\n          pop\n          jump\t// out\n            /* \"input\":3731:3868  function allowance(address owner, address spender) external view override returns (uint256) {... */\n        tag_51:\n            /* \"input\":3814:3821  uint256 */\n          0x00\n            /* \"input\":3836:3847  _allowances */\n          0x05\n            /* \"input\":3836:3854  _allowances[owner] */\n          0x00\n            /* \"input\":3848:3853  owner */\n          dup5\n            /* \"input\":3836:3854  _allowances[owner] */\n          0xffffffffffffffffffffffffffffffffffffffff\n          and\n          0xffffffffffffffffffffffffffffffffffffffff\n          and\n          dup2\n          mstore\n          0x20\n          add\n          swap1\n          dup2\n          mstore\n          0x20\n          add\n          0x00\n          keccak256\n            /* \"input\":3836:3863  _allowances[owner][spender] */\n          0x00\n            /* \"input\":3855:3862  spender */\n          dup4\n            /* \"input\":3836:3863  _allowances[owner][spender] */\n          0xffffffffffffffffffffffffffffffffffffffff\n          and\n          0xffffffffffffffffffffffffffffffffffffffff\n          and\n          dup2\n          mstore\n          0x20\n          add\n          swap1\n          dup2\n          mstore\n          0x20\n          add\n          0x00\n          keccak256\n          sload\n            /* \"input\":3829:3863  return _allowances[owner][spender] */\n          swap1\n          pop\n            /* \"input\":3731:3868  function allowance(address owner, address spender) external view override returns (uint256) {... */\n          swap3\n          swap2\n          pop\n          pop\n          jump\t// out\n            /* \"input\":1153:1366  function mul(uint256 a, uint256 b) internal pure returns (uint256) {... */\n        tag_53:\n            /* \"input\":1211:1218  uint256 */\n          0x00\n            /* \"input\":1235:1236  0 */\n          dup1\n            /* \"input\":1230:1231  a */\n          dup4\n            /* \"input\":1230:1236  a == 0 */\n          eq\n            /* \"input\":1226:1261  if (a == 0) {... */\n          iszero\n          tag_104\n          jumpi\n            /* \"input\":1253:1254  0 */\n          0x00\n            /* \"input\":1246:1254  return 0 */\n          swap1\n          pop\n          jump(tag_103)\n            /* \"input\":1226:1261  if (a == 0) {... */\n        tag_104:\n            /* \"input\":1267:1276  uint256 c */\n          0x00\n            /* \"input\":1283:1284  b */\n          dup3\n            /* \"input\":1279:1280  a */\n          dup5\n            /* \"input\":1279:1284  a * b */\n          tag_105\n          swap2\n          swap1\n          tag_106\n          jump\t// in\n        tag_105:\n            /* \"input\":1267:1284  uint256 c = a * b */\n          swap1\n          pop\n            /* \"input\":1307:1308  b */\n          dup3\n            /* \"input\":1302:1303  a */\n          dup5\n            /* \"input\":1298:1299  c */\n          dup3\n            /* \"input\":1298:1303  c / a */\n          tag_107\n          swap2\n          swap1\n          tag_108\n          jump\t// in\n        tag_107:\n            /* \"input\":1298:1308  c / a == b */\n          eq\n            /* \"input\":1290:1346  require(c / a == b, \"SafeMath: multiplication overflow\") */\n          tag_109\n          jumpi\n          mload(0x40)\n          0x08c379a000000000000000000000000000000000000000000000000000000000\n          dup2\n          mstore\n          0x04\n          add\n          tag_110\n          swap1\n          tag_111\n          jump\t// in\n        tag_110:\n          mload(0x40)\n          dup1\n          swap2\n          sub\n          swap1\n          revert\n        tag_109:\n            /* \"input\":1360:1361  c */\n          dup1\n            /* \"input\":1353:1361  return c */\n          swap2\n          pop\n          pop\n            /* \"input\":1153:1366  function mul(uint256 a, uint256 b) internal pure returns (uint256) {... */\n        tag_103:\n          swap3\n          swap2\n          pop\n          pop\n          jump\t// out\n            /* \"input\":906:1016  function sub(uint256 a, uint256 b) internal pure returns (uint256) {... */\n        tag_81:\n            /* \"input\":964:971  uint256 */\n          0x00\n            /* \"input\":991:992  a */\n          dup3\n            /* \"input\":986:987  b */\n          dup3\n            /* \"input\":986:992  b <= a */\n          gt\n          iszero\n            /* \"input\":979:993  assert(b <= a) */\n          tag_113\n          jumpi\n          tag_114\n          tag_115\n          jump\t// in\n        tag_114:\n        tag_113:\n            /* \"input\":1010:1011  b */\n          dup2\n            /* \"input\":1006:1007  a */\n          dup4\n            /* \"input\":1006:1011  a - b */\n          tag_116\n          swap2\n          swap1\n          tag_117\n          jump\t// in\n        tag_116:\n            /* \"input\":999:1011  return a - b */\n          swap1\n          pop\n            /* \"input\":906:1016  function sub(uint256 a, uint256 b) internal pure returns (uint256) {... */\n          swap3\n          swap2\n          pop\n          pop\n          jump\t// out\n            /* \"input\":1020:1149  function add(uint256 a, uint256 b) internal pure returns (uint256) {... */\n        tag_83:\n            /* \"input\":1078:1085  uint256 */\n          0x00\n            /* \"input\":1093:1102  uint256 c */\n          dup1\n            /* \"input\":1109:1110  b */\n          dup3\n            /* \"input\":1105:1106  a */\n          dup5\n            /* \"input\":1105:1110  a + b */\n          tag_119\n          swap2\n          swap1\n          tag_120\n          jump\t// in\n        tag_119:\n            /* \"input\":1093:1110  uint256 c = a + b */\n          swap1\n          pop\n            /* \"input\":1128:1129  a */\n          dup4\n            /* \"input\":1123:1124  c */\n          dup2\n            /* \"input\":1123:1129  c >= a */\n          lt\n          iszero\n            /* \"input\":1116:1130  assert(c >= a) */\n          tag_121\n          jumpi\n          tag_122\n          tag_115\n          jump\t// in\n        tag_122:\n        tag_121:\n            /* \"input\":1143:1144  c */\n          dup1\n            /* \"input\":1136:1144  return c */\n          swap2\n          pop\n          pop\n            /* \"input\":1020:1149  function add(uint256 a, uint256 b) internal pure returns (uint256) {... */\n          swap3\n          swap2\n          pop\n          pop\n          jump\t// out\n            /* \"#utility.yul\":7:106   */\n        tag_123:\n            /* \"#utility.yul\":59:65   */\n          0x00\n            /* \"#utility.yul\":93:98   */\n          dup2\n            /* \"#utility.yul\":87:99   */\n          mload\n            /* \"#utility.yul\":77:99   */\n          swap1\n          pop\n            /* \"#utility.yul\":7:106   */\n          swap2\n          swap1\n          pop\n          jump\t// out\n            /* \"#utility.yul\":112:281   */\n        tag_124:\n            /* \"#utility.yul\":196:207   */\n          0x00\n            /* \"#utility.yul\":230:236   */\n          dup3\n            /* \"#utility.yul\":225:228   */\n          dup3\n            /* \"#utility.yul\":218:237   */\n          mstore\n            /* \"#utility.yul\":270:274   */\n          0x20\n            /* \"#utility.yul\":265:268   */\n          dup3\n            /* \"#utility.yul\":261:275   */\n          add\n            /* \"#utility.yul\":246:275   */\n          swap1\n          pop\n            /* \"#utility.yul\":112:281   */\n          swap3\n          swap2\n          pop\n          pop\n          jump\t// out\n            /* \"#utility.yul\":287:594   */\n        tag_125:\n            /* \"#utility.yul\":355:356   */\n          0x00\n            /* \"#utility.yul\":365:478   */\n        tag_162:\n            /* \"#utility.yul\":379:385   */\n          dup4\n            /* \"#utility.yul\":376:377   */\n          dup2\n            /* \"#utility.yul\":373:386   */\n          lt\n            /* \"#utility.yul\":365:478   */\n          iszero\n          tag_164\n          jumpi\n            /* \"#utility.yul\":464:465   */\n          dup1\n            /* \"#utility.yul\":459:462   */\n          dup3\n            /* \"#utility.yul\":455:466   */\n          add\n            /* \"#utility.yul\":449:467   */\n          mload\n            /* \"#utility.yul\":445:446   */\n          dup2\n            /* \"#utility.yul\":440:443   */\n          dup5\n            /* \"#utility.yul\":436:447   */\n          add\n            /* \"#utility.yul\":429:468   */\n          mstore\n            /* \"#utility.yul\":401:403   */\n          0x20\n            /* \"#utility.yul\":398:399   */\n          dup2\n            /* \"#utility.yul\":394:404   */\n          add\n            /* \"#utility.yul\":389:404   */\n          swap1\n          pop\n            /* \"#utility.yul\":365:478   */\n          jump(tag_162)\n        tag_164:\n            /* \"#utility.yul\":496:502   */\n          dup4\n            /* \"#utility.yul\":493:494   */\n          dup2\n            /* \"#utility.yul\":490:503   */\n          gt\n            /* \"#utility.yul\":487:588   */\n          iszero\n          tag_165\n          jumpi\n            /* \"#utility.yul\":576:577   */\n          0x00\n            /* \"#utility.yul\":567:573   */\n          dup5\n            /* \"#utility.yul\":562:565   */\n          dup5\n            /* \"#utility.yul\":558:574   */\n          add\n            /* \"#utility.yul\":551:578   */\n          mstore\n            /* \"#utility.yul\":487:588   */\n        tag_165:\n            /* \"#utility.yul\":336:594   */\n          pop\n            /* \"#utility.yul\":287:594   */\n          pop\n          pop\n          pop\n          jump\t// out\n            /* \"#utility.yul\":600:702   */\n        tag_126:\n            /* \"#utility.yul\":641:647   */\n          0x00\n            /* \"#utility.yul\":692:694   */\n          0x1f\n            /* \"#utility.yul\":688:695   */\n          not\n            /* \"#utility.yul\":683:685   */\n          0x1f\n            /* \"#utility.yul\":676:681   */\n          dup4\n            /* \"#utility.yul\":672:686   */\n          add\n            /* \"#utility.yul\":668:696   */\n          and\n            /* \"#utility.yul\":658:696   */\n          swap1\n          pop\n            /* \"#utility.yul\":600:702   */\n          swap2\n          swap1\n          pop\n          jump\t// out\n            /* \"#utility.yul\":708:1072   */\n        tag_127:\n            /* \"#utility.yul\":796:799   */\n          0x00\n            /* \"#utility.yul\":824:863   */\n          tag_168\n            /* \"#utility.yul\":857:862   */\n          dup3\n            /* \"#utility.yul\":824:863   */\n          tag_123\n          jump\t// in\n        tag_168:\n            /* \"#utility.yul\":879:950   */\n          tag_169\n            /* \"#utility.yul\":943:949   */\n          dup2\n            /* \"#utility.yul\":938:941   */\n          dup6\n            /* \"#utility.yul\":879:950   */\n          tag_124\n          jump\t// in\n        tag_169:\n            /* \"#utility.yul\":872:950   */\n          swap4\n          pop\n            /* \"#utility.yul\":959:1011   */\n          tag_170\n            /* \"#utility.yul\":1004:1010   */\n          dup2\n            /* \"#utility.yul\":999:1002   */\n          dup6\n            /* \"#utility.yul\":992:996   */\n          0x20\n            /* \"#utility.yul\":985:990   */\n          dup7\n            /* \"#utility.yul\":981:997   */\n          add\n            /* \"#utility.yul\":959:1011   */\n          tag_125\n          jump\t// in\n        tag_170:\n            /* \"#utility.yul\":1036:1065   */\n          tag_171\n            /* \"#utility.yul\":1058:1064   */\n          dup2\n            /* \"#utility.yul\":1036:1065   */\n          tag_126\n          jump\t// in\n        tag_171:\n            /* \"#utility.yul\":1031:1034   */\n          dup5\n            /* \"#utility.yul\":1027:1066   */\n          add\n            /* \"#utility.yul\":1020:1066   */\n          swap2\n          pop\n            /* \"#utility.yul\":800:1072   */\n          pop\n            /* \"#utility.yul\":708:1072   */\n          swap3\n          swap2\n          pop\n          pop\n          jump\t// out\n            /* \"#utility.yul\":1078:1391   */\n        tag_16:\n            /* \"#utility.yul\":1191:1195   */\n          0x00\n            /* \"#utility.yul\":1229:1231   */\n          0x20\n            /* \"#utility.yul\":1218:1227   */\n          dup3\n            /* \"#utility.yul\":1214:1232   */\n          add\n            /* \"#utility.yul\":1206:1232   */\n          swap1\n          pop\n            /* \"#utility.yul\":1278:1287   */\n          dup2\n            /* \"#utility.yul\":1272:1276   */\n          dup2\n            /* \"#utility.yul\":1268:1288   */\n          sub\n            /* \"#utility.yul\":1264:1265   */\n          0x00\n            /* \"#utility.yul\":1253:1262   */\n          dup4\n            /* \"#utility.yul\":1249:1266   */\n          add\n            /* \"#utility.yul\":1242:1289   */\n          mstore\n            /* \"#utility.yul\":1306:1384   */\n          tag_173\n            /* \"#utility.yul\":1379:1383   */\n          dup2\n            /* \"#utility.yul\":1370:1376   */\n          dup5\n            /* \"#utility.yul\":1306:1384   */\n          tag_127\n          jump\t// in\n        tag_173:\n            /* \"#utility.yul\":1298:1384   */\n          swap1\n          pop\n            /* \"#utility.yul\":1078:1391   */\n          swap3\n          swap2\n          pop\n          pop\n          jump\t// out\n            /* \"#utility.yul\":1478:1595   */\n        tag_129:\n            /* \"#utility.yul\":1587:1588   */\n          0x00\n            /* \"#utility.yul\":1584:1585   */\n          dup1\n            /* \"#utility.yul\":1577:1589   */\n          revert\n            /* \"#utility.yul\":1724:1850   */\n        tag_131:\n            /* \"#utility.yul\":1761:1768   */\n          0x00\n            /* \"#utility.yul\":1801:1843   */\n          0xffffffffffffffffffffffffffffffffffffffff\n            /* \"#utility.yul\":1794:1799   */\n          dup3\n            /* \"#utility.yul\":1790:1844   */\n          and\n            /* \"#utility.yul\":1779:1844   */\n          swap1\n          pop\n            /* \"#utility.yul\":1724:1850   */\n          swap2\n          swap1\n          pop\n          jump\t// out\n            /* \"#utility.yul\":1856:1952   */\n        tag_132:\n            /* \"#utility.yul\":1893:1900   */\n          0x00\n            /* \"#utility.yul\":1922:1946   */\n          tag_179\n            /* \"#utility.yul\":1940:1945   */\n          dup3\n            /* \"#utility.yul\":1922:1946   */\n          tag_131\n          jump\t// in\n        tag_179:\n            /* \"#utility.yul\":1911:1946   */\n          swap1\n          pop\n            /* \"#utility.yul\":1856:1952   */\n          swap2\n          swap1\n          pop\n          jump\t// out\n            /* \"#utility.yul\":1958:2080   */\n        tag_133:\n            /* \"#utility.yul\":2031:2055   */\n          tag_181\n            /* \"#utility.yul\":2049:2054   */\n          dup2\n            /* \"#utility.yul\":2031:2055   */\n          tag_132\n          jump\t// in\n        tag_181:\n            /* \"#utility.yul\":2024:2029   */\n          dup2\n            /* \"#utility.yul\":2021:2056   */\n          eq\n            /* \"#utility.yul\":2011:2074   */\n          tag_182\n          jumpi\n            /* \"#utility.yul\":2070:2071   */\n          0x00\n            /* \"#utility.yul\":2067:2068   */\n          dup1\n            /* \"#utility.yul\":2060:2072   */\n          revert\n            /* \"#utility.yul\":2011:2074   */\n        tag_182:\n            /* \"#utility.yul\":1958:2080   */\n          pop\n          jump\t// out\n            /* \"#utility.yul\":2086:2225   */\n        tag_134:\n            /* \"#utility.yul\":2132:2137   */\n          0x00\n            /* \"#utility.yul\":2170:2176   */\n          dup2\n            /* \"#utility.yul\":2157:2177   */\n          calldataload\n            /* \"#utility.yul\":2148:2177   */\n          swap1\n          pop\n            /* \"#utility.yul\":2186:2219   */\n          tag_184\n            /* \"#utility.yul\":2213:2218   */\n          dup2\n            /* \"#utility.yul\":2186:2219   */\n          tag_133\n          jump\t// in\n        tag_184:\n            /* \"#utility.yul\":2086:2225   */\n          swap3\n          swap2\n          pop\n          pop\n          jump\t// out\n            /* \"#utility.yul\":2231:2308   */\n        tag_135:\n            /* \"#utility.yul\":2268:2275   */\n          0x00\n            /* \"#utility.yul\":2297:2302   */\n          dup2\n            /* \"#utility.yul\":2286:2302   */\n          swap1\n          pop\n            /* \"#utility.yul\":2231:2308   */\n          swap2\n          swap1\n          pop\n          jump\t// out\n            /* \"#utility.yul\":2314:2436   */\n        tag_136:\n            /* \"#utility.yul\":2387:2411   */\n          tag_187\n            /* \"#utility.yul\":2405:2410   */\n          dup2\n            /* \"#utility.yul\":2387:2411   */\n          tag_135\n          jump\t// in\n        tag_187:\n            /* \"#utility.yul\":2380:2385   */\n          dup2\n            /* \"#utility.yul\":2377:2412   */\n          eq\n            /* \"#utility.yul\":2367:2430   */\n          tag_188\n          jumpi\n            /* \"#utility.yul\":2426:2427   */\n          0x00\n            /* \"#utility.yul\":2423:2424   */\n          dup1\n            /* \"#utility.yul\":2416:2428   */\n          revert\n            /* \"#utility.yul\":2367:2430   */\n        tag_188:\n            /* \"#utility.yul\":2314:2436   */\n          pop\n          jump\t// out\n            /* \"#utility.yul\":2442:2581   */\n        tag_137:\n            /* \"#utility.yul\":2488:2493   */\n          0x00\n            /* \"#utility.yul\":2526:2532   */\n          dup2\n            /* \"#utility.yul\":2513:2533   */\n          calldataload\n            /* \"#utility.yul\":2504:2533   */\n          swap1\n          pop\n            /* \"#utility.yul\":2542:2575   */\n          tag_190\n            /* \"#utility.yul\":2569:2574   */\n          dup2\n            /* \"#utility.yul\":2542:2575   */\n          tag_136\n          jump\t// in\n        tag_190:\n            /* \"#utility.yul\":2442:2581   */\n          swap3\n          swap2\n          pop\n          pop\n          jump\t// out\n            /* \"#utility.yul\":2587:3061   */\n        tag_19:\n            /* \"#utility.yul\":2655:2661   */\n          0x00\n            /* \"#utility.yul\":2663:2669   */\n          dup1\n            /* \"#utility.yul\":2712:2714   */\n          0x40\n            /* \"#utility.yul\":2700:2709   */\n          dup4\n            /* \"#utility.yul\":2691:2698   */\n          dup6\n            /* \"#utility.yul\":2687:2710   */\n          sub\n            /* \"#utility.yul\":2683:2715   */\n          slt\n            /* \"#utility.yul\":2680:2799   */\n          iszero\n          tag_192\n          jumpi\n            /* \"#utility.yul\":2718:2797   */\n          tag_193\n          tag_129\n          jump\t// in\n        tag_193:\n            /* \"#utility.yul\":2680:2799   */\n        tag_192:\n            /* \"#utility.yul\":2838:2839   */\n          0x00\n            /* \"#utility.yul\":2863:2916   */\n          tag_194\n            /* \"#utility.yul\":2908:2915   */\n          dup6\n            /* \"#utility.yul\":2899:2905   */\n          dup3\n            /* \"#utility.yul\":2888:2897   */\n          dup7\n            /* \"#utility.yul\":2884:2906   */\n          add\n            /* \"#utility.yul\":2863:2916   */\n          tag_134\n          jump\t// in\n        tag_194:\n            /* \"#utility.yul\":2853:2916   */\n          swap3\n          pop\n            /* \"#utility.yul\":2809:2926   */\n          pop\n            /* \"#utility.yul\":2965:2967   */\n          0x20\n            /* \"#utility.yul\":2991:3044   */\n          tag_195\n            /* \"#utility.yul\":3036:3043   */\n          dup6\n            /* \"#utility.yul\":3027:3033   */\n          dup3\n            /* \"#utility.yul\":3016:3025   */\n          dup7\n            /* \"#utility.yul\":3012:3034   */\n          add\n            /* \"#utility.yul\":2991:3044   */\n          tag_137\n          jump\t// in\n        tag_195:\n            /* \"#utility.yul\":2981:3044   */\n          swap2\n          pop\n            /* \"#utility.yul\":2936:3054   */\n          pop\n            /* \"#utility.yul\":2587:3061   */\n          swap3\n          pop\n          swap3\n          swap1\n          pop\n          jump\t// out\n            /* \"#utility.yul\":3067:3157   */\n        tag_138:\n            /* \"#utility.yul\":3101:3108   */\n          0x00\n            /* \"#utility.yul\":3144:3149   */\n          dup2\n            /* \"#utility.yul\":3137:3150   */\n          iszero\n            /* \"#utility.yul\":3130:3151   */\n          iszero\n            /* \"#utility.yul\":3119:3151   */\n          swap1\n          pop\n            /* \"#utility.yul\":3067:3157   */\n          swap2\n          swap1\n          pop\n          jump\t// out\n            /* \"#utility.yul\":3163:3272   */\n        tag_139:\n            /* \"#utility.yul\":3244:3265   */\n          tag_198\n            /* \"#utility.yul\":3259:3264   */\n          dup2\n            /* \"#utility.yul\":3244:3265   */\n          tag_138\n          jump\t// in\n        tag_198:\n            /* \"#utility.yul\":3239:3242   */\n          dup3\n            /* \"#utility.yul\":3232:3266   */\n          mstore\n            /* \"#utility.yul\":3163:3272   */\n          pop\n          pop\n          jump\t// out\n            /* \"#utility.yul\":3278:3488   */\n        tag_22:\n            /* \"#utility.yul\":3365:3369   */\n          0x00\n            /* \"#utility.yul\":3403:3405   */\n          0x20\n            /* \"#utility.yul\":3392:3401   */\n          dup3\n            /* \"#utility.yul\":3388:3406   */\n          add\n            /* \"#utility.yul\":3380:3406   */\n          swap1\n          pop\n            /* \"#utility.yul\":3416:3481   */\n          tag_200\n            /* \"#utility.yul\":3478:3479   */\n          0x00\n            /* \"#utility.yul\":3467:3476   */\n          dup4\n            /* \"#utility.yul\":3463:3480   */\n          add\n            /* \"#utility.yul\":3454:3460   */\n          dup5\n            /* \"#utility.yul\":3416:3481   */\n          tag_139\n          jump\t// in\n        tag_200:\n            /* \"#utility.yul\":3278:3488   */\n          swap3\n          swap2\n          pop\n          pop\n          jump\t// out\n            /* \"#utility.yul\":3494:3612   */\n        tag_140:\n            /* \"#utility.yul\":3581:3605   */\n          tag_202\n            /* \"#utility.yul\":3599:3604   */\n          dup2\n            /* \"#utility.yul\":3581:3605   */\n          tag_135\n          jump\t// in\n        tag_202:\n            /* \"#utility.yul\":3576:3579   */\n          dup3\n            /* \"#utility.yul\":3569:3606   */\n          mstore\n            /* \"#utility.yul\":3494:3612   */\n          pop\n          pop\n          jump\t// out\n            /* \"#utility.yul\":3618:3840   */\n        tag_26:\n            /* \"#utility.yul\":3711:3715   */\n          0x00\n            /* \"#utility.yul\":3749:3751   */\n          0x20\n            /* \"#utility.yul\":3738:3747   */\n          dup3\n            /* \"#utility.yul\":3734:3752   */\n          add\n            /* \"#utility.yul\":3726:3752   */\n          swap1\n          pop\n            /* \"#utility.yul\":3762:3833   */\n          tag_204\n            /* \"#utility.yul\":3830:3831   */\n          0x00\n            /* \"#utility.yul\":3819:3828   */\n          dup4\n            /* \"#utility.yul\":3815:3832   */\n          add\n            /* \"#utility.yul\":3806:3812   */\n          dup5\n            /* \"#utility.yul\":3762:3833   */\n          tag_140\n          jump\t// in\n        tag_204:\n            /* \"#utility.yul\":3618:3840   */\n          swap3\n          swap2\n          pop\n          pop\n          jump\t// out\n            /* \"#utility.yul\":3846:4465   */\n        tag_29:\n            /* \"#utility.yul\":3923:3929   */\n          0x00\n            /* \"#utility.yul\":3931:3937   */\n          dup1\n            /* \"#utility.yul\":3939:3945   */\n          0x00\n            /* \"#utility.yul\":3988:3990   */\n          0x60\n            /* \"#utility.yul\":3976:3985   */\n          dup5\n            /* \"#utility.yul\":3967:3974   */\n          dup7\n            /* \"#utility.yul\":3963:3986   */\n          sub\n            /* \"#utility.yul\":3959:3991   */\n          slt\n            /* \"#utility.yul\":3956:4075   */\n          iszero\n          tag_206\n          jumpi\n            /* \"#utility.yul\":3994:4073   */\n          tag_207\n          tag_129\n          jump\t// in\n        tag_207:\n            /* \"#utility.yul\":3956:4075   */\n        tag_206:\n            /* \"#utility.yul\":4114:4115   */\n          0x00\n            /* \"#utility.yul\":4139:4192   */\n          tag_208\n            /* \"#utility.yul\":4184:4191   */\n          dup7\n            /* \"#utility.yul\":4175:4181   */\n          dup3\n            /* \"#utility.yul\":4164:4173   */\n          dup8\n            /* \"#utility.yul\":4160:4182   */\n          add\n            /* \"#utility.yul\":4139:4192   */\n          tag_134\n          jump\t// in\n        tag_208:\n            /* \"#utility.yul\":4129:4192   */\n          swap4\n          pop\n            /* \"#utility.yul\":4085:4202   */\n          pop\n            /* \"#utility.yul\":4241:4243   */\n          0x20\n            /* \"#utility.yul\":4267:4320   */\n          tag_209\n            /* \"#utility.yul\":4312:4319   */\n          dup7\n            /* \"#utility.yul\":4303:4309   */\n          dup3\n            /* \"#utility.yul\":4292:4301   */\n          dup8\n            /* \"#utility.yul\":4288:4310   */\n          add\n            /* \"#utility.yul\":4267:4320   */\n          tag_134\n          jump\t// in\n        tag_209:\n            /* \"#utility.yul\":4257:4320   */\n          swap3\n          pop\n            /* \"#utility.yul\":4212:4330   */\n          pop\n            /* \"#utility.yul\":4369:4371   */\n          0x40\n            /* \"#utility.yul\":4395:4448   */\n          tag_210\n            /* \"#utility.yul\":4440:4447   */\n          dup7\n            /* \"#utility.yul\":4431:4437   */\n          dup3\n            /* \"#utility.yul\":4420:4429   */\n          dup8\n            /* \"#utility.yul\":4416:4438   */\n          add\n            /* \"#utility.yul\":4395:4448   */\n          tag_137\n          jump\t// in\n        tag_210:\n            /* \"#utility.yul\":4385:4448   */\n          swap2\n          pop\n            /* \"#utility.yul\":4340:4458   */\n          pop\n            /* \"#utility.yul\":3846:4465   */\n          swap3\n          pop\n          swap3\n          pop\n          swap3\n          jump\t// out\n            /* \"#utility.yul\":4471:4557   */\n        tag_141:\n            /* \"#utility.yul\":4506:4513   */\n          0x00\n            /* \"#utility.yul\":4546:4550   */\n          0xff\n            /* \"#utility.yul\":4539:4544   */\n          dup3\n            /* \"#utility.yul\":4535:4551   */\n          and\n            /* \"#utility.yul\":4524:4551   */\n          swap1\n          pop\n            /* \"#utility.yul\":4471:4557   */\n          swap2\n          swap1\n          pop\n          jump\t// out\n            /* \"#utility.yul\":4563:4675   */\n        tag_142:\n            /* \"#utility.yul\":4646:4668   */\n          tag_213\n            /* \"#utility.yul\":4662:4667   */\n          dup2\n            /* \"#utility.yul\":4646:4668   */\n          tag_141\n          jump\t// in\n        tag_213:\n            /* \"#utility.yul\":4641:4644   */\n          dup3\n            /* \"#utility.yul\":4634:4669   */\n          mstore\n            /* \"#utility.yul\":4563:4675   */\n          pop\n          pop\n          jump\t// out\n            /* \"#utility.yul\":4681:4895   */\n        tag_35:\n            /* \"#utility.yul\":4770:4774   */\n          0x00\n            /* \"#utility.yul\":4808:4810   */\n          0x20\n            /* \"#utility.yul\":4797:4806   */\n          dup3\n            /* \"#utility.yul\":4793:4811   */\n          add\n            /* \"#utility.yul\":4785:4811   */\n          swap1\n          pop\n            /* \"#utility.yul\":4821:4888   */\n          tag_215\n            /* \"#utility.yul\":4885:4886   */\n          0x00\n            /* \"#utility.yul\":4874:4883   */\n          dup4\n            /* \"#utility.yul\":4870:4887   */\n          add\n            /* \"#utility.yul\":4861:4867   */\n          dup5\n            /* \"#utility.yul\":4821:4888   */\n          tag_142\n          jump\t// in\n        tag_215:\n            /* \"#utility.yul\":4681:4895   */\n          swap3\n          swap2\n          pop\n          pop\n          jump\t// out\n            /* \"#utility.yul\":4901:5230   */\n        tag_38:\n            /* \"#utility.yul\":4960:4966   */\n          0x00\n            /* \"#utility.yul\":5009:5011   */\n          0x20\n            /* \"#utility.yul\":4997:5006   */\n          dup3\n            /* \"#utility.yul\":4988:4995   */\n          dup5\n            /* \"#utility.yul\":4984:5007   */\n          sub\n            /* \"#utility.yul\":4980:5012   */\n          slt\n            /* \"#utility.yul\":4977:5096   */\n          iszero\n          tag_217\n          jumpi\n            /* \"#utility.yul\":5015:5094   */\n          tag_218\n          tag_129\n          jump\t// in\n        tag_218:\n            /* \"#utility.yul\":4977:5096   */\n        tag_217:\n            /* \"#utility.yul\":5135:5136   */\n          0x00\n            /* \"#utility.yul\":5160:5213   */\n          tag_219\n            /* \"#utility.yul\":5205:5212   */\n          dup5\n            /* \"#utility.yul\":5196:5202   */\n          dup3\n            /* \"#utility.yul\":5185:5194   */\n          dup6\n            /* \"#utility.yul\":5181:5203   */\n          add\n            /* \"#utility.yul\":5160:5213   */\n          tag_134\n          jump\t// in\n        tag_219:\n            /* \"#utility.yul\":5150:5213   */\n          swap2\n          pop\n            /* \"#utility.yul\":5106:5223   */\n          pop\n            /* \"#utility.yul\":4901:5230   */\n          swap3\n          swap2\n          pop\n          pop\n          jump\t// out\n            /* \"#utility.yul\":5236:5710   */\n        tag_50:\n            /* \"#utility.yul\":5304:5310   */\n          0x00\n            /* \"#utility.yul\":5312:5318   */\n          dup1\n            /* \"#utility.yul\":5361:5363   */\n          0x40\n            /* \"#utility.yul\":5349:5358   */\n          dup4\n            /* \"#utility.yul\":5340:5347   */\n          dup6\n            /* \"#utility.yul\":5336:5359   */\n          sub\n            /* \"#utility.yul\":5332:5364   */\n          slt\n            /* \"#utility.yul\":5329:5448   */\n          iszero\n          tag_221\n          jumpi\n            /* \"#utility.yul\":5367:5446   */\n          tag_222\n          tag_129\n          jump\t// in\n        tag_222:\n            /* \"#utility.yul\":5329:5448   */\n        tag_221:\n            /* \"#utility.yul\":5487:5488   */\n          0x00\n            /* \"#utility.yul\":5512:5565   */\n          tag_223\n            /* \"#utility.yul\":5557:5564   */\n          dup6\n            /* \"#utility.yul\":5548:5554   */\n          dup3\n            /* \"#utility.yul\":5537:5546   */\n          dup7\n            /* \"#utility.yul\":5533:5555   */\n          add\n            /* \"#utility.yul\":5512:5565   */\n          tag_134\n          jump\t// in\n        tag_223:\n            /* \"#utility.yul\":5502:5565   */\n          swap3\n          pop\n            /* \"#utility.yul\":5458:5575   */\n          pop\n            /* \"#utility.yul\":5614:5616   */\n          0x20\n            /* \"#utility.yul\":5640:5693   */\n          tag_224\n            /* \"#utility.yul\":5685:5692   */\n          dup6\n            /* \"#utility.yul\":5676:5682   */\n          dup3\n            /* \"#utility.yul\":5665:5674   */\n          dup7\n            /* \"#utility.yul\":5661:5683   */\n          add\n            /* \"#utility.yul\":5640:5693   */\n          tag_134\n          jump\t// in\n        tag_224:\n            /* \"#utility.yul\":5630:5693   */\n          swap2\n          pop\n            /* \"#utility.yul\":5585:5703   */\n          pop\n            /* \"#utility.yul\":5236:5710   */\n          swap3\n          pop\n          swap3\n          swap1\n          pop\n          jump\t// out\n            /* \"#utility.yul\":5716:5896   */\n        tag_143:\n            /* \"#utility.yul\":5764:5841   */\n          0x4e487b7100000000000000000000000000000000000000000000000000000000\n            /* \"#utility.yul\":5761:5762   */\n          0x00\n            /* \"#utility.yul\":5754:5842   */\n          mstore\n            /* \"#utility.yul\":5861:5865   */\n          0x22\n            /* \"#utility.yul\":5858:5859   */\n          0x04\n            /* \"#utility.yul\":5851:5866   */\n          mstore\n            /* \"#utility.yul\":5885:5889   */\n          0x24\n            /* \"#utility.yul\":5882:5883   */\n          0x00\n            /* \"#utility.yul\":5875:5890   */\n          revert\n            /* \"#utility.yul\":5902:6222   */\n        tag_56:\n            /* \"#utility.yul\":5946:5952   */\n          0x00\n            /* \"#utility.yul\":5983:5984   */\n          0x02\n            /* \"#utility.yul\":5977:5981   */\n          dup3\n            /* \"#utility.yul\":5973:5985   */\n          div\n            /* \"#utility.yul\":5963:5985   */\n          swap1\n          pop\n            /* \"#utility.yul\":6030:6031   */\n          0x01\n            /* \"#utility.yul\":6024:6028   */\n          dup3\n            /* \"#utility.yul\":6020:6032   */\n          and\n            /* \"#utility.yul\":6051:6069   */\n          dup1\n            /* \"#utility.yul\":6041:6122   */\n          tag_227\n          jumpi\n            /* \"#utility.yul\":6107:6111   */\n          0x7f\n            /* \"#utility.yul\":6099:6105   */\n          dup3\n            /* \"#utility.yul\":6095:6112   */\n          and\n            /* \"#utility.yul\":6085:6112   */\n          swap2\n          pop\n            /* \"#utility.yul\":6041:6122   */\n        tag_227:\n            /* \"#utility.yul\":6169:6171   */\n          0x20\n            /* \"#utility.yul\":6161:6167   */\n          dup3\n            /* \"#utility.yul\":6158:6172   */\n          lt\n            /* \"#utility.yul\":6138:6156   */\n          dup2\n            /* \"#utility.yul\":6135:6173   */\n          eq\n            /* \"#utility.yul\":6132:6216   */\n          iszero\n          tag_228\n          jumpi\n            /* \"#utility.yul\":6188:6206   */\n          tag_229\n          tag_143\n          jump\t// in\n        tag_229:\n            /* \"#utility.yul\":6132:6216   */\n        tag_228:\n            /* \"#utility.yul\":5953:6222   */\n          pop\n            /* \"#utility.yul\":5902:6222   */\n          swap2\n          swap1\n          pop\n          jump\t// out\n            /* \"#utility.yul\":6228:6449   */\n        tag_144:\n            /* \"#utility.yul\":6368:6402   */\n          0x45524332303a20617070726f766520746f20746865207a65726f206164647265\n            /* \"#utility.yul\":6364:6365   */\n          0x00\n            /* \"#utility.yul\":6356:6362   */\n          dup3\n            /* \"#utility.yul\":6352:6366   */\n          add\n            /* \"#utility.yul\":6345:6403   */\n          mstore\n            /* \"#utility.yul\":6437:6441   */\n          0x7373000000000000000000000000000000000000000000000000000000000000\n            /* \"#utility.yul\":6432:6434   */\n          0x20\n            /* \"#utility.yul\":6424:6430   */\n          dup3\n            /* \"#utility.yul\":6420:6435   */\n          add\n            /* \"#utility.yul\":6413:6442   */\n          mstore\n            /* \"#utility.yul\":6228:6449   */\n          pop\n          jump\t// out\n            /* \"#utility.yul\":6455:6821   */\n        tag_145:\n            /* \"#utility.yul\":6597:6600   */\n          0x00\n            /* \"#utility.yul\":6618:6685   */\n          tag_232\n            /* \"#utility.yul\":6682:6684   */\n          0x22\n            /* \"#utility.yul\":6677:6680   */\n          dup4\n            /* \"#utility.yul\":6618:6685   */\n          tag_124\n          jump\t// in\n        tag_232:\n            /* \"#utility.yul\":6611:6685   */\n          swap2\n          pop\n            /* \"#utility.yul\":6694:6787   */\n          tag_233\n            /* \"#utility.yul\":6783:6786   */\n          dup3\n            /* \"#utility.yul\":6694:6787   */\n          tag_144\n          jump\t// in\n        tag_233:\n            /* \"#utility.yul\":6812:6814   */\n          0x40\n            /* \"#utility.yul\":6807:6810   */\n          dup3\n            /* \"#utility.yul\":6803:6815   */\n          add\n            /* \"#utility.yul\":6796:6815   */\n          swap1\n          pop\n            /* \"#utility.yul\":6455:6821   */\n          swap2\n          swap1\n          pop\n          jump\t// out\n            /* \"#utility.yul\":6827:7246   */\n        tag_64:\n            /* \"#utility.yul\":6993:6997   */\n          0x00\n            /* \"#utility.yul\":7031:7033   */\n          0x20\n            /* \"#utility.yul\":7020:7029   */\n          dup3\n            /* \"#utility.yul\":7016:7034   */\n          add\n            /* \"#utility.yul\":7008:7034   */\n          swap1\n          pop\n            /* \"#utility.yul\":7080:7089   */\n          dup2\n            /* \"#utility.yul\":7074:7078   */\n          dup2\n            /* \"#utility.yul\":7070:7090   */\n          sub\n            /* \"#utility.yul\":7066:7067   */\n          0x00\n            /* \"#utility.yul\":7055:7064   */\n          dup4\n            /* \"#utility.yul\":7051:7068   */\n          add\n            /* \"#utility.yul\":7044:7091   */\n          mstore\n            /* \"#utility.yul\":7108:7239   */\n          tag_235\n            /* \"#utility.yul\":7234:7238   */\n          dup2\n            /* \"#utility.yul\":7108:7239   */\n          tag_145\n          jump\t// in\n        tag_235:\n            /* \"#utility.yul\":7100:7239   */\n          swap1\n          pop\n            /* \"#utility.yul\":6827:7246   */\n          swap2\n          swap1\n          pop\n          jump\t// out\n            /* \"#utility.yul\":7252:7476   */\n        tag_146:\n            /* \"#utility.yul\":7392:7426   */\n          0x45524332303a207472616e736665722066726f6d20746865207a65726f206164\n            /* \"#utility.yul\":7388:7389   */\n          0x00\n            /* \"#utility.yul\":7380:7386   */\n          dup3\n            /* \"#utility.yul\":7376:7390   */\n          add\n            /* \"#utility.yul\":7369:7427   */\n          mstore\n            /* \"#utility.yul\":7461:7468   */\n          0x6472657373000000000000000000000000000000000000000000000000000000\n            /* \"#utility.yul\":7456:7458   */\n          0x20\n            /* \"#utility.yul\":7448:7454   */\n          dup3\n            /* \"#utility.yul\":7444:7459   */\n          add\n            /* \"#utility.yul\":7437:7469   */\n          mstore\n            /* \"#utility.yul\":7252:7476   */\n          pop\n          jump\t// out\n            /* \"#utility.yul\":7482:7848   */\n        tag_147:\n            /* \"#utility.yul\":7624:7627   */\n          0x00\n            /* \"#utility.yul\":7645:7712   */\n          tag_238\n            /* \"#utility.yul\":7709:7711   */\n          0x25\n            /* \"#utility.yul\":7704:7707   */\n          dup4\n            /* \"#utility.yul\":7645:7712   */\n          tag_124\n          jump\t// in\n        tag_238:\n            /* \"#utility.yul\":7638:7712   */\n          swap2\n          pop\n            /* \"#utility.yul\":7721:7814   */\n          tag_239\n            /* \"#utility.yul\":7810:7813   */\n          dup3\n            /* \"#utility.yul\":7721:7814   */\n          tag_146\n          jump\t// in\n        tag_239:\n            /* \"#utility.yul\":7839:7841   */\n          0x40\n            /* \"#utility.yul\":7834:7837   */\n          dup3\n            /* \"#utility.yul\":7830:7842   */\n          add\n            /* \"#utility.yul\":7823:7842   */\n          swap1\n          pop\n            /* \"#utility.yul\":7482:7848   */\n          swap2\n          swap1\n          pop\n          jump\t// out\n            /* \"#utility.yul\":7854:8273   */\n        tag_70:\n            /* \"#utility.yul\":8020:8024   */\n          0x00\n            /* \"#utility.yul\":8058:8060   */\n          0x20\n            /* \"#utility.yul\":8047:8056   */\n          dup3\n            /* \"#utility.yul\":8043:8061   */\n          add\n            /* \"#utility.yul\":8035:8061   */\n          swap1\n          pop\n            /* \"#utility.yul\":8107:8116   */\n          dup2\n            /* \"#utility.yul\":8101:8105   */\n          dup2\n            /* \"#utility.yul\":8097:8117   */\n          sub\n            /* \"#utility.yul\":8093:8094   */\n          0x00\n            /* \"#utility.yul\":8082:8091   */\n          dup4\n            /* \"#utility.yul\":8078:8095   */\n          add\n            /* \"#utility.yul\":8071:8118   */\n          mstore\n            /* \"#utility.yul\":8135:8266   */\n          tag_241\n            /* \"#utility.yul\":8261:8265   */\n          dup2\n            /* \"#utility.yul\":8135:8266   */\n          tag_147\n          jump\t// in\n        tag_241:\n            /* \"#utility.yul\":8127:8266   */\n          swap1\n          pop\n            /* \"#utility.yul\":7854:8273   */\n          swap2\n          swap1\n          pop\n          jump\t// out\n            /* \"#utility.yul\":8279:8501   */\n        tag_148:\n            /* \"#utility.yul\":8419:8453   */\n          0x45524332303a207472616e7366657220746f20746865207a65726f2061646472\n            /* \"#utility.yul\":8415:8416   */\n          0x00\n            /* \"#utility.yul\":8407:8413   */\n          dup3\n            /* \"#utility.yul\":8403:8417   */\n          add\n            /* \"#utility.yul\":8396:8454   */\n          mstore\n            /* \"#utility.yul\":8488:8493   */\n          0x6573730000000000000000000000000000000000000000000000000000000000\n            /* \"#utility.yul\":8483:8485   */\n          0x20\n            /* \"#utility.yul\":8475:8481   */\n          dup3\n            /* \"#utility.yul\":8471:8486   */\n          add\n            /* \"#utility.yul\":8464:8494   */\n          mstore\n            /* \"#utility.yul\":8279:8501   */\n          pop\n          jump\t// out\n            /* \"#utility.yul\":8507:8873   */\n        tag_149:\n            /* \"#utility.yul\":8649:8652   */\n          0x00\n            /* \"#utility.yul\":8670:8737   */\n          tag_244\n            /* \"#utility.yul\":8734:8736   */\n          0x23\n            /* \"#utility.yul\":8729:8732   */\n          dup4\n            /* \"#utility.yul\":8670:8737   */\n          tag_124\n          jump\t// in\n        tag_244:\n            /* \"#utility.yul\":8663:8737   */\n          swap2\n          pop\n            /* \"#utility.yul\":8746:8839   */\n          tag_245\n            /* \"#utility.yul\":8835:8838   */\n          dup3\n            /* \"#utility.yul\":8746:8839   */\n          tag_148\n          jump\t// in\n        tag_245:\n            /* \"#utility.yul\":8864:8866   */\n          0x40\n            /* \"#utility.yul\":8859:8862   */\n          dup3\n            /* \"#utility.yul\":8855:8867   */\n          add\n            /* \"#utility.yul\":8848:8867   */\n          swap1\n          pop\n            /* \"#utility.yul\":8507:8873   */\n          swap2\n          swap1\n          pop\n          jump\t// out\n            /* \"#utility.yul\":8879:9298   */\n        tag_73:\n            /* \"#utility.yul\":9045:9049   */\n          0x00\n            /* \"#utility.yul\":9083:9085   */\n          0x20\n            /* \"#utility.yul\":9072:9081   */\n          dup3\n            /* \"#utility.yul\":9068:9086   */\n          add\n            /* \"#utility.yul\":9060:9086   */\n          swap1\n          pop\n            /* \"#utility.yul\":9132:9141   */\n          dup2\n            /* \"#utility.yul\":9126:9130   */\n          dup2\n            /* \"#utility.yul\":9122:9142   */\n          sub\n            /* \"#utility.yul\":9118:9119   */\n          0x00\n            /* \"#utility.yul\":9107:9116   */\n          dup4\n            /* \"#utility.yul\":9103:9120   */\n          add\n            /* \"#utility.yul\":9096:9143   */\n          mstore\n            /* \"#utility.yul\":9160:9291   */\n          tag_247\n            /* \"#utility.yul\":9286:9290   */\n          dup2\n            /* \"#utility.yul\":9160:9291   */\n          tag_149\n          jump\t// in\n        tag_247:\n            /* \"#utility.yul\":9152:9291   */\n          swap1\n          pop\n            /* \"#utility.yul\":8879:9298   */\n          swap2\n          swap1\n          pop\n          jump\t// out\n            /* \"#utility.yul\":9304:9529   */\n        tag_150:\n            /* \"#utility.yul\":9444:9478   */\n          0x45524332303a207472616e7366657220616d6f756e7420657863656564732062\n            /* \"#utility.yul\":9440:9441   */\n          0x00\n            /* \"#utility.yul\":9432:9438   */\n          dup3\n            /* \"#utility.yul\":9428:9442   */\n          add\n            /* \"#utility.yul\":9421:9479   */\n          mstore\n            /* \"#utility.yul\":9513:9521   */\n          0x616c616e63650000000000000000000000000000000000000000000000000000\n            /* \"#utility.yul\":9508:9510   */\n          0x20\n            /* \"#utility.yul\":9500:9506   */\n          dup3\n            /* \"#utility.yul\":9496:9511   */\n          add\n            /* \"#utility.yul\":9489:9522   */\n          mstore\n            /* \"#utility.yul\":9304:9529   */\n          pop\n          jump\t// out\n            /* \"#utility.yul\":9535:9901   */\n        tag_151:\n            /* \"#utility.yul\":9677:9680   */\n          0x00\n            /* \"#utility.yul\":9698:9765   */\n          tag_250\n            /* \"#utility.yul\":9762:9764   */\n          0x26\n            /* \"#utility.yul\":9757:9760   */\n          dup4\n            /* \"#utility.yul\":9698:9765   */\n          tag_124\n          jump\t// in\n        tag_250:\n            /* \"#utility.yul\":9691:9765   */\n          swap2\n          pop\n            /* \"#utility.yul\":9774:9867   */\n          tag_251\n            /* \"#utility.yul\":9863:9866   */\n          dup3\n            /* \"#utility.yul\":9774:9867   */\n          tag_150\n          jump\t// in\n        tag_251:\n            /* \"#utility.yul\":9892:9894   */\n          0x40\n            /* \"#utility.yul\":9887:9890   */\n          dup3\n            /* \"#utility.yul\":9883:9895   */\n          add\n            /* \"#utility.yul\":9876:9895   */\n          swap1\n          pop\n            /* \"#utility.yul\":9535:9901   */\n          swap2\n          swap1\n          pop\n          jump\t// out\n            /* \"#utility.yul\":9907:10326   */\n        tag_76:\n            /* \"#utility.yul\":10073:10077   */\n          0x00\n            /* \"#utility.yul\":10111:10113   */\n          0x20\n            /* \"#utility.yul\":10100:10109   */\n          dup3\n            /* \"#utility.yul\":10096:10114   */\n          add\n            /* \"#utility.yul\":10088:10114   */\n          swap1\n          pop\n            /* \"#utility.yul\":10160:10169   */\n          dup2\n            /* \"#utility.yul\":10154:10158   */\n          dup2\n            /* \"#utility.yul\":10150:10170   */\n          sub\n            /* \"#utility.yul\":10146:10147   */\n          0x00\n            /* \"#utility.yul\":10135:10144   */\n          dup4\n            /* \"#utility.yul\":10131:10148   */\n          add\n            /* \"#utility.yul\":10124:10171   */\n          mstore\n            /* \"#utility.yul\":10188:10319   */\n          tag_253\n            /* \"#utility.yul\":10314:10318   */\n          dup2\n            /* \"#utility.yul\":10188:10319   */\n          tag_151\n          jump\t// in\n        tag_253:\n            /* \"#utility.yul\":10180:10319   */\n          swap1\n          pop\n            /* \"#utility.yul\":9907:10326   */\n          swap2\n          swap1\n          pop\n          jump\t// out\n            /* \"#utility.yul\":10332:10559   */\n        tag_152:\n            /* \"#utility.yul\":10472:10506   */\n          0x45524332303a207472616e7366657220616d6f756e7420657863656564732061\n            /* \"#utility.yul\":10468:10469   */\n          0x00\n            /* \"#utility.yul\":10460:10466   */\n          dup3\n            /* \"#utility.yul\":10456:10470   */\n          add\n            /* \"#utility.yul\":10449:10507   */\n          mstore\n            /* \"#utility.yul\":10541:10551   */\n          0x6c6c6f77616e6365000000000000000000000000000000000000000000000000\n            /* \"#utility.yul\":10536:10538   */\n          0x20\n            /* \"#utility.yul\":10528:10534   */\n          dup3\n            /* \"#utility.yul\":10524:10539   */\n          add\n            /* \"#utility.yul\":10517:10552   */\n          mstore\n            /* \"#utility.yul\":10332:10559   */\n          pop\n          jump\t// out\n            /* \"#utility.yul\":10565:10931   */\n        tag_153:\n            /* \"#utility.yul\":10707:10710   */\n          0x00\n            /* \"#utility.yul\":10728:10795   */\n          tag_256\n            /* \"#utility.yul\":10792:10794   */\n          0x28\n            /* \"#utility.yul\":10787:10790   */\n          dup4\n            /* \"#utility.yul\":10728:10795   */\n          tag_124\n          jump\t// in\n        tag_256:\n            /* \"#utility.yul\":10721:10795   */\n          swap2\n          pop\n            /* \"#utility.yul\":10804:10897   */\n          tag_257\n            /* \"#utility.yul\":10893:10896   */\n          dup3\n            /* \"#utility.yul\":10804:10897   */\n          tag_152\n          jump\t// in\n        tag_257:\n            /* \"#utility.yul\":10922:10924   */\n          0x40\n            /* \"#utility.yul\":10917:10920   */\n          dup3\n            /* \"#utility.yul\":10913:10925   */\n          add\n            /* \"#utility.yul\":10906:10925   */\n          swap1\n          pop\n            /* \"#utility.yul\":10565:10931   */\n          swap2\n          swap1\n          pop\n          jump\t// out\n            /* \"#utility.yul\":10937:11356   */\n        tag_79:\n            /* \"#utility.yul\":11103:11107   */\n          0x00\n            /* \"#utility.yul\":11141:11143   */\n          0x20\n            /* \"#utility.yul\":11130:11139   */\n          dup3\n            /* \"#utility.yul\":11126:11144   */\n          add\n            /* \"#utility.yul\":11118:11144   */\n          swap1\n          pop\n            /* \"#utility.yul\":11190:11199   */\n          dup2\n            /* \"#utility.yul\":11184:11188   */\n          dup2\n            /* \"#utility.yul\":11180:11200   */\n          sub\n            /* \"#utility.yul\":11176:11177   */\n          0x00\n            /* \"#utility.yul\":11165:11174   */\n          dup4\n            /* \"#utility.yul\":11161:11178   */\n          add\n            /* \"#utility.yul\":11154:11201   */\n          mstore\n            /* \"#utility.yul\":11218:11349   */\n          tag_259\n            /* \"#utility.yul\":11344:11348   */\n          dup2\n            /* \"#utility.yul\":11218:11349   */\n          tag_153\n          jump\t// in\n        tag_259:\n            /* \"#utility.yul\":11210:11349   */\n          swap1\n          pop\n            /* \"#utility.yul\":10937:11356   */\n          swap2\n          swap1\n          pop\n          jump\t// out\n            /* \"#utility.yul\":11362:11542   */\n        tag_154:\n            /* \"#utility.yul\":11410:11487   */\n          0x4e487b7100000000000000000000000000000000000000000000000000000000\n            /* \"#utility.yul\":11407:11408   */\n          0x00\n            /* \"#utility.yul\":11400:11488   */\n          mstore\n            /* \"#utility.yul\":11507:11511   */\n          0x11\n            /* \"#utility.yul\":11504:11505   */\n          0x04\n            /* \"#utility.yul\":11497:11512   */\n          mstore\n            /* \"#utility.yul\":11531:11535   */\n          0x24\n            /* \"#utility.yul\":11528:11529   */\n          0x00\n            /* \"#utility.yul\":11521:11536   */\n          revert\n            /* \"#utility.yul\":11548:11896   */\n        tag_106:\n            /* \"#utility.yul\":11588:11595   */\n          0x00\n            /* \"#utility.yul\":11611:11631   */\n          tag_262\n            /* \"#utility.yul\":11629:11630   */\n          dup3\n            /* \"#utility.yul\":11611:11631   */\n          tag_135\n          jump\t// in\n        tag_262:\n            /* \"#utility.yul\":11606:11631   */\n          swap2\n          pop\n            /* \"#utility.yul\":11645:11665   */\n          tag_263\n            /* \"#utility.yul\":11663:11664   */\n          dup4\n            /* \"#utility.yul\":11645:11665   */\n          tag_135\n          jump\t// in\n        tag_263:\n            /* \"#utility.yul\":11640:11665   */\n          swap3\n          pop\n            /* \"#utility.yul\":11833:11834   */\n          dup2\n            /* \"#utility.yul\":11765:11831   */\n          0xffffffffffffffffffffffffffffffffffffffffffffffffffffffffffffffff\n            /* \"#utility.yul\":11761:11835   */\n          div\n            /* \"#utility.yul\":11758:11759   */\n          dup4\n            /* \"#utility.yul\":11755:11836   */\n          gt\n            /* \"#utility.yul\":11750:11751   */\n          dup3\n            /* \"#utility.yul\":11743:11752   */\n          iszero\n            /* \"#utility.yul\":11736:11753   */\n          iszero\n            /* \"#utility.yul\":11732:11837   */\n          and\n            /* \"#utility.yul\":11729:11860   */\n          iszero\n          tag_264\n          jumpi\n            /* \"#utility.yul\":11840:11858   */\n          tag_265\n          tag_154\n          jump\t// in\n        tag_265:\n            /* \"#utility.yul\":11729:11860   */\n        tag_264:\n            /* \"#utility.yul\":11888:11889   */\n          dup3\n            /* \"#utility.yul\":11885:11886   */\n          dup3\n            /* \"#utility.yul\":11881:11890   */\n          mul\n            /* \"#utility.yul\":11870:11890   */\n          swap1\n          pop\n            /* \"#utility.yul\":11548:11896   */\n          swap3\n          swap2\n          pop\n          pop\n          jump\t// out\n            /* \"#utility.yul\":11902:12082   */\n        tag_155:\n            /* \"#utility.yul\":11950:12027   */\n          0x4e487b7100000000000000000000000000000000000000000000000000000000\n            /* \"#utility.yul\":11947:11948   */\n          0x00\n            /* \"#utility.yul\":11940:12028   */\n          mstore\n            /* \"#utility.yul\":12047:12051   */\n          0x12\n            /* \"#utility.yul\":12044:12045   */\n          0x04\n            /* \"#utility.yul\":12037:12052   */\n          mstore\n            /* \"#utility.yul\":12071:12075   */\n          0x24\n            /* \"#utility.yul\":12068:12069   */\n          0x00\n            /* \"#utility.yul\":12061:12076   */\n          revert\n            /* \"#utility.yul\":12088:12273   */\n        tag_108:\n            /* \"#utility.yul\":12128:12129   */\n          0x00\n            /* \"#utility.yul\":12145:12165   */\n          tag_268\n            /* \"#utility.yul\":12163:12164   */\n          dup3\n            /* \"#utility.yul\":12145:12165   */\n          tag_135\n          jump\t// in\n        tag_268:\n            /* \"#utility.yul\":12140:12165   */\n          swap2\n          pop\n            /* \"#utility.yul\":12179:12199   */\n          tag_269\n            /* \"#utility.yul\":12197:12198   */\n          dup4\n            /* \"#utility.yul\":12179:12199   */\n          tag_135\n          jump\t// in\n        tag_269:\n            /* \"#utility.yul\":12174:12199   */\n          swap3\n          pop\n            /* \"#utility.yul\":12218:12219   */\n          dup3\n            /* \"#utility.yul\":12208:12243   */\n          tag_270\n          jumpi\n            /* \"#utility.yul\":12223:12241   */\n          tag_271\n          tag_155\n          jump\t// in\n        tag_271:\n            /* \"#utility.yul\":12208:12243   */\n        tag_270:\n            /* \"#utility.yul\":12265:12266   */\n          dup3\n            /* \"#utility.yul\":12262:12263   */\n          dup3\n            /* \"#utility.yul\":12258:12267   */\n          div\n            /* \"#utility.yul\":12253:12267   */\n          swap1\n          pop\n            /* \"#utility.yul\":12088:12273   */\n          swap3\n          swap2\n          pop\n          pop\n          jump\t// out\n            /* \"#utility.yul\":12279:12499   */\n        tag_156:\n            /* \"#utility.yul\":12419:12453   */\n          0x536166654d6174683a206d756c7469706c69636174696f6e206f766572666c6f\n            /* \"#utility.yul\":12415:12416   */\n          0x00\n            /* \"#utility.yul\":12407:12413   */\n          dup3\n            /* \"#utility.yul\":12403:12417   */\n          add\n            /* \"#utility.yul\":12396:12454   */\n          mstore\n            /* \"#utility.yul\":12488:12491   */\n          0x7700000000000000000000000000000000000000000000000000000000000000\n            /* \"#utility.yul\":12483:12485   */\n          0x20\n            /* \"#utility.yul\":12475:12481   */\n          dup3\n            /* \"#utility.yul\":12471:12486   */\n          add\n            /* \"#utility.yul\":12464:12492   */\n          mstore\n            /* \"#utility.yul\":12279:12499   */\n          pop\n          jump\t// out\n            /* \"#utility.yul\":12505:12871   */\n        tag_157:\n            /* \"#utility.yul\":12647:12650   */\n          0x00\n            /* \"#utility.yul\":12668:12735   */\n          tag_274\n            /* \"#utility.yul\":12732:12734   */\n          0x21\n            /* \"#utility.yul\":12727:12730   */\n          dup4\n            /* \"#utility.yul\":12668:12735   */\n          tag_124\n          jump\t// in\n        tag_274:\n            /* \"#utility.yul\":12661:12735   */\n          swap2\n          pop\n            /* \"#utility.yul\":12744:12837   */\n          tag_275\n            /* \"#utility.yul\":12833:12836   */\n          dup3\n            /* \"#utility.yul\":12744:12837   */\n          tag_156\n          jump\t// in\n        tag_275:\n            /* \"#utility.yul\":12862:12864   */\n          0x40\n            /* \"#utility.yul\":12857:12860   */\n          dup3\n            /* \"#utility.yul\":12853:12865   */\n          add\n            /* \"#utility.yul\":12846:12865   */\n          swap1\n          pop\n            /* \"#utility.yul\":12505:12871   */\n          swap2\n          swap1\n          pop\n          jump\t// out\n            /* \"#utility.yul\":12877:13296   */\n        tag_111:\n            /* \"#utility.yul\":13043:13047   */\n          0x00\n            /* \"#utility.yul\":13081:13083   */\n          0x20\n            /* \"#utility.yul\":13070:13079   */\n          dup3\n            /* \"#utility.yul\":13066:13084   */\n          add\n            /* \"#utility.yul\":13058:13084   */\n          swap1\n          pop\n            /* \"#utility.yul\":13130:13139   */\n          dup2\n            /* \"#utility.yul\":13124:13128   */\n          dup2\n            /* \"#utility.yul\":13120:13140   */\n          sub\n            /* \"#utility.yul\":13116:13117   */\n          0x00\n            /* \"#utility.yul\":13105:13114   */\n          dup4\n            /* \"#utility.yul\":13101:13118   */\n          add\n            /* \"#utility.yul\":13094:13141   */\n          mstore\n            /* \"#utility.yul\":13158:13289   */\n          tag_277\n            /* \"#utility.yul\":13284:13288   */\n          dup2\n            /* \"#utility.yul\":13158:13289   */\n          tag_157\n          jump\t// in\n        tag_277:\n            /* \"#utility.yul\":13150:13289   */\n          swap1\n          pop\n            /* \"#utility.yul\":12877:13296   */\n          swap2\n          swap1\n          pop\n          jump\t// out\n            /* \"#utility.yul\":13302:13482   */\n        tag_115:\n            /* \"#utility.yul\":13350:13427   */\n          0x4e487b7100000000000000000000000000000000000000000000000000000000\n            /* \"#utility.yul\":13347:13348   */\n          0x00\n            /* \"#utility.yul\":13340:13428   */\n          mstore\n            /* \"#utility.yul\":13447:13451   */\n          0x01\n            /* \"#utility.yul\":13444:13445   */\n          0x04\n            /* \"#utility.yul\":13437:13452   */\n          mstore\n            /* \"#utility.yul\":13471:13475   */\n          0x24\n            /* \"#utility.yul\":13468:13469   */\n          0x00\n            /* \"#utility.yul\":13461:13476   */\n          revert\n            /* \"#utility.yul\":13488:13679   */\n        tag_117:\n            /* \"#utility.yul\":13528:13532   */\n          0x00\n            /* \"#utility.yul\":13548:13568   */\n          tag_280\n            /* \"#utility.yul\":13566:13567   */\n          dup3\n            /* \"#utility.yul\":13548:13568   */\n          tag_135\n          jump\t// in\n        tag_280:\n            /* \"#utility.yul\":13543:13568   */\n          swap2\n          pop\n            /* \"#utility.yul\":13582:13602   */\n          tag_281\n            /* \"#utility.yul\":13600:13601   */\n          dup4\n            /* \"#utility.yul\":13582:13602   */\n          tag_135\n          jump\t// in\n        tag_281:\n            /* \"#utility.yul\":13577:13602   */\n          swap3\n          pop\n            /* \"#utility.yul\":13621:13622   */\n          dup3\n            /* \"#utility.yul\":13618:13619   */\n          dup3\n            /* \"#utility.yul\":13615:13623   */\n          lt\n            /* \"#utility.yul\":13612:13646   */\n          iszero\n          tag_282\n          jumpi\n            /* \"#utility.yul\":13626:13644   */\n          tag_283\n          tag_154\n          jump\t// in\n        tag_283:\n            /* \"#utility.yul\":13612:13646   */\n        tag_282:\n            /* \"#utility.yul\":13671:13672   */\n          dup3\n            /* \"#utility.yul\":13668:13669   */\n          dup3\n            /* \"#utility.yul\":13664:13673   */\n          sub\n            /* \"#utility.yul\":13656:13673   */\n          swap1\n          pop\n            /* \"#utility.yul\":13488:13679   */\n          swap3\n          swap2\n          pop\n          pop\n          jump\t// out\n            /* \"#utility.yul\":13685:13990   */\n        tag_120:\n            /* \"#utility.yul\":13725:13728   */\n          0x00\n            /* \"#utility.yul\":13744:13764   */\n          tag_285\n            /* \"#utility.yul\":13762:13763   */\n          dup3\n            /* \"#utility.yul\":13744:13764   */\n          tag_135\n          jump\t// in\n        tag_285:\n            /* \"#utility.yul\":13739:13764   */\n          swap2\n          pop\n            /* \"#utility.yul\":13778:13798   */\n          tag_286\n            /* \"#utility.yul\":13796:13797   */\n          dup4\n            /* \"#utility.yul\":13778:13798   */\n          tag_135\n          jump\t// in\n        tag_286:\n            /* \"#utility.yul\":13773:13798   */\n          swap3\n          pop\n            /* \"#utility.yul\":13932:13933   */\n          dup3\n            /* \"#utility.yul\":13864:13930   */\n          0xffffffffffffffffffffffffffffffffffffffffffffffffffffffffffffffff\n            /* \"#utility.yul\":13860:13934   */\n          sub\n            /* \"#utility.yul\":13857:13858   */\n          dup3\n            /* \"#utility.yul\":13854:13935   */\n          gt\n            /* \"#utility.yul\":13851:13958   */\n          iszero\n          tag_287\n          jumpi\n            /* \"#utility.yul\":13938:13956   */\n          tag_288\n          tag_154\n          jump\t// in\n        tag_288:\n            /* \"#utility.yul\":13851:13958   */\n        tag_287:\n            /* \"#utility.yul\":13982:13983   */\n          dup3\n            /* \"#utility.yul\":13979:13980   */\n          dup3\n            /* \"#utility.yul\":13975:13984   */\n          add\n            /* \"#utility.yul\":13968:13984   */\n          swap1\n          pop\n            /* \"#utility.yul\":13685:13990   */\n          swap3\n          swap2\n          pop\n          pop\n          jump\t// out\n\n        auxdata: 0xa2646970667358221220718c4bbd27c7eef35229f8a75be3f9dd71f00201e6550bdde9e1249db76ead0164736f6c634300080c0033\n    }\n}\n",
    "bytecode": {
      "linkReferences": {},
      "object": "608060405234801561001057600080fd5b506040516124ac3803806124ac833981810160405281019061003291906100fb565b8160405161003f906100b3565b610049919061014a565b604051809103906000f080158015610065573d6000803e3d6000fd5b506000806101000a81548173ffffffffffffffffffffffffffffffffffffffff021916908373ffffffffffffffffffffffffffffffffffffffff160217905550806001819055505050610165565b611d118061079b83390190565b600080fd5b6000819050919050565b6100d8816100c5565b81146100e357600080fd5b50565b6000815190506100f5816100cf565b92915050565b60008060408385031215610112576101116100c0565b5b6000610120858286016100e6565b9250506020610131858286016100e6565b9150509250929050565b610144816100c5565b82525050565b600060208201905061015f600083018461013b565b92915050565b610627806101746000396000f3fe60806040526004361061003f5760003560e01c8063518ab2a8146100445780637ff9b5961461006f578063d0febe4c1461009a578063fc0c546a146100a4575b600080fd5b34801561005057600080fd5b506100596100cf565b60405161006691906102ce565b60405180910390f35b34801561007b57600080fd5b506100846100d5565b60405161009191906102ce565b60405180910390f35b6100a26100db565b005b3480156100b057600080fd5b506100b9610207565b6040516100c69190610368565b60405180910390f35b60025481565b60015481565b600034905060006100f76001548361022b90919063ffffffff16565b905061010e8160025461028990919063ffffffff16565b60028190555060008054906101000a900473ffffffffffffffffffffffffffffffffffffffff1673ffffffffffffffffffffffffffffffffffffffff1663a9059cbb33836040518363ffffffff1660e01b815260040161016f9291906103a4565b6020604051808303816000875af115801561018e573d6000803e3d6000fd5b505050506040513d601f19601f820116820180604052508101906101b2919061040a565b503373ffffffffffffffffffffffffffffffffffffffff167fcd60aa75dea3072fbc07ae6d7d856b5dc5f4eee88854f5b4abf7b680ef8bc50f34836040516101fb929190610437565b60405180910390a25050565b60008054906101000a900473ffffffffffffffffffffffffffffffffffffffff1681565b600080821161026f576040517f08c379a0000000000000000000000000000000000000000000000000000000008152600401610266906104bd565b60405180910390fd5b6000828461027d919061053b565b90508091505092915050565b6000808284610298919061056c565b9050838110156102ab576102aa6105c2565b5b8091505092915050565b6000819050919050565b6102c8816102b5565b82525050565b60006020820190506102e360008301846102bf565b92915050565b600073ffffffffffffffffffffffffffffffffffffffff82169050919050565b6000819050919050565b600061032e610329610324846102e9565b610309565b6102e9565b9050919050565b600061034082610313565b9050919050565b600061035282610335565b9050919050565b61036281610347565b82525050565b600060208201905061037d6000830184610359565b92915050565b600061038e826102e9565b9050919050565b61039e81610383565b82525050565b60006040820190506103b96000830185610395565b6103c660208301846102bf565b9392505050565b600080fd5b60008115159050919050565b6103e7816103d2565b81146103f257600080fd5b50565b600081519050610404816103de565b92915050565b6000602082840312156104205761041f6103cd565b5b600061042e848285016103f5565b91505092915050565b600060408201905061044c60008301856102bf565b61045960208301846102bf565b9392505050565b600082825260208201905092915050565b7f536166654d6174683a206469766973696f6e206279207a65726f000000000000600082015250565b60006104a7601a83610460565b91506104b282610471565b602082019050919050565b600060208201905081810360008301526104d68161049a565b9050919050565b7f4e487b7100000000000000000000000000000000000000000000000000000000600052601260045260246000fd5b7f4e487b7100000000000000000000000000000000000000000000000000000000600052601160045260246000fd5b6000610546826102b5565b9150610551836102b5565b925082610561576105606104dd565b5b828204905092915050565b6000610577826102b5565b9150610582836102b5565b9250827fffffffffffffffffffffffffffffffffffffffffffffffffffffffffffffffff038211156105b7576105b661050c565b5b828201905092915050565b7f4e487b7100000000000000000000000000000000000000000000000000000000600052600160045260246000fdfea26469706673582212206dfc266383a7a9cf565754a0d4eee202a2c12528eafadf9d175c9f8bf9c34bc864736f6c634300080c003360806040526040518060400160405280600981526020017f45444620546f6b656e00000000000000000000000000000000000000000000008152506000908051906020019062000051929190620001fd565b506040518060400160405280600381526020017f4544460000000000000000000000000000000000000000000000000000000000815250600190805190602001906200009f929190620001fd565b506000600260006101000a81548160ff021916908360ff160217905550348015620000c957600080fd5b5060405162001d1138038062001d118339818101604052810190620000ef9190620002ed565b62000126600260009054906101000a900460ff16600a620001119190620004af565b826200017960201b62000ccd1790919060201c565b600381905550600354600460003373ffffffffffffffffffffffffffffffffffffffff1673ffffffffffffffffffffffffffffffffffffffff1681526020019081526020016000208190555050620006d6565b6000808314156200018e5760009050620001f7565b600082846200019e919062000500565b9050828482620001af919062000590565b14620001f2576040517f08c379a0000000000000000000000000000000000000000000000000000000008152600401620001e9906200064f565b60405180910390fd5b809150505b92915050565b8280546200020b90620006a0565b90600052602060002090601f0160209004810192826200022f57600085556200027b565b82601f106200024a57805160ff19168380011785556200027b565b828001600101855582156200027b579182015b828111156200027a5782518255916020019190600101906200025d565b5b5090506200028a91906200028e565b5090565b5b80821115620002a95760008160009055506001016200028f565b5090565b600080fd5b6000819050919050565b620002c781620002b2565b8114620002d357600080fd5b50565b600081519050620002e781620002bc565b92915050565b600060208284031215620003065762000305620002ad565b5b60006200031684828501620002d6565b91505092915050565b7f4e487b7100000000000000000000000000000000000000000000000000000000600052601160045260246000fd5b60008160011c9050919050565b6000808291508390505b6001851115620003ad578086048111156200038557620003846200031f565b5b6001851615620003955780820291505b8081029050620003a5856200034e565b945062000365565b94509492505050565b600082620003c857600190506200049b565b81620003d857600090506200049b565b8160018114620003f15760028114620003fc5762000432565b60019150506200049b565b60ff8411156200041157620004106200031f565b5b8360020a9150848211156200042b576200042a6200031f565b5b506200049b565b5060208310610133831016604e8410600b84101617156200046c5782820a9050838111156200046657620004656200031f565b5b6200049b565b6200047b84848460016200035b565b925090508184048111156200049557620004946200031f565b5b81810290505b9392505050565b600060ff82169050919050565b6000620004bc82620002b2565b9150620004c983620004a2565b9250620004f87fffffffffffffffffffffffffffffffffffffffffffffffffffffffffffffffff8484620003b6565b905092915050565b60006200050d82620002b2565b91506200051a83620002b2565b9250817fffffffffffffffffffffffffffffffffffffffffffffffffffffffffffffffff04831182151516156200055657620005556200031f565b5b828202905092915050565b7f4e487b7100000000000000000000000000000000000000000000000000000000600052601260045260246000fd5b60006200059d82620002b2565b9150620005aa83620002b2565b925082620005bd57620005bc62000561565b5b828204905092915050565b600082825260208201905092915050565b7f536166654d6174683a206d756c7469706c69636174696f6e206f766572666c6f60008201527f7700000000000000000000000000000000000000000000000000000000000000602082015250565b600062000637602183620005c8565b91506200064482620005d9565b604082019050919050565b600060208201905081810360008301526200066a8162000628565b9050919050565b7f4e487b7100000000000000000000000000000000000000000000000000000000600052602260045260246000fd5b60006002820490506001821680620006b957607f821691505b60208210811415620006d057620006cf62000671565b5b50919050565b61162b80620006e66000396000f3fe608060405234801561001057600080fd5b50600436106100935760003560e01c8063313ce56711610066578063313ce5671461013457806370a082311461015257806395d89b4114610182578063a9059cbb146101a0578063dd62ed3e146101d057610093565b806306fdde0314610098578063095ea7b3146100b657806318160ddd146100e657806323b872dd14610104575b600080fd5b6100a0610200565b6040516100ad9190610e34565b60405180910390f35b6100d060048036038101906100cb9190610eef565b610292565b6040516100dd9190610f4a565b60405180910390f35b6100ee6103f3565b6040516100fb9190610f74565b60405180910390f35b61011e60048036038101906101199190610f8f565b6103fd565b60405161012b9190610f4a565b60405180910390f35b61013c6108c8565b6040516101499190610ffe565b60405180910390f35b61016c60048036038101906101679190611019565b6108df565b6040516101799190610f74565b60405180910390f35b61018a610928565b6040516101979190610e34565b60405180910390f35b6101ba60048036038101906101b59190610eef565b6109ba565b6040516101c79190610f4a565b60405180910390f35b6101ea60048036038101906101e59190611046565b610c46565b6040516101f79190610f74565b60405180910390f35b60606000805461020f906110b5565b80601f016020809104026020016040519081016040528092919081815260200182805461023b906110b5565b80156102885780601f1061025d57610100808354040283529160200191610288565b820191906000526020600020905b81548152906001019060200180831161026b57829003601f168201915b5050505050905090565b60008073ffffffffffffffffffffffffffffffffffffffff168373ffffffffffffffffffffffffffffffffffffffff161415610303576040517f08c379a00000000000000000000000000000000000000000000000000000000081526004016102fa90611159565b60405180910390fd5b81600560003373ffffffffffffffffffffffffffffffffffffffff1673ffffffffffffffffffffffffffffffffffffffff16815260200190815260200160002060008573ffffffffffffffffffffffffffffffffffffffff1673ffffffffffffffffffffffffffffffffffffffff168152602001908152602001600020819055508273ffffffffffffffffffffffffffffffffffffffff163373ffffffffffffffffffffffffffffffffffffffff167f8c5be1e5ebec7d5bd14f71427d1e84f3dd0314c0f7b2291e5b200ac8c7c3b925846040516103e19190610f74565b60405180910390a36001905092915050565b6000600354905090565b60008073ffffffffffffffffffffffffffffffffffffffff168473ffffffffffffffffffffffffffffffffffffffff16141561046e576040517f08c379a0000000000000000000000000000000000000000000000000000000008152600401610465906111eb565b60405180910390fd5b600073ffffffffffffffffffffffffffffffffffffffff168373ffffffffffffffffffffffffffffffffffffffff1614156104de576040517f08c379a00000000000000000000000000000000000000000000000000000000081526004016104d59061127d565b60405180910390fd5b600460008573ffffffffffffffffffffffffffffffffffffffff1673ffffffffffffffffffffffffffffffffffffffff16815260200190815260200160002054821115610560576040517f08c379a00000000000000000000000000000000000000000000000000000000081526004016105579061130f565b60405180910390fd5b81600560008673ffffffffffffffffffffffffffffffffffffffff1673ffffffffffffffffffffffffffffffffffffffff16815260200190815260200160002060003373ffffffffffffffffffffffffffffffffffffffff1673ffffffffffffffffffffffffffffffffffffffff16815260200190815260200160002054101561061f576040517f08c379a0000000000000000000000000000000000000000000000000000000008152600401610616906113a1565b60405180910390fd5b61067182600460008773ffffffffffffffffffffffffffffffffffffffff1673ffffffffffffffffffffffffffffffffffffffff16815260200190815260200160002054610d4890919063ffffffff16565b600460008673ffffffffffffffffffffffffffffffffffffffff1673ffffffffffffffffffffffffffffffffffffffff1681526020019081526020016000208190555061070682600460008673ffffffffffffffffffffffffffffffffffffffff1673ffffffffffffffffffffffffffffffffffffffff16815260200190815260200160002054610d6f90919063ffffffff16565b600460008573ffffffffffffffffffffffffffffffffffffffff1673ffffffffffffffffffffffffffffffffffffffff168152602001908152602001600020819055506107d882600560008773ffffffffffffffffffffffffffffffffffffffff1673ffffffffffffffffffffffffffffffffffffffff16815260200190815260200160002060003373ffffffffffffffffffffffffffffffffffffffff1673ffffffffffffffffffffffffffffffffffffffff16815260200190815260200160002054610d4890919063ffffffff16565b600560008673ffffffffffffffffffffffffffffffffffffffff1673ffffffffffffffffffffffffffffffffffffffff16815260200190815260200160002060003373ffffffffffffffffffffffffffffffffffffffff1673ffffffffffffffffffffffffffffffffffffffff168152602001908152602001600020819055508273ffffffffffffffffffffffffffffffffffffffff168473ffffffffffffffffffffffffffffffffffffffff167fddf252ad1be2c89b69c2b068fc378daa952ba7f163c4a11628f55a4df523b3ef846040516108b59190610f74565b60405180910390a3600190509392505050565b6000600260009054906101000a900460ff16905090565b6000600460008373ffffffffffffffffffffffffffffffffffffffff1673ffffffffffffffffffffffffffffffffffffffff168152602001908152602001600020549050919050565b606060018054610937906110b5565b80601f0160208091040260200160405190810160405280929190818152602001828054610963906110b5565b80156109b05780601f10610985576101008083540402835291602001916109b0565b820191906000526020600020905b81548152906001019060200180831161099357829003601f168201915b5050505050905090565b60008073ffffffffffffffffffffffffffffffffffffffff168373ffffffffffffffffffffffffffffffffffffffff161415610a2b576040517f08c379a0000000000000000000000000000000000000000000000000000000008152600401610a229061127d565b60405180910390fd5b600460003373ffffffffffffffffffffffffffffffffffffffff1673ffffffffffffffffffffffffffffffffffffffff16815260200190815260200160002054821115610aad576040517f08c379a0000000000000000000000000000000000000000000000000000000008152600401610aa49061130f565b60405180910390fd5b610aff82600460003373ffffffffffffffffffffffffffffffffffffffff1673ffffffffffffffffffffffffffffffffffffffff16815260200190815260200160002054610d4890919063ffffffff16565b600460003373ffffffffffffffffffffffffffffffffffffffff1673ffffffffffffffffffffffffffffffffffffffff16815260200190815260200160002081905550610b9482600460008673ffffffffffffffffffffffffffffffffffffffff1673ffffffffffffffffffffffffffffffffffffffff16815260200190815260200160002054610d6f90919063ffffffff16565b600460008573ffffffffffffffffffffffffffffffffffffffff1673ffffffffffffffffffffffffffffffffffffffff168152602001908152602001600020819055508273ffffffffffffffffffffffffffffffffffffffff163373ffffffffffffffffffffffffffffffffffffffff167fddf252ad1be2c89b69c2b068fc378daa952ba7f163c4a11628f55a4df523b3ef84604051610c349190610f74565b60405180910390a36001905092915050565b6000600560008473ffffffffffffffffffffffffffffffffffffffff1673ffffffffffffffffffffffffffffffffffffffff16815260200190815260200160002060008373ffffffffffffffffffffffffffffffffffffffff1673ffffffffffffffffffffffffffffffffffffffff16815260200190815260200160002054905092915050565b600080831415610ce05760009050610d42565b60008284610cee91906113f0565b9050828482610cfd9190611479565b14610d3d576040517f08c379a0000000000000000000000000000000000000000000000000000000008152600401610d349061151c565b60405180910390fd5b809150505b92915050565b600082821115610d5b57610d5a61153c565b5b8183610d67919061156b565b905092915050565b6000808284610d7e919061159f565b905083811015610d9157610d9061153c565b5b8091505092915050565b600081519050919050565b600082825260208201905092915050565b60005b83811015610dd5578082015181840152602081019050610dba565b83811115610de4576000848401525b50505050565b6000601f19601f8301169050919050565b6000610e0682610d9b565b610e108185610da6565b9350610e20818560208601610db7565b610e2981610dea565b840191505092915050565b60006020820190508181036000830152610e4e8184610dfb565b905092915050565b600080fd5b600073ffffffffffffffffffffffffffffffffffffffff82169050919050565b6000610e8682610e5b565b9050919050565b610e9681610e7b565b8114610ea157600080fd5b50565b600081359050610eb381610e8d565b92915050565b6000819050919050565b610ecc81610eb9565b8114610ed757600080fd5b50565b600081359050610ee981610ec3565b92915050565b60008060408385031215610f0657610f05610e56565b5b6000610f1485828601610ea4565b9250506020610f2585828601610eda565b9150509250929050565b60008115159050919050565b610f4481610f2f565b82525050565b6000602082019050610f5f6000830184610f3b565b92915050565b610f6e81610eb9565b82525050565b6000602082019050610f896000830184610f65565b92915050565b600080600060608486031215610fa857610fa7610e56565b5b6000610fb686828701610ea4565b9350506020610fc786828701610ea4565b9250506040610fd886828701610eda565b9150509250925092565b600060ff82169050919050565b610ff881610fe2565b82525050565b60006020820190506110136000830184610fef565b92915050565b60006020828403121561102f5761102e610e56565b5b600061103d84828501610ea4565b91505092915050565b6000806040838503121561105d5761105c610e56565b5b600061106b85828601610ea4565b925050602061107c85828601610ea4565b9150509250929050565b7f4e487b7100000000000000000000000000000000000000000000000000000000600052602260045260246000fd5b600060028204905060018216806110cd57607f821691505b602082108114156110e1576110e0611086565b5b50919050565b7f45524332303a20617070726f766520746f20746865207a65726f20616464726560008201527f7373000000000000000000000000000000000000000000000000000000000000602082015250565b6000611143602283610da6565b915061114e826110e7565b604082019050919050565b6000602082019050818103600083015261117281611136565b9050919050565b7f45524332303a207472616e736665722066726f6d20746865207a65726f20616460008201527f6472657373000000000000000000000000000000000000000000000000000000602082015250565b60006111d5602583610da6565b91506111e082611179565b604082019050919050565b60006020820190508181036000830152611204816111c8565b9050919050565b7f45524332303a207472616e7366657220746f20746865207a65726f206164647260008201527f6573730000000000000000000000000000000000000000000000000000000000602082015250565b6000611267602383610da6565b91506112728261120b565b604082019050919050565b600060208201905081810360008301526112968161125a565b9050919050565b7f45524332303a207472616e7366657220616d6f756e742065786365656473206260008201527f616c616e63650000000000000000000000000000000000000000000000000000602082015250565b60006112f9602683610da6565b91506113048261129d565b604082019050919050565b60006020820190508181036000830152611328816112ec565b9050919050565b7f45524332303a207472616e7366657220616d6f756e742065786365656473206160008201527f6c6c6f77616e6365000000000000000000000000000000000000000000000000602082015250565b600061138b602883610da6565b91506113968261132f565b604082019050919050565b600060208201905081810360008301526113ba8161137e565b9050919050565b7f4e487b7100000000000000000000000000000000000000000000000000000000600052601160045260246000fd5b60006113fb82610eb9565b915061140683610eb9565b9250817fffffffffffffffffffffffffffffffffffffffffffffffffffffffffffffffff048311821515161561143f5761143e6113c1565b5b828202905092915050565b7f4e487b7100000000000000000000000000000000000000000000000000000000600052601260045260246000fd5b600061148482610eb9565b915061148f83610eb9565b92508261149f5761149e61144a565b5b828204905092915050565b7f536166654d6174683a206d756c7469706c69636174696f6e206f766572666c6f60008201527f7700000000000000000000000000000000000000000000000000000000000000602082015250565b6000611506602183610da6565b9150611511826114aa565b604082019050919050565b60006020820190508181036000830152611535816114f9565b9050919050565b7f4e487b7100000000000000000000000000000000000000000000000000000000600052600160045260246000fd5b600061157682610eb9565b915061158183610eb9565b925082821015611594576115936113c1565b5b828203905092915050565b60006115aa82610eb9565b91506115b583610eb9565b9250827fffffffffffffffffffffffffffffffffffffffffffffffffffffffffffffffff038211156115ea576115e96113c1565b5b82820190509291505056fea2646970667358221220718c4bbd27c7eef35229f8a75be3f9dd71f00201e6550bdde9e1249db76ead0164736f6c634300080c0033",
      "opcodes": "PUSH1 0x80 PUSH1 0x40 MSTORE CALLVALUE DUP1 ISZERO PUSH2 0x10 JUMPI PUSH1 0x0 DUP1 REVERT JUMPDEST POP PUSH1 0x40 MLOAD PUSH2 0x24AC CODESIZE SUB DUP1 PUSH2 0x24AC DUP4 CODECOPY DUP2 DUP2 ADD PUSH1 0x40 MSTORE DUP2 ADD SWAP1 PUSH2 0x32 SWAP2 SWAP1 PUSH2 0xFB JUMP JUMPDEST DUP2 PUSH1 0x40 MLOAD PUSH2 0x3F SWAP1 PUSH2 0xB3 JUMP JUMPDEST PUSH2 0x49 SWAP2 SWAP1 PUSH2 0x14A JUMP JUMPDEST PUSH1 0x40 MLOAD DUP1 SWAP2 SUB SWAP1 PUSH1 0x0 CREATE DUP1 ISZERO DUP1 ISZERO PUSH2 0x65 JUMPI RETURNDATASIZE PUSH1 0x0 DUP1 RETURNDATACOPY RETURNDATASIZE PUSH1 0x0 REVERT JUMPDEST POP PUSH1 0x0 DUP1 PUSH2 0x100 EXP DUP2 SLOAD DUP2 PUSH20 0xFFFFFFFFFFFFFFFFFFFFFFFFFFFFFFFFFFFFFFFF MUL NOT AND SWAP1 DUP4 PUSH20 0xFFFFFFFFFFFFFFFFFFFFFFFFFFFFFFFFFFFFFFFF AND MUL OR SWAP1 SSTORE POP DUP1 PUSH1 0x1 DUP2 SWAP1 SSTORE POP POP POP PUSH2 0x165 JUMP JUMPDEST PUSH2 0x1D11 DUP1 PUSH2 0x79B DUP4 CODECOPY ADD SWAP1 JUMP JUMPDEST PUSH1 0x0 DUP1 REVERT JUMPDEST PUSH1 0x0 DUP2 SWAP1 POP SWAP2 SWAP1 POP JUMP JUMPDEST PUSH2 0xD8 DUP2 PUSH2 0xC5 JUMP JUMPDEST DUP2 EQ PUSH2 0xE3 JUMPI PUSH1 0x0 DUP1 REVERT JUMPDEST POP JUMP JUMPDEST PUSH1 0x0 DUP2 MLOAD SWAP1 POP PUSH2 0xF5 DUP2 PUSH2 0xCF JUMP JUMPDEST SWAP3 SWAP2 POP POP JUMP JUMPDEST PUSH1 0x0 DUP1 PUSH1 0x40 DUP4 DUP6 SUB SLT ISZERO PUSH2 0x112 JUMPI PUSH2 0x111 PUSH2 0xC0 JUMP JUMPDEST JUMPDEST PUSH1 0x0 PUSH2 0x120 DUP6 DUP3 DUP7 ADD PUSH2 0xE6 JUMP JUMPDEST SWAP3 POP POP PUSH1 0x20 PUSH2 0x131 DUP6 DUP3 DUP7 ADD PUSH2 0xE6 JUMP JUMPDEST SWAP2 POP POP SWAP3 POP SWAP3 SWAP1 POP JUMP JUMPDEST PUSH2 0x144 DUP2 PUSH2 0xC5 JUMP JUMPDEST DUP3 MSTORE POP POP JUMP JUMPDEST PUSH1 0x0 PUSH1 0x20 DUP3 ADD SWAP1 POP PUSH2 0x15F PUSH1 0x0 DUP4 ADD DUP5 PUSH2 0x13B JUMP JUMPDEST SWAP3 SWAP2 POP POP JUMP JUMPDEST PUSH2 0x627 DUP1 PUSH2 0x174 PUSH1 0x0 CODECOPY PUSH1 0x0 RETURN INVALID PUSH1 0x80 PUSH1 0x40 MSTORE PUSH1 0x4 CALLDATASIZE LT PUSH2 0x3F JUMPI PUSH1 0x0 CALLDATALOAD PUSH1 0xE0 SHR DUP1 PUSH4 0x518AB2A8 EQ PUSH2 0x44 JUMPI DUP1 PUSH4 0x7FF9B596 EQ PUSH2 0x6F JUMPI DUP1 PUSH4 0xD0FEBE4C EQ PUSH2 0x9A JUMPI DUP1 PUSH4 0xFC0C546A EQ PUSH2 0xA4 JUMPI JUMPDEST PUSH1 0x0 DUP1 REVERT JUMPDEST CALLVALUE DUP1 ISZERO PUSH2 0x50 JUMPI PUSH1 0x0 DUP1 REVERT JUMPDEST POP PUSH2 0x59 PUSH2 0xCF JUMP JUMPDEST PUSH1 0x40 MLOAD PUSH2 0x66 SWAP2 SWAP1 PUSH2 0x2CE JUMP JUMPDEST PUSH1 0x40 MLOAD DUP1 SWAP2 SUB SWAP1 RETURN JUMPDEST CALLVALUE DUP1 ISZERO PUSH2 0x7B JUMPI PUSH1 0x0 DUP1 REVERT JUMPDEST POP PUSH2 0x84 PUSH2 0xD5 JUMP JUMPDEST PUSH1 0x40 MLOAD PUSH2 0x91 SWAP2 SWAP1 PUSH2 0x2CE JUMP JUMPDEST PUSH1 0x40 MLOAD DUP1 SWAP2 SUB SWAP1 RETURN JUMPDEST PUSH2 0xA2 PUSH2 0xDB JUMP JUMPDEST STOP JUMPDEST CALLVALUE DUP1 ISZERO PUSH2 0xB0 JUMPI PUSH1 0x0 DUP1 REVERT JUMPDEST POP PUSH2 0xB9 PUSH2 0x207 JUMP JUMPDEST PUSH1 0x40 MLOAD PUSH2 0xC6 SWAP2 SWAP1 PUSH2 0x368 JUMP JUMPDEST PUSH1 0x40 MLOAD DUP1 SWAP2 SUB SWAP1 RETURN JUMPDEST PUSH1 0x2 SLOAD DUP2 JUMP JUMPDEST PUSH1 0x1 SLOAD DUP2 JUMP JUMPDEST PUSH1 0x0 CALLVALUE SWAP1 POP PUSH1 0x0 PUSH2 0xF7 PUSH1 0x1 SLOAD DUP4 PUSH2 0x22B SWAP1 SWAP2 SWAP1 PUSH4 0xFFFFFFFF AND JUMP JUMPDEST SWAP1 POP PUSH2 0x10E DUP2 PUSH1 0x2 SLOAD PUSH2 0x289 SWAP1 SWAP2 SWAP1 PUSH4 0xFFFFFFFF AND JUMP JUMPDEST PUSH1 0x2 DUP2 SWAP1 SSTORE POP PUSH1 0x0 DUP1 SLOAD SWAP1 PUSH2 0x100 EXP SWAP1 DIV PUSH20 0xFFFFFFFFFFFFFFFFFFFFFFFFFFFFFFFFFFFFFFFF AND PUSH20 0xFFFFFFFFFFFFFFFFFFFFFFFFFFFFFFFFFFFFFFFF AND PUSH4 0xA9059CBB CALLER DUP4 PUSH1 0x40 MLOAD DUP4 PUSH4 0xFFFFFFFF AND PUSH1 0xE0 SHL DUP2 MSTORE PUSH1 0x4 ADD PUSH2 0x16F SWAP3 SWAP2 SWAP1 PUSH2 0x3A4 JUMP JUMPDEST PUSH1 0x20 PUSH1 0x40 MLOAD DUP1 DUP4 SUB DUP2 PUSH1 0x0 DUP8 GAS CALL ISZERO DUP1 ISZERO PUSH2 0x18E JUMPI RETURNDATASIZE PUSH1 0x0 DUP1 RETURNDATACOPY RETURNDATASIZE PUSH1 0x0 REVERT JUMPDEST POP POP POP POP PUSH1 0x40 MLOAD RETURNDATASIZE PUSH1 0x1F NOT PUSH1 0x1F DUP3 ADD AND DUP3 ADD DUP1 PUSH1 0x40 MSTORE POP DUP2 ADD SWAP1 PUSH2 0x1B2 SWAP2 SWAP1 PUSH2 0x40A JUMP JUMPDEST POP CALLER PUSH20 0xFFFFFFFFFFFFFFFFFFFFFFFFFFFFFFFFFFFFFFFF AND PUSH32 0xCD60AA75DEA3072FBC07AE6D7D856B5DC5F4EEE88854F5B4ABF7B680EF8BC50F CALLVALUE DUP4 PUSH1 0x40 MLOAD PUSH2 0x1FB SWAP3 SWAP2 SWAP1 PUSH2 0x437 JUMP JUMPDEST PUSH1 0x40 MLOAD DUP1 SWAP2 SUB SWAP1 LOG2 POP POP JUMP JUMPDEST PUSH1 0x0 DUP1 SLOAD SWAP1 PUSH2 0x100 EXP SWAP1 DIV PUSH20 0xFFFFFFFFFFFFFFFFFFFFFFFFFFFFFFFFFFFFFFFF AND DUP2 JUMP JUMPDEST PUSH1 0x0 DUP1 DUP3 GT PUSH2 0x26F JUMPI PUSH1 0x40 MLOAD PUSH32 0x8C379A000000000000000000000000000000000000000000000000000000000 DUP2 MSTORE PUSH1 0x4 ADD PUSH2 0x266 SWAP1 PUSH2 0x4BD JUMP JUMPDEST PUSH1 0x40 MLOAD DUP1 SWAP2 SUB SWAP1 REVERT JUMPDEST PUSH1 0x0 DUP3 DUP5 PUSH2 0x27D SWAP2 SWAP1 PUSH2 0x53B JUMP JUMPDEST SWAP1 POP DUP1 SWAP2 POP POP SWAP3 SWAP2 POP POP JUMP JUMPDEST PUSH1 0x0 DUP1 DUP3 DUP5 PUSH2 0x298 SWAP2 SWAP1 PUSH2 0x56C JUMP JUMPDEST SWAP1 POP DUP4 DUP2 LT ISZERO PUSH2 0x2AB JUMPI PUSH2 0x2AA PUSH2 0x5C2 JUMP JUMPDEST JUMPDEST DUP1 SWAP2 POP POP SWAP3 SWAP2 POP POP JUMP JUMPDEST PUSH1 0x0 DUP2 SWAP1 POP SWAP2 SWAP1 POP JUMP JUMPDEST PUSH2 0x2C8 DUP2 PUSH2 0x2B5 JUMP JUMPDEST DUP3 MSTORE POP POP JUMP JUMPDEST PUSH1 0x0 PUSH1 0x20 DUP3 ADD SWAP1 POP PUSH2 0x2E3 PUSH1 0x0 DUP4 ADD DUP5 PUSH2 0x2BF JUMP JUMPDEST SWAP3 SWAP2 POP POP JUMP JUMPDEST PUSH1 0x0 PUSH20 0xFFFFFFFFFFFFFFFFFFFFFFFFFFFFFFFFFFFFFFFF DUP3 AND SWAP1 POP SWAP2 SWAP1 POP JUMP JUMPDEST PUSH1 0x0 DUP2 SWAP1 POP SWAP2 SWAP1 POP JUMP JUMPDEST PUSH1 0x0 PUSH2 0x32E PUSH2 0x329 PUSH2 0x324 DUP5 PUSH2 0x2E9 JUMP JUMPDEST PUSH2 0x309 JUMP JUMPDEST PUSH2 0x2E9 JUMP JUMPDEST SWAP1 POP SWAP2 SWAP1 POP JUMP JUMPDEST PUSH1 0x0 PUSH2 0x340 DUP3 PUSH2 0x313 JUMP JUMPDEST SWAP1 POP SWAP2 SWAP1 POP JUMP JUMPDEST PUSH1 0x0 PUSH2 0x352 DUP3 PUSH2 0x335 JUMP JUMPDEST SWAP1 POP SWAP2 SWAP1 POP JUMP JUMPDEST PUSH2 0x362 DUP2 PUSH2 0x347 JUMP JUMPDEST DUP3 MSTORE POP POP JUMP JUMPDEST PUSH1 0x0 PUSH1 0x20 DUP3 ADD SWAP1 POP PUSH2 0x37D PUSH1 0x0 DUP4 ADD DUP5 PUSH2 0x359 JUMP JUMPDEST SWAP3 SWAP2 POP POP JUMP JUMPDEST PUSH1 0x0 PUSH2 0x38E DUP3 PUSH2 0x2E9 JUMP JUMPDEST SWAP1 POP SWAP2 SWAP1 POP JUMP JUMPDEST PUSH2 0x39E DUP2 PUSH2 0x383 JUMP JUMPDEST DUP3 MSTORE POP POP JUMP JUMPDEST PUSH1 0x0 PUSH1 0x40 DUP3 ADD SWAP1 POP PUSH2 0x3B9 PUSH1 0x0 DUP4 ADD DUP6 PUSH2 0x395 JUMP JUMPDEST PUSH2 0x3C6 PUSH1 0x20 DUP4 ADD DUP5 PUSH2 0x2BF JUMP JUMPDEST SWAP4 SWAP3 POP POP POP JUMP JUMPDEST PUSH1 0x0 DUP1 REVERT JUMPDEST PUSH1 0x0 DUP2 ISZERO ISZERO SWAP1 POP SWAP2 SWAP1 POP JUMP JUMPDEST PUSH2 0x3E7 DUP2 PUSH2 0x3D2 JUMP JUMPDEST DUP2 EQ PUSH2 0x3F2 JUMPI PUSH1 0x0 DUP1 REVERT JUMPDEST POP JUMP JUMPDEST PUSH1 0x0 DUP2 MLOAD SWAP1 POP PUSH2 0x404 DUP2 PUSH2 0x3DE JUMP JUMPDEST SWAP3 SWAP2 POP POP JUMP JUMPDEST PUSH1 0x0 PUSH1 0x20 DUP3 DUP5 SUB SLT ISZERO PUSH2 0x420 JUMPI PUSH2 0x41F PUSH2 0x3CD JUMP JUMPDEST JUMPDEST PUSH1 0x0 PUSH2 0x42E DUP5 DUP3 DUP6 ADD PUSH2 0x3F5 JUMP JUMPDEST SWAP2 POP POP SWAP3 SWAP2 POP POP JUMP JUMPDEST PUSH1 0x0 PUSH1 0x40 DUP3 ADD SWAP1 POP PUSH2 0x44C PUSH1 0x0 DUP4 ADD DUP6 PUSH2 0x2BF JUMP JUMPDEST PUSH2 0x459 PUSH1 0x20 DUP4 ADD DUP5 PUSH2 0x2BF JUMP JUMPDEST SWAP4 SWAP3 POP POP POP JUMP JUMPDEST PUSH1 0x0 DUP3 DUP3 MSTORE PUSH1 0x20 DUP3 ADD SWAP1 POP SWAP3 SWAP2 POP POP JUMP JUMPDEST PUSH32 0x536166654D6174683A206469766973696F6E206279207A65726F000000000000 PUSH1 0x0 DUP3 ADD MSTORE POP JUMP JUMPDEST PUSH1 0x0 PUSH2 0x4A7 PUSH1 0x1A DUP4 PUSH2 0x460 JUMP JUMPDEST SWAP2 POP PUSH2 0x4B2 DUP3 PUSH2 0x471 JUMP JUMPDEST PUSH1 0x20 DUP3 ADD SWAP1 POP SWAP2 SWAP1 POP JUMP JUMPDEST PUSH1 0x0 PUSH1 0x20 DUP3 ADD SWAP1 POP DUP2 DUP2 SUB PUSH1 0x0 DUP4 ADD MSTORE PUSH2 0x4D6 DUP2 PUSH2 0x49A JUMP JUMPDEST SWAP1 POP SWAP2 SWAP1 POP JUMP JUMPDEST PUSH32 0x4E487B7100000000000000000000000000000000000000000000000000000000 PUSH1 0x0 MSTORE PUSH1 0x12 PUSH1 0x4 MSTORE PUSH1 0x24 PUSH1 0x0 REVERT JUMPDEST PUSH32 0x4E487B7100000000000000000000000000000000000000000000000000000000 PUSH1 0x0 MSTORE PUSH1 0x11 PUSH1 0x4 MSTORE PUSH1 0x24 PUSH1 0x0 REVERT JUMPDEST PUSH1 0x0 PUSH2 0x546 DUP3 PUSH2 0x2B5 JUMP JUMPDEST SWAP2 POP PUSH2 0x551 DUP4 PUSH2 0x2B5 JUMP JUMPDEST SWAP3 POP DUP3 PUSH2 0x561 JUMPI PUSH2 0x560 PUSH2 0x4DD JUMP JUMPDEST JUMPDEST DUP3 DUP3 DIV SWAP1 POP SWAP3 SWAP2 POP POP JUMP JUMPDEST PUSH1 0x0 PUSH2 0x577 DUP3 PUSH2 0x2B5 JUMP JUMPDEST SWAP2 POP PUSH2 0x582 DUP4 PUSH2 0x2B5 JUMP JUMPDEST SWAP3 POP DUP3 PUSH32 0xFFFFFFFFFFFFFFFFFFFFFFFFFFFFFFFFFFFFFFFFFFFFFFFFFFFFFFFFFFFFFFFF SUB DUP3 GT ISZERO PUSH2 0x5B7 JUMPI PUSH2 0x5B6 PUSH2 0x50C JUMP JUMPDEST JUMPDEST DUP3 DUP3 ADD SWAP1 POP SWAP3 SWAP2 POP POP JUMP JUMPDEST PUSH32 0x4E487B7100000000000000000000000000000000000000000000000000000000 PUSH1 0x0 MSTORE PUSH1 0x1 PUSH1 0x4 MSTORE PUSH1 0x24 PUSH1 0x0 REVERT INVALID LOG2 PUSH5 0x6970667358 0x22 SLT KECCAK256 PUSH14 0xFC266383A7A9CF565754A0D4EEE2 MUL LOG2 0xC1 0x25 0x28 0xEA STATICCALL 0xDF SWAP14 OR 0x5C SWAP16 DUP12 0xF9 0xC3 0x4B 0xC8 PUSH5 0x736F6C6343 STOP ADDMOD 0xC STOP CALLER PUSH1 0x80 PUSH1 0x40 MSTORE PUSH1 0x40 MLOAD DUP1 PUSH1 0x40 ADD PUSH1 0x40 MSTORE DUP1 PUSH1 0x9 DUP2 MSTORE PUSH1 0x20 ADD PUSH32 0x45444620546F6B656E0000000000000000000000000000000000000000000000 DUP2 MSTORE POP PUSH1 0x0 SWAP1 DUP1 MLOAD SWAP1 PUSH1 0x20 ADD SWAP1 PUSH3 0x51 SWAP3 SWAP2 SWAP1 PUSH3 0x1FD JUMP JUMPDEST POP PUSH1 0x40 MLOAD DUP1 PUSH1 0x40 ADD PUSH1 0x40 MSTORE DUP1 PUSH1 0x3 DUP2 MSTORE PUSH1 0x20 ADD PUSH32 0x4544460000000000000000000000000000000000000000000000000000000000 DUP2 MSTORE POP PUSH1 0x1 SWAP1 DUP1 MLOAD SWAP1 PUSH1 0x20 ADD SWAP1 PUSH3 0x9F SWAP3 SWAP2 SWAP1 PUSH3 0x1FD JUMP JUMPDEST POP PUSH1 0x0 PUSH1 0x2 PUSH1 0x0 PUSH2 0x100 EXP DUP2 SLOAD DUP2 PUSH1 0xFF MUL NOT AND SWAP1 DUP4 PUSH1 0xFF AND MUL OR SWAP1 SSTORE POP CALLVALUE DUP1 ISZERO PUSH3 0xC9 JUMPI PUSH1 0x0 DUP1 REVERT JUMPDEST POP PUSH1 0x40 MLOAD PUSH3 0x1D11 CODESIZE SUB DUP1 PUSH3 0x1D11 DUP4 CODECOPY DUP2 DUP2 ADD PUSH1 0x40 MSTORE DUP2 ADD SWAP1 PUSH3 0xEF SWAP2 SWAP1 PUSH3 0x2ED JUMP JUMPDEST PUSH3 0x126 PUSH1 0x2 PUSH1 0x0 SWAP1 SLOAD SWAP1 PUSH2 0x100 EXP SWAP1 DIV PUSH1 0xFF AND PUSH1 0xA PUSH3 0x111 SWAP2 SWAP1 PUSH3 0x4AF JUMP JUMPDEST DUP3 PUSH3 0x179 PUSH1 0x20 SHL PUSH3 0xCCD OR SWAP1 SWAP2 SWAP1 PUSH1 0x20 SHR JUMP JUMPDEST PUSH1 0x3 DUP2 SWAP1 SSTORE POP PUSH1 0x3 SLOAD PUSH1 0x4 PUSH1 0x0 CALLER PUSH20 0xFFFFFFFFFFFFFFFFFFFFFFFFFFFFFFFFFFFFFFFF AND PUSH20 0xFFFFFFFFFFFFFFFFFFFFFFFFFFFFFFFFFFFFFFFF AND DUP2 MSTORE PUSH1 0x20 ADD SWAP1 DUP2 MSTORE PUSH1 0x20 ADD PUSH1 0x0 KECCAK256 DUP2 SWAP1 SSTORE POP POP PUSH3 0x6D6 JUMP JUMPDEST PUSH1 0x0 DUP1 DUP4 EQ ISZERO PUSH3 0x18E JUMPI PUSH1 0x0 SWAP1 POP PUSH3 0x1F7 JUMP JUMPDEST PUSH1 0x0 DUP3 DUP5 PUSH3 0x19E SWAP2 SWAP1 PUSH3 0x500 JUMP JUMPDEST SWAP1 POP DUP3 DUP5 DUP3 PUSH3 0x1AF SWAP2 SWAP1 PUSH3 0x590 JUMP JUMPDEST EQ PUSH3 0x1F2 JUMPI PUSH1 0x40 MLOAD PUSH32 0x8C379A000000000000000000000000000000000000000000000000000000000 DUP2 MSTORE PUSH1 0x4 ADD PUSH3 0x1E9 SWAP1 PUSH3 0x64F JUMP JUMPDEST PUSH1 0x40 MLOAD DUP1 SWAP2 SUB SWAP1 REVERT JUMPDEST DUP1 SWAP2 POP POP JUMPDEST SWAP3 SWAP2 POP POP JUMP JUMPDEST DUP3 DUP1 SLOAD PUSH3 0x20B SWAP1 PUSH3 0x6A0 JUMP JUMPDEST SWAP1 PUSH1 0x0 MSTORE PUSH1 0x20 PUSH1 0x0 KECCAK256 SWAP1 PUSH1 0x1F ADD PUSH1 0x20 SWAP1 DIV DUP2 ADD SWAP3 DUP3 PUSH3 0x22F JUMPI PUSH1 0x0 DUP6 SSTORE PUSH3 0x27B JUMP JUMPDEST DUP3 PUSH1 0x1F LT PUSH3 0x24A JUMPI DUP1 MLOAD PUSH1 0xFF NOT AND DUP4 DUP1 ADD OR DUP6 SSTORE PUSH3 0x27B JUMP JUMPDEST DUP3 DUP1 ADD PUSH1 0x1 ADD DUP6 SSTORE DUP3 ISZERO PUSH3 0x27B JUMPI SWAP2 DUP3 ADD JUMPDEST DUP3 DUP2 GT ISZERO PUSH3 0x27A JUMPI DUP3 MLOAD DUP3 SSTORE SWAP2 PUSH1 0x20 ADD SWAP2 SWAP1 PUSH1 0x1 ADD SWAP1 PUSH3 0x25D JUMP JUMPDEST JUMPDEST POP SWAP1 POP PUSH3 0x28A SWAP2 SWAP1 PUSH3 0x28E JUMP JUMPDEST POP SWAP1 JUMP JUMPDEST JUMPDEST DUP1 DUP3 GT ISZERO PUSH3 0x2A9 JUMPI PUSH1 0x0 DUP2 PUSH1 0x0 SWAP1 SSTORE POP PUSH1 0x1 ADD PUSH3 0x28F JUMP JUMPDEST POP SWAP1 JUMP JUMPDEST PUSH1 0x0 DUP1 REVERT JUMPDEST PUSH1 0x0 DUP2 SWAP1 POP SWAP2 SWAP1 POP JUMP JUMPDEST PUSH3 0x2C7 DUP2 PUSH3 0x2B2 JUMP JUMPDEST DUP2 EQ PUSH3 0x2D3 JUMPI PUSH1 0x0 DUP1 REVERT JUMPDEST POP JUMP JUMPDEST PUSH1 0x0 DUP2 MLOAD SWAP1 POP PUSH3 0x2E7 DUP2 PUSH3 0x2BC JUMP JUMPDEST SWAP3 SWAP2 POP POP JUMP JUMPDEST PUSH1 0x0 PUSH1 0x20 DUP3 DUP5 SUB SLT ISZERO PUSH3 0x306 JUMPI PUSH3 0x305 PUSH3 0x2AD JUMP JUMPDEST JUMPDEST PUSH1 0x0 PUSH3 0x316 DUP5 DUP3 DUP6 ADD PUSH3 0x2D6 JUMP JUMPDEST SWAP2 POP POP SWAP3 SWAP2 POP POP JUMP JUMPDEST PUSH32 0x4E487B7100000000000000000000000000000000000000000000000000000000 PUSH1 0x0 MSTORE PUSH1 0x11 PUSH1 0x4 MSTORE PUSH1 0x24 PUSH1 0x0 REVERT JUMPDEST PUSH1 0x0 DUP2 PUSH1 0x1 SHR SWAP1 POP SWAP2 SWAP1 POP JUMP JUMPDEST PUSH1 0x0 DUP1 DUP3 SWAP2 POP DUP4 SWAP1 POP JUMPDEST PUSH1 0x1 DUP6 GT ISZERO PUSH3 0x3AD JUMPI DUP1 DUP7 DIV DUP2 GT ISZERO PUSH3 0x385 JUMPI PUSH3 0x384 PUSH3 0x31F JUMP JUMPDEST JUMPDEST PUSH1 0x1 DUP6 AND ISZERO PUSH3 0x395 JUMPI DUP1 DUP3 MUL SWAP2 POP JUMPDEST DUP1 DUP2 MUL SWAP1 POP PUSH3 0x3A5 DUP6 PUSH3 0x34E JUMP JUMPDEST SWAP5 POP PUSH3 0x365 JUMP JUMPDEST SWAP5 POP SWAP5 SWAP3 POP POP POP JUMP JUMPDEST PUSH1 0x0 DUP3 PUSH3 0x3C8 JUMPI PUSH1 0x1 SWAP1 POP PUSH3 0x49B JUMP JUMPDEST DUP2 PUSH3 0x3D8 JUMPI PUSH1 0x0 SWAP1 POP PUSH3 0x49B JUMP JUMPDEST DUP2 PUSH1 0x1 DUP2 EQ PUSH3 0x3F1 JUMPI PUSH1 0x2 DUP2 EQ PUSH3 0x3FC JUMPI PUSH3 0x432 JUMP JUMPDEST PUSH1 0x1 SWAP2 POP POP PUSH3 0x49B JUMP JUMPDEST PUSH1 0xFF DUP5 GT ISZERO PUSH3 0x411 JUMPI PUSH3 0x410 PUSH3 0x31F JUMP JUMPDEST JUMPDEST DUP4 PUSH1 0x2 EXP SWAP2 POP DUP5 DUP3 GT ISZERO PUSH3 0x42B JUMPI PUSH3 0x42A PUSH3 0x31F JUMP JUMPDEST JUMPDEST POP PUSH3 0x49B JUMP JUMPDEST POP PUSH1 0x20 DUP4 LT PUSH2 0x133 DUP4 LT AND PUSH1 0x4E DUP5 LT PUSH1 0xB DUP5 LT AND OR ISZERO PUSH3 0x46C JUMPI DUP3 DUP3 EXP SWAP1 POP DUP4 DUP2 GT ISZERO PUSH3 0x466 JUMPI PUSH3 0x465 PUSH3 0x31F JUMP JUMPDEST JUMPDEST PUSH3 0x49B JUMP JUMPDEST PUSH3 0x47B DUP5 DUP5 DUP5 PUSH1 0x1 PUSH3 0x35B JUMP JUMPDEST SWAP3 POP SWAP1 POP DUP2 DUP5 DIV DUP2 GT ISZERO PUSH3 0x495 JUMPI PUSH3 0x494 PUSH3 0x31F JUMP JUMPDEST JUMPDEST DUP2 DUP2 MUL SWAP1 POP JUMPDEST SWAP4 SWAP3 POP POP POP JUMP JUMPDEST PUSH1 0x0 PUSH1 0xFF DUP3 AND SWAP1 POP SWAP2 SWAP1 POP JUMP JUMPDEST PUSH1 0x0 PUSH3 0x4BC DUP3 PUSH3 0x2B2 JUMP JUMPDEST SWAP2 POP PUSH3 0x4C9 DUP4 PUSH3 0x4A2 JUMP JUMPDEST SWAP3 POP PUSH3 0x4F8 PUSH32 0xFFFFFFFFFFFFFFFFFFFFFFFFFFFFFFFFFFFFFFFFFFFFFFFFFFFFFFFFFFFFFFFF DUP5 DUP5 PUSH3 0x3B6 JUMP JUMPDEST SWAP1 POP SWAP3 SWAP2 POP POP JUMP JUMPDEST PUSH1 0x0 PUSH3 0x50D DUP3 PUSH3 0x2B2 JUMP JUMPDEST SWAP2 POP PUSH3 0x51A DUP4 PUSH3 0x2B2 JUMP JUMPDEST SWAP3 POP DUP2 PUSH32 0xFFFFFFFFFFFFFFFFFFFFFFFFFFFFFFFFFFFFFFFFFFFFFFFFFFFFFFFFFFFFFFFF DIV DUP4 GT DUP3 ISZERO ISZERO AND ISZERO PUSH3 0x556 JUMPI PUSH3 0x555 PUSH3 0x31F JUMP JUMPDEST JUMPDEST DUP3 DUP3 MUL SWAP1 POP SWAP3 SWAP2 POP POP JUMP JUMPDEST PUSH32 0x4E487B7100000000000000000000000000000000000000000000000000000000 PUSH1 0x0 MSTORE PUSH1 0x12 PUSH1 0x4 MSTORE PUSH1 0x24 PUSH1 0x0 REVERT JUMPDEST PUSH1 0x0 PUSH3 0x59D DUP3 PUSH3 0x2B2 JUMP JUMPDEST SWAP2 POP PUSH3 0x5AA DUP4 PUSH3 0x2B2 JUMP JUMPDEST SWAP3 POP DUP3 PUSH3 0x5BD JUMPI PUSH3 0x5BC PUSH3 0x561 JUMP JUMPDEST JUMPDEST DUP3 DUP3 DIV SWAP1 POP SWAP3 SWAP2 POP POP JUMP JUMPDEST PUSH1 0x0 DUP3 DUP3 MSTORE PUSH1 0x20 DUP3 ADD SWAP1 POP SWAP3 SWAP2 POP POP JUMP JUMPDEST PUSH32 0x536166654D6174683A206D756C7469706C69636174696F6E206F766572666C6F PUSH1 0x0 DUP3 ADD MSTORE PUSH32 0x7700000000000000000000000000000000000000000000000000000000000000 PUSH1 0x20 DUP3 ADD MSTORE POP JUMP JUMPDEST PUSH1 0x0 PUSH3 0x637 PUSH1 0x21 DUP4 PUSH3 0x5C8 JUMP JUMPDEST SWAP2 POP PUSH3 0x644 DUP3 PUSH3 0x5D9 JUMP JUMPDEST PUSH1 0x40 DUP3 ADD SWAP1 POP SWAP2 SWAP1 POP JUMP JUMPDEST PUSH1 0x0 PUSH1 0x20 DUP3 ADD SWAP1 POP DUP2 DUP2 SUB PUSH1 0x0 DUP4 ADD MSTORE PUSH3 0x66A DUP2 PUSH3 0x628 JUMP JUMPDEST SWAP1 POP SWAP2 SWAP1 POP JUMP JUMPDEST PUSH32 0x4E487B7100000000000000000000000000000000000000000000000000000000 PUSH1 0x0 MSTORE PUSH1 0x22 PUSH1 0x4 MSTORE PUSH1 0x24 PUSH1 0x0 REVERT JUMPDEST PUSH1 0x0 PUSH1 0x2 DUP3 DIV SWAP1 POP PUSH1 0x1 DUP3 AND DUP1 PUSH3 0x6B9 JUMPI PUSH1 0x7F DUP3 AND SWAP2 POP JUMPDEST PUSH1 0x20 DUP3 LT DUP2 EQ ISZERO PUSH3 0x6D0 JUMPI PUSH3 0x6CF PUSH3 0x671 JUMP JUMPDEST JUMPDEST POP SWAP2 SWAP1 POP JUMP JUMPDEST PUSH2 0x162B DUP1 PUSH3 0x6E6 PUSH1 0x0 CODECOPY PUSH1 0x0 RETURN INVALID PUSH1 0x80 PUSH1 0x40 MSTORE CALLVALUE DUP1 ISZERO PUSH2 0x10 JUMPI PUSH1 0x0 DUP1 REVERT JUMPDEST POP PUSH1 0x4 CALLDATASIZE LT PUSH2 0x93 JUMPI PUSH1 0x0 CALLDATALOAD PUSH1 0xE0 SHR DUP1 PUSH4 0x313CE567 GT PUSH2 0x66 JUMPI DUP1 PUSH4 0x313CE567 EQ PUSH2 0x134 JUMPI DUP1 PUSH4 0x70A08231 EQ PUSH2 0x152 JUMPI DUP1 PUSH4 0x95D89B41 EQ PUSH2 0x182 JUMPI DUP1 PUSH4 0xA9059CBB EQ PUSH2 0x1A0 JUMPI DUP1 PUSH4 0xDD62ED3E EQ PUSH2 0x1D0 JUMPI PUSH2 0x93 JUMP JUMPDEST DUP1 PUSH4 0x6FDDE03 EQ PUSH2 0x98 JUMPI DUP1 PUSH4 0x95EA7B3 EQ PUSH2 0xB6 JUMPI DUP1 PUSH4 0x18160DDD EQ PUSH2 0xE6 JUMPI DUP1 PUSH4 0x23B872DD EQ PUSH2 0x104 JUMPI JUMPDEST PUSH1 0x0 DUP1 REVERT JUMPDEST PUSH2 0xA0 PUSH2 0x200 JUMP JUMPDEST PUSH1 0x40 MLOAD PUSH2 0xAD SWAP2 SWAP1 PUSH2 0xE34 JUMP JUMPDEST PUSH1 0x40 MLOAD DUP1 SWAP2 SUB SWAP1 RETURN JUMPDEST PUSH2 0xD0 PUSH1 0x4 DUP1 CALLDATASIZE SUB DUP2 ADD SWAP1 PUSH2 0xCB SWAP2 SWAP1 PUSH2 0xEEF JUMP JUMPDEST PUSH2 0x292 JUMP JUMPDEST PUSH1 0x40 MLOAD PUSH2 0xDD SWAP2 SWAP1 PUSH2 0xF4A JUMP JUMPDEST PUSH1 0x40 MLOAD DUP1 SWAP2 SUB SWAP1 RETURN JUMPDEST PUSH2 0xEE PUSH2 0x3F3 JUMP JUMPDEST PUSH1 0x40 MLOAD PUSH2 0xFB SWAP2 SWAP1 PUSH2 0xF74 JUMP JUMPDEST PUSH1 0x40 MLOAD DUP1 SWAP2 SUB SWAP1 RETURN JUMPDEST PUSH2 0x11E PUSH1 0x4 DUP1 CALLDATASIZE SUB DUP2 ADD SWAP1 PUSH2 0x119 SWAP2 SWAP1 PUSH2 0xF8F JUMP JUMPDEST PUSH2 0x3FD JUMP JUMPDEST PUSH1 0x40 MLOAD PUSH2 0x12B SWAP2 SWAP1 PUSH2 0xF4A JUMP JUMPDEST PUSH1 0x40 MLOAD DUP1 SWAP2 SUB SWAP1 RETURN JUMPDEST PUSH2 0x13C PUSH2 0x8C8 JUMP JUMPDEST PUSH1 0x40 MLOAD PUSH2 0x149 SWAP2 SWAP1 PUSH2 0xFFE JUMP JUMPDEST PUSH1 0x40 MLOAD DUP1 SWAP2 SUB SWAP1 RETURN JUMPDEST PUSH2 0x16C PUSH1 0x4 DUP1 CALLDATASIZE SUB DUP2 ADD SWAP1 PUSH2 0x167 SWAP2 SWAP1 PUSH2 0x1019 JUMP JUMPDEST PUSH2 0x8DF JUMP JUMPDEST PUSH1 0x40 MLOAD PUSH2 0x179 SWAP2 SWAP1 PUSH2 0xF74 JUMP JUMPDEST PUSH1 0x40 MLOAD DUP1 SWAP2 SUB SWAP1 RETURN JUMPDEST PUSH2 0x18A PUSH2 0x928 JUMP JUMPDEST PUSH1 0x40 MLOAD PUSH2 0x197 SWAP2 SWAP1 PUSH2 0xE34 JUMP JUMPDEST PUSH1 0x40 MLOAD DUP1 SWAP2 SUB SWAP1 RETURN JUMPDEST PUSH2 0x1BA PUSH1 0x4 DUP1 CALLDATASIZE SUB DUP2 ADD SWAP1 PUSH2 0x1B5 SWAP2 SWAP1 PUSH2 0xEEF JUMP JUMPDEST PUSH2 0x9BA JUMP JUMPDEST PUSH1 0x40 MLOAD PUSH2 0x1C7 SWAP2 SWAP1 PUSH2 0xF4A JUMP JUMPDEST PUSH1 0x40 MLOAD DUP1 SWAP2 SUB SWAP1 RETURN JUMPDEST PUSH2 0x1EA PUSH1 0x4 DUP1 CALLDATASIZE SUB DUP2 ADD SWAP1 PUSH2 0x1E5 SWAP2 SWAP1 PUSH2 0x1046 JUMP JUMPDEST PUSH2 0xC46 JUMP JUMPDEST PUSH1 0x40 MLOAD PUSH2 0x1F7 SWAP2 SWAP1 PUSH2 0xF74 JUMP JUMPDEST PUSH1 0x40 MLOAD DUP1 SWAP2 SUB SWAP1 RETURN JUMPDEST PUSH1 0x60 PUSH1 0x0 DUP1 SLOAD PUSH2 0x20F SWAP1 PUSH2 0x10B5 JUMP JUMPDEST DUP1 PUSH1 0x1F ADD PUSH1 0x20 DUP1 SWAP2 DIV MUL PUSH1 0x20 ADD PUSH1 0x40 MLOAD SWAP1 DUP2 ADD PUSH1 0x40 MSTORE DUP1 SWAP3 SWAP2 SWAP1 DUP2 DUP2 MSTORE PUSH1 0x20 ADD DUP3 DUP1 SLOAD PUSH2 0x23B SWAP1 PUSH2 0x10B5 JUMP JUMPDEST DUP1 ISZERO PUSH2 0x288 JUMPI DUP1 PUSH1 0x1F LT PUSH2 0x25D JUMPI PUSH2 0x100 DUP1 DUP4 SLOAD DIV MUL DUP4 MSTORE SWAP2 PUSH1 0x20 ADD SWAP2 PUSH2 0x288 JUMP JUMPDEST DUP3 ADD SWAP2 SWAP1 PUSH1 0x0 MSTORE PUSH1 0x20 PUSH1 0x0 KECCAK256 SWAP1 JUMPDEST DUP2 SLOAD DUP2 MSTORE SWAP1 PUSH1 0x1 ADD SWAP1 PUSH1 0x20 ADD DUP1 DUP4 GT PUSH2 0x26B JUMPI DUP3 SWAP1 SUB PUSH1 0x1F AND DUP3 ADD SWAP2 JUMPDEST POP POP POP POP POP SWAP1 POP SWAP1 JUMP JUMPDEST PUSH1 0x0 DUP1 PUSH20 0xFFFFFFFFFFFFFFFFFFFFFFFFFFFFFFFFFFFFFFFF AND DUP4 PUSH20 0xFFFFFFFFFFFFFFFFFFFFFFFFFFFFFFFFFFFFFFFF AND EQ ISZERO PUSH2 0x303 JUMPI PUSH1 0x40 MLOAD PUSH32 0x8C379A000000000000000000000000000000000000000000000000000000000 DUP2 MSTORE PUSH1 0x4 ADD PUSH2 0x2FA SWAP1 PUSH2 0x1159 JUMP JUMPDEST PUSH1 0x40 MLOAD DUP1 SWAP2 SUB SWAP1 REVERT JUMPDEST DUP2 PUSH1 0x5 PUSH1 0x0 CALLER PUSH20 0xFFFFFFFFFFFFFFFFFFFFFFFFFFFFFFFFFFFFFFFF AND PUSH20 0xFFFFFFFFFFFFFFFFFFFFFFFFFFFFFFFFFFFFFFFF AND DUP2 MSTORE PUSH1 0x20 ADD SWAP1 DUP2 MSTORE PUSH1 0x20 ADD PUSH1 0x0 KECCAK256 PUSH1 0x0 DUP6 PUSH20 0xFFFFFFFFFFFFFFFFFFFFFFFFFFFFFFFFFFFFFFFF AND PUSH20 0xFFFFFFFFFFFFFFFFFFFFFFFFFFFFFFFFFFFFFFFF AND DUP2 MSTORE PUSH1 0x20 ADD SWAP1 DUP2 MSTORE PUSH1 0x20 ADD PUSH1 0x0 KECCAK256 DUP2 SWAP1 SSTORE POP DUP3 PUSH20 0xFFFFFFFFFFFFFFFFFFFFFFFFFFFFFFFFFFFFFFFF AND CALLER PUSH20 0xFFFFFFFFFFFFFFFFFFFFFFFFFFFFFFFFFFFFFFFF AND PUSH32 0x8C5BE1E5EBEC7D5BD14F71427D1E84F3DD0314C0F7B2291E5B200AC8C7C3B925 DUP5 PUSH1 0x40 MLOAD PUSH2 0x3E1 SWAP2 SWAP1 PUSH2 0xF74 JUMP JUMPDEST PUSH1 0x40 MLOAD DUP1 SWAP2 SUB SWAP1 LOG3 PUSH1 0x1 SWAP1 POP SWAP3 SWAP2 POP POP JUMP JUMPDEST PUSH1 0x0 PUSH1 0x3 SLOAD SWAP1 POP SWAP1 JUMP JUMPDEST PUSH1 0x0 DUP1 PUSH20 0xFFFFFFFFFFFFFFFFFFFFFFFFFFFFFFFFFFFFFFFF AND DUP5 PUSH20 0xFFFFFFFFFFFFFFFFFFFFFFFFFFFFFFFFFFFFFFFF AND EQ ISZERO PUSH2 0x46E JUMPI PUSH1 0x40 MLOAD PUSH32 0x8C379A000000000000000000000000000000000000000000000000000000000 DUP2 MSTORE PUSH1 0x4 ADD PUSH2 0x465 SWAP1 PUSH2 0x11EB JUMP JUMPDEST PUSH1 0x40 MLOAD DUP1 SWAP2 SUB SWAP1 REVERT JUMPDEST PUSH1 0x0 PUSH20 0xFFFFFFFFFFFFFFFFFFFFFFFFFFFFFFFFFFFFFFFF AND DUP4 PUSH20 0xFFFFFFFFFFFFFFFFFFFFFFFFFFFFFFFFFFFFFFFF AND EQ ISZERO PUSH2 0x4DE JUMPI PUSH1 0x40 MLOAD PUSH32 0x8C379A000000000000000000000000000000000000000000000000000000000 DUP2 MSTORE PUSH1 0x4 ADD PUSH2 0x4D5 SWAP1 PUSH2 0x127D JUMP JUMPDEST PUSH1 0x40 MLOAD DUP1 SWAP2 SUB SWAP1 REVERT JUMPDEST PUSH1 0x4 PUSH1 0x0 DUP6 PUSH20 0xFFFFFFFFFFFFFFFFFFFFFFFFFFFFFFFFFFFFFFFF AND PUSH20 0xFFFFFFFFFFFFFFFFFFFFFFFFFFFFFFFFFFFFFFFF AND DUP2 MSTORE PUSH1 0x20 ADD SWAP1 DUP2 MSTORE PUSH1 0x20 ADD PUSH1 0x0 KECCAK256 SLOAD DUP3 GT ISZERO PUSH2 0x560 JUMPI PUSH1 0x40 MLOAD PUSH32 0x8C379A000000000000000000000000000000000000000000000000000000000 DUP2 MSTORE PUSH1 0x4 ADD PUSH2 0x557 SWAP1 PUSH2 0x130F JUMP JUMPDEST PUSH1 0x40 MLOAD DUP1 SWAP2 SUB SWAP1 REVERT JUMPDEST DUP2 PUSH1 0x5 PUSH1 0x0 DUP7 PUSH20 0xFFFFFFFFFFFFFFFFFFFFFFFFFFFFFFFFFFFFFFFF AND PUSH20 0xFFFFFFFFFFFFFFFFFFFFFFFFFFFFFFFFFFFFFFFF AND DUP2 MSTORE PUSH1 0x20 ADD SWAP1 DUP2 MSTORE PUSH1 0x20 ADD PUSH1 0x0 KECCAK256 PUSH1 0x0 CALLER PUSH20 0xFFFFFFFFFFFFFFFFFFFFFFFFFFFFFFFFFFFFFFFF AND PUSH20 0xFFFFFFFFFFFFFFFFFFFFFFFFFFFFFFFFFFFFFFFF AND DUP2 MSTORE PUSH1 0x20 ADD SWAP1 DUP2 MSTORE PUSH1 0x20 ADD PUSH1 0x0 KECCAK256 SLOAD LT ISZERO PUSH2 0x61F JUMPI PUSH1 0x40 MLOAD PUSH32 0x8C379A000000000000000000000000000000000000000000000000000000000 DUP2 MSTORE PUSH1 0x4 ADD PUSH2 0x616 SWAP1 PUSH2 0x13A1 JUMP JUMPDEST PUSH1 0x40 MLOAD DUP1 SWAP2 SUB SWAP1 REVERT JUMPDEST PUSH2 0x671 DUP3 PUSH1 0x4 PUSH1 0x0 DUP8 PUSH20 0xFFFFFFFFFFFFFFFFFFFFFFFFFFFFFFFFFFFFFFFF AND PUSH20 0xFFFFFFFFFFFFFFFFFFFFFFFFFFFFFFFFFFFFFFFF AND DUP2 MSTORE PUSH1 0x20 ADD SWAP1 DUP2 MSTORE PUSH1 0x20 ADD PUSH1 0x0 KECCAK256 SLOAD PUSH2 0xD48 SWAP1 SWAP2 SWAP1 PUSH4 0xFFFFFFFF AND JUMP JUMPDEST PUSH1 0x4 PUSH1 0x0 DUP7 PUSH20 0xFFFFFFFFFFFFFFFFFFFFFFFFFFFFFFFFFFFFFFFF AND PUSH20 0xFFFFFFFFFFFFFFFFFFFFFFFFFFFFFFFFFFFFFFFF AND DUP2 MSTORE PUSH1 0x20 ADD SWAP1 DUP2 MSTORE PUSH1 0x20 ADD PUSH1 0x0 KECCAK256 DUP2 SWAP1 SSTORE POP PUSH2 0x706 DUP3 PUSH1 0x4 PUSH1 0x0 DUP7 PUSH20 0xFFFFFFFFFFFFFFFFFFFFFFFFFFFFFFFFFFFFFFFF AND PUSH20 0xFFFFFFFFFFFFFFFFFFFFFFFFFFFFFFFFFFFFFFFF AND DUP2 MSTORE PUSH1 0x20 ADD SWAP1 DUP2 MSTORE PUSH1 0x20 ADD PUSH1 0x0 KECCAK256 SLOAD PUSH2 0xD6F SWAP1 SWAP2 SWAP1 PUSH4 0xFFFFFFFF AND JUMP JUMPDEST PUSH1 0x4 PUSH1 0x0 DUP6 PUSH20 0xFFFFFFFFFFFFFFFFFFFFFFFFFFFFFFFFFFFFFFFF AND PUSH20 0xFFFFFFFFFFFFFFFFFFFFFFFFFFFFFFFFFFFFFFFF AND DUP2 MSTORE PUSH1 0x20 ADD SWAP1 DUP2 MSTORE PUSH1 0x20 ADD PUSH1 0x0 KECCAK256 DUP2 SWAP1 SSTORE POP PUSH2 0x7D8 DUP3 PUSH1 0x5 PUSH1 0x0 DUP8 PUSH20 0xFFFFFFFFFFFFFFFFFFFFFFFFFFFFFFFFFFFFFFFF AND PUSH20 0xFFFFFFFFFFFFFFFFFFFFFFFFFFFFFFFFFFFFFFFF AND DUP2 MSTORE PUSH1 0x20 ADD SWAP1 DUP2 MSTORE PUSH1 0x20 ADD PUSH1 0x0 KECCAK256 PUSH1 0x0 CALLER PUSH20 0xFFFFFFFFFFFFFFFFFFFFFFFFFFFFFFFFFFFFFFFF AND PUSH20 0xFFFFFFFFFFFFFFFFFFFFFFFFFFFFFFFFFFFFFFFF AND DUP2 MSTORE PUSH1 0x20 ADD SWAP1 DUP2 MSTORE PUSH1 0x20 ADD PUSH1 0x0 KECCAK256 SLOAD PUSH2 0xD48 SWAP1 SWAP2 SWAP1 PUSH4 0xFFFFFFFF AND JUMP JUMPDEST PUSH1 0x5 PUSH1 0x0 DUP7 PUSH20 0xFFFFFFFFFFFFFFFFFFFFFFFFFFFFFFFFFFFFFFFF AND PUSH20 0xFFFFFFFFFFFFFFFFFFFFFFFFFFFFFFFFFFFFFFFF AND DUP2 MSTORE PUSH1 0x20 ADD SWAP1 DUP2 MSTORE PUSH1 0x20 ADD PUSH1 0x0 KECCAK256 PUSH1 0x0 CALLER PUSH20 0xFFFFFFFFFFFFFFFFFFFFFFFFFFFFFFFFFFFFFFFF AND PUSH20 0xFFFFFFFFFFFFFFFFFFFFFFFFFFFFFFFFFFFFFFFF AND DUP2 MSTORE PUSH1 0x20 ADD SWAP1 DUP2 MSTORE PUSH1 0x20 ADD PUSH1 0x0 KECCAK256 DUP2 SWAP1 SSTORE POP DUP3 PUSH20 0xFFFFFFFFFFFFFFFFFFFFFFFFFFFFFFFFFFFFFFFF AND DUP5 PUSH20 0xFFFFFFFFFFFFFFFFFFFFFFFFFFFFFFFFFFFFFFFF AND PUSH32 0xDDF252AD1BE2C89B69C2B068FC378DAA952BA7F163C4A11628F55A4DF523B3EF DUP5 PUSH1 0x40 MLOAD PUSH2 0x8B5 SWAP2 SWAP1 PUSH2 0xF74 JUMP JUMPDEST PUSH1 0x40 MLOAD DUP1 SWAP2 SUB SWAP1 LOG3 PUSH1 0x1 SWAP1 POP SWAP4 SWAP3 POP POP POP JUMP JUMPDEST PUSH1 0x0 PUSH1 0x2 PUSH1 0x0 SWAP1 SLOAD SWAP1 PUSH2 0x100 EXP SWAP1 DIV PUSH1 0xFF AND SWAP1 POP SWAP1 JUMP JUMPDEST PUSH1 0x0 PUSH1 0x4 PUSH1 0x0 DUP4 PUSH20 0xFFFFFFFFFFFFFFFFFFFFFFFFFFFFFFFFFFFFFFFF AND PUSH20 0xFFFFFFFFFFFFFFFFFFFFFFFFFFFFFFFFFFFFFFFF AND DUP2 MSTORE PUSH1 0x20 ADD SWAP1 DUP2 MSTORE PUSH1 0x20 ADD PUSH1 0x0 KECCAK256 SLOAD SWAP1 POP SWAP2 SWAP1 POP JUMP JUMPDEST PUSH1 0x60 PUSH1 0x1 DUP1 SLOAD PUSH2 0x937 SWAP1 PUSH2 0x10B5 JUMP JUMPDEST DUP1 PUSH1 0x1F ADD PUSH1 0x20 DUP1 SWAP2 DIV MUL PUSH1 0x20 ADD PUSH1 0x40 MLOAD SWAP1 DUP2 ADD PUSH1 0x40 MSTORE DUP1 SWAP3 SWAP2 SWAP1 DUP2 DUP2 MSTORE PUSH1 0x20 ADD DUP3 DUP1 SLOAD PUSH2 0x963 SWAP1 PUSH2 0x10B5 JUMP JUMPDEST DUP1 ISZERO PUSH2 0x9B0 JUMPI DUP1 PUSH1 0x1F LT PUSH2 0x985 JUMPI PUSH2 0x100 DUP1 DUP4 SLOAD DIV MUL DUP4 MSTORE SWAP2 PUSH1 0x20 ADD SWAP2 PUSH2 0x9B0 JUMP JUMPDEST DUP3 ADD SWAP2 SWAP1 PUSH1 0x0 MSTORE PUSH1 0x20 PUSH1 0x0 KECCAK256 SWAP1 JUMPDEST DUP2 SLOAD DUP2 MSTORE SWAP1 PUSH1 0x1 ADD SWAP1 PUSH1 0x20 ADD DUP1 DUP4 GT PUSH2 0x993 JUMPI DUP3 SWAP1 SUB PUSH1 0x1F AND DUP3 ADD SWAP2 JUMPDEST POP POP POP POP POP SWAP1 POP SWAP1 JUMP JUMPDEST PUSH1 0x0 DUP1 PUSH20 0xFFFFFFFFFFFFFFFFFFFFFFFFFFFFFFFFFFFFFFFF AND DUP4 PUSH20 0xFFFFFFFFFFFFFFFFFFFFFFFFFFFFFFFFFFFFFFFF AND EQ ISZERO PUSH2 0xA2B JUMPI PUSH1 0x40 MLOAD PUSH32 0x8C379A000000000000000000000000000000000000000000000000000000000 DUP2 MSTORE PUSH1 0x4 ADD PUSH2 0xA22 SWAP1 PUSH2 0x127D JUMP JUMPDEST PUSH1 0x40 MLOAD DUP1 SWAP2 SUB SWAP1 REVERT JUMPDEST PUSH1 0x4 PUSH1 0x0 CALLER PUSH20 0xFFFFFFFFFFFFFFFFFFFFFFFFFFFFFFFFFFFFFFFF AND PUSH20 0xFFFFFFFFFFFFFFFFFFFFFFFFFFFFFFFFFFFFFFFF AND DUP2 MSTORE PUSH1 0x20 ADD SWAP1 DUP2 MSTORE PUSH1 0x20 ADD PUSH1 0x0 KECCAK256 SLOAD DUP3 GT ISZERO PUSH2 0xAAD JUMPI PUSH1 0x40 MLOAD PUSH32 0x8C379A000000000000000000000000000000000000000000000000000000000 DUP2 MSTORE PUSH1 0x4 ADD PUSH2 0xAA4 SWAP1 PUSH2 0x130F JUMP JUMPDEST PUSH1 0x40 MLOAD DUP1 SWAP2 SUB SWAP1 REVERT JUMPDEST PUSH2 0xAFF DUP3 PUSH1 0x4 PUSH1 0x0 CALLER PUSH20 0xFFFFFFFFFFFFFFFFFFFFFFFFFFFFFFFFFFFFFFFF AND PUSH20 0xFFFFFFFFFFFFFFFFFFFFFFFFFFFFFFFFFFFFFFFF AND DUP2 MSTORE PUSH1 0x20 ADD SWAP1 DUP2 MSTORE PUSH1 0x20 ADD PUSH1 0x0 KECCAK256 SLOAD PUSH2 0xD48 SWAP1 SWAP2 SWAP1 PUSH4 0xFFFFFFFF AND JUMP JUMPDEST PUSH1 0x4 PUSH1 0x0 CALLER PUSH20 0xFFFFFFFFFFFFFFFFFFFFFFFFFFFFFFFFFFFFFFFF AND PUSH20 0xFFFFFFFFFFFFFFFFFFFFFFFFFFFFFFFFFFFFFFFF AND DUP2 MSTORE PUSH1 0x20 ADD SWAP1 DUP2 MSTORE PUSH1 0x20 ADD PUSH1 0x0 KECCAK256 DUP2 SWAP1 SSTORE POP PUSH2 0xB94 DUP3 PUSH1 0x4 PUSH1 0x0 DUP7 PUSH20 0xFFFFFFFFFFFFFFFFFFFFFFFFFFFFFFFFFFFFFFFF AND PUSH20 0xFFFFFFFFFFFFFFFFFFFFFFFFFFFFFFFFFFFFFFFF AND DUP2 MSTORE PUSH1 0x20 ADD SWAP1 DUP2 MSTORE PUSH1 0x20 ADD PUSH1 0x0 KECCAK256 SLOAD PUSH2 0xD6F SWAP1 SWAP2 SWAP1 PUSH4 0xFFFFFFFF AND JUMP JUMPDEST PUSH1 0x4 PUSH1 0x0 DUP6 PUSH20 0xFFFFFFFFFFFFFFFFFFFFFFFFFFFFFFFFFFFFFFFF AND PUSH20 0xFFFFFFFFFFFFFFFFFFFFFFFFFFFFFFFFFFFFFFFF AND DUP2 MSTORE PUSH1 0x20 ADD SWAP1 DUP2 MSTORE PUSH1 0x20 ADD PUSH1 0x0 KECCAK256 DUP2 SWAP1 SSTORE POP DUP3 PUSH20 0xFFFFFFFFFFFFFFFFFFFFFFFFFFFFFFFFFFFFFFFF AND CALLER PUSH20 0xFFFFFFFFFFFFFFFFFFFFFFFFFFFFFFFFFFFFFFFF AND PUSH32 0xDDF252AD1BE2C89B69C2B068FC378DAA952BA7F163C4A11628F55A4DF523B3EF DUP5 PUSH1 0x40 MLOAD PUSH2 0xC34 SWAP2 SWAP1 PUSH2 0xF74 JUMP JUMPDEST PUSH1 0x40 MLOAD DUP1 SWAP2 SUB SWAP1 LOG3 PUSH1 0x1 SWAP1 POP SWAP3 SWAP2 POP POP JUMP JUMPDEST PUSH1 0x0 PUSH1 0x5 PUSH1 0x0 DUP5 PUSH20 0xFFFFFFFFFFFFFFFFFFFFFFFFFFFFFFFFFFFFFFFF AND PUSH20 0xFFFFFFFFFFFFFFFFFFFFFFFFFFFFFFFFFFFFFFFF AND DUP2 MSTORE PUSH1 0x20 ADD SWAP1 DUP2 MSTORE PUSH1 0x20 ADD PUSH1 0x0 KECCAK256 PUSH1 0x0 DUP4 PUSH20 0xFFFFFFFFFFFFFFFFFFFFFFFFFFFFFFFFFFFFFFFF AND PUSH20 0xFFFFFFFFFFFFFFFFFFFFFFFFFFFFFFFFFFFFFFFF AND DUP2 MSTORE PUSH1 0x20 ADD SWAP1 DUP2 MSTORE PUSH1 0x20 ADD PUSH1 0x0 KECCAK256 SLOAD SWAP1 POP SWAP3 SWAP2 POP POP JUMP JUMPDEST PUSH1 0x0 DUP1 DUP4 EQ ISZERO PUSH2 0xCE0 JUMPI PUSH1 0x0 SWAP1 POP PUSH2 0xD42 JUMP JUMPDEST PUSH1 0x0 DUP3 DUP5 PUSH2 0xCEE SWAP2 SWAP1 PUSH2 0x13F0 JUMP JUMPDEST SWAP1 POP DUP3 DUP5 DUP3 PUSH2 0xCFD SWAP2 SWAP1 PUSH2 0x1479 JUMP JUMPDEST EQ PUSH2 0xD3D JUMPI PUSH1 0x40 MLOAD PUSH32 0x8C379A000000000000000000000000000000000000000000000000000000000 DUP2 MSTORE PUSH1 0x4 ADD PUSH2 0xD34 SWAP1 PUSH2 0x151C JUMP JUMPDEST PUSH1 0x40 MLOAD DUP1 SWAP2 SUB SWAP1 REVERT JUMPDEST DUP1 SWAP2 POP POP JUMPDEST SWAP3 SWAP2 POP POP JUMP JUMPDEST PUSH1 0x0 DUP3 DUP3 GT ISZERO PUSH2 0xD5B JUMPI PUSH2 0xD5A PUSH2 0x153C JUMP JUMPDEST JUMPDEST DUP2 DUP4 PUSH2 0xD67 SWAP2 SWAP1 PUSH2 0x156B JUMP JUMPDEST SWAP1 POP SWAP3 SWAP2 POP POP JUMP JUMPDEST PUSH1 0x0 DUP1 DUP3 DUP5 PUSH2 0xD7E SWAP2 SWAP1 PUSH2 0x159F JUMP JUMPDEST SWAP1 POP DUP4 DUP2 LT ISZERO PUSH2 0xD91 JUMPI PUSH2 0xD90 PUSH2 0x153C JUMP JUMPDEST JUMPDEST DUP1 SWAP2 POP POP SWAP3 SWAP2 POP POP JUMP JUMPDEST PUSH1 0x0 DUP2 MLOAD SWAP1 POP SWAP2 SWAP1 POP JUMP JUMPDEST PUSH1 0x0 DUP3 DUP3 MSTORE PUSH1 0x20 DUP3 ADD SWAP1 POP SWAP3 SWAP2 POP POP JUMP JUMPDEST PUSH1 0x0 JUMPDEST DUP4 DUP2 LT ISZERO PUSH2 0xDD5 JUMPI DUP1 DUP3 ADD MLOAD DUP2 DUP5 ADD MSTORE PUSH1 0x20 DUP2 ADD SWAP1 POP PUSH2 0xDBA JUMP JUMPDEST DUP4 DUP2 GT ISZERO PUSH2 0xDE4 JUMPI PUSH1 0x0 DUP5 DUP5 ADD MSTORE JUMPDEST POP POP POP POP JUMP JUMPDEST PUSH1 0x0 PUSH1 0x1F NOT PUSH1 0x1F DUP4 ADD AND SWAP1 POP SWAP2 SWAP1 POP JUMP JUMPDEST PUSH1 0x0 PUSH2 0xE06 DUP3 PUSH2 0xD9B JUMP JUMPDEST PUSH2 0xE10 DUP2 DUP6 PUSH2 0xDA6 JUMP JUMPDEST SWAP4 POP PUSH2 0xE20 DUP2 DUP6 PUSH1 0x20 DUP7 ADD PUSH2 0xDB7 JUMP JUMPDEST PUSH2 0xE29 DUP2 PUSH2 0xDEA JUMP JUMPDEST DUP5 ADD SWAP2 POP POP SWAP3 SWAP2 POP POP JUMP JUMPDEST PUSH1 0x0 PUSH1 0x20 DUP3 ADD SWAP1 POP DUP2 DUP2 SUB PUSH1 0x0 DUP4 ADD MSTORE PUSH2 0xE4E DUP2 DUP5 PUSH2 0xDFB JUMP JUMPDEST SWAP1 POP SWAP3 SWAP2 POP POP JUMP JUMPDEST PUSH1 0x0 DUP1 REVERT JUMPDEST PUSH1 0x0 PUSH20 0xFFFFFFFFFFFFFFFFFFFFFFFFFFFFFFFFFFFFFFFF DUP3 AND SWAP1 POP SWAP2 SWAP1 POP JUMP JUMPDEST PUSH1 0x0 PUSH2 0xE86 DUP3 PUSH2 0xE5B JUMP JUMPDEST SWAP1 POP SWAP2 SWAP1 POP JUMP JUMPDEST PUSH2 0xE96 DUP2 PUSH2 0xE7B JUMP JUMPDEST DUP2 EQ PUSH2 0xEA1 JUMPI PUSH1 0x0 DUP1 REVERT JUMPDEST POP JUMP JUMPDEST PUSH1 0x0 DUP2 CALLDATALOAD SWAP1 POP PUSH2 0xEB3 DUP2 PUSH2 0xE8D JUMP JUMPDEST SWAP3 SWAP2 POP POP JUMP JUMPDEST PUSH1 0x0 DUP2 SWAP1 POP SWAP2 SWAP1 POP JUMP JUMPDEST PUSH2 0xECC DUP2 PUSH2 0xEB9 JUMP JUMPDEST DUP2 EQ PUSH2 0xED7 JUMPI PUSH1 0x0 DUP1 REVERT JUMPDEST POP JUMP JUMPDEST PUSH1 0x0 DUP2 CALLDATALOAD SWAP1 POP PUSH2 0xEE9 DUP2 PUSH2 0xEC3 JUMP JUMPDEST SWAP3 SWAP2 POP POP JUMP JUMPDEST PUSH1 0x0 DUP1 PUSH1 0x40 DUP4 DUP6 SUB SLT ISZERO PUSH2 0xF06 JUMPI PUSH2 0xF05 PUSH2 0xE56 JUMP JUMPDEST JUMPDEST PUSH1 0x0 PUSH2 0xF14 DUP6 DUP3 DUP7 ADD PUSH2 0xEA4 JUMP JUMPDEST SWAP3 POP POP PUSH1 0x20 PUSH2 0xF25 DUP6 DUP3 DUP7 ADD PUSH2 0xEDA JUMP JUMPDEST SWAP2 POP POP SWAP3 POP SWAP3 SWAP1 POP JUMP JUMPDEST PUSH1 0x0 DUP2 ISZERO ISZERO SWAP1 POP SWAP2 SWAP1 POP JUMP JUMPDEST PUSH2 0xF44 DUP2 PUSH2 0xF2F JUMP JUMPDEST DUP3 MSTORE POP POP JUMP JUMPDEST PUSH1 0x0 PUSH1 0x20 DUP3 ADD SWAP1 POP PUSH2 0xF5F PUSH1 0x0 DUP4 ADD DUP5 PUSH2 0xF3B JUMP JUMPDEST SWAP3 SWAP2 POP POP JUMP JUMPDEST PUSH2 0xF6E DUP2 PUSH2 0xEB9 JUMP JUMPDEST DUP3 MSTORE POP POP JUMP JUMPDEST PUSH1 0x0 PUSH1 0x20 DUP3 ADD SWAP1 POP PUSH2 0xF89 PUSH1 0x0 DUP4 ADD DUP5 PUSH2 0xF65 JUMP JUMPDEST SWAP3 SWAP2 POP POP JUMP JUMPDEST PUSH1 0x0 DUP1 PUSH1 0x0 PUSH1 0x60 DUP5 DUP7 SUB SLT ISZERO PUSH2 0xFA8 JUMPI PUSH2 0xFA7 PUSH2 0xE56 JUMP JUMPDEST JUMPDEST PUSH1 0x0 PUSH2 0xFB6 DUP7 DUP3 DUP8 ADD PUSH2 0xEA4 JUMP JUMPDEST SWAP4 POP POP PUSH1 0x20 PUSH2 0xFC7 DUP7 DUP3 DUP8 ADD PUSH2 0xEA4 JUMP JUMPDEST SWAP3 POP POP PUSH1 0x40 PUSH2 0xFD8 DUP7 DUP3 DUP8 ADD PUSH2 0xEDA JUMP JUMPDEST SWAP2 POP POP SWAP3 POP SWAP3 POP SWAP3 JUMP JUMPDEST PUSH1 0x0 PUSH1 0xFF DUP3 AND SWAP1 POP SWAP2 SWAP1 POP JUMP JUMPDEST PUSH2 0xFF8 DUP2 PUSH2 0xFE2 JUMP JUMPDEST DUP3 MSTORE POP POP JUMP JUMPDEST PUSH1 0x0 PUSH1 0x20 DUP3 ADD SWAP1 POP PUSH2 0x1013 PUSH1 0x0 DUP4 ADD DUP5 PUSH2 0xFEF JUMP JUMPDEST SWAP3 SWAP2 POP POP JUMP JUMPDEST PUSH1 0x0 PUSH1 0x20 DUP3 DUP5 SUB SLT ISZERO PUSH2 0x102F JUMPI PUSH2 0x102E PUSH2 0xE56 JUMP JUMPDEST JUMPDEST PUSH1 0x0 PUSH2 0x103D DUP5 DUP3 DUP6 ADD PUSH2 0xEA4 JUMP JUMPDEST SWAP2 POP POP SWAP3 SWAP2 POP POP JUMP JUMPDEST PUSH1 0x0 DUP1 PUSH1 0x40 DUP4 DUP6 SUB SLT ISZERO PUSH2 0x105D JUMPI PUSH2 0x105C PUSH2 0xE56 JUMP JUMPDEST JUMPDEST PUSH1 0x0 PUSH2 0x106B DUP6 DUP3 DUP7 ADD PUSH2 0xEA4 JUMP JUMPDEST SWAP3 POP POP PUSH1 0x20 PUSH2 0x107C DUP6 DUP3 DUP7 ADD PUSH2 0xEA4 JUMP JUMPDEST SWAP2 POP POP SWAP3 POP SWAP3 SWAP1 POP JUMP JUMPDEST PUSH32 0x4E487B7100000000000000000000000000000000000000000000000000000000 PUSH1 0x0 MSTORE PUSH1 0x22 PUSH1 0x4 MSTORE PUSH1 0x24 PUSH1 0x0 REVERT JUMPDEST PUSH1 0x0 PUSH1 0x2 DUP3 DIV SWAP1 POP PUSH1 0x1 DUP3 AND DUP1 PUSH2 0x10CD JUMPI PUSH1 0x7F DUP3 AND SWAP2 POP JUMPDEST PUSH1 0x20 DUP3 LT DUP2 EQ ISZERO PUSH2 0x10E1 JUMPI PUSH2 0x10E0 PUSH2 0x1086 JUMP JUMPDEST JUMPDEST POP SWAP2 SWAP1 POP JUMP JUMPDEST PUSH32 0x45524332303A20617070726F766520746F20746865207A65726F206164647265 PUSH1 0x0 DUP3 ADD MSTORE PUSH32 0x7373000000000000000000000000000000000000000000000000000000000000 PUSH1 0x20 DUP3 ADD MSTORE POP JUMP JUMPDEST PUSH1 0x0 PUSH2 0x1143 PUSH1 0x22 DUP4 PUSH2 0xDA6 JUMP JUMPDEST SWAP2 POP PUSH2 0x114E DUP3 PUSH2 0x10E7 JUMP JUMPDEST PUSH1 0x40 DUP3 ADD SWAP1 POP SWAP2 SWAP1 POP JUMP JUMPDEST PUSH1 0x0 PUSH1 0x20 DUP3 ADD SWAP1 POP DUP2 DUP2 SUB PUSH1 0x0 DUP4 ADD MSTORE PUSH2 0x1172 DUP2 PUSH2 0x1136 JUMP JUMPDEST SWAP1 POP SWAP2 SWAP1 POP JUMP JUMPDEST PUSH32 0x45524332303A207472616E736665722066726F6D20746865207A65726F206164 PUSH1 0x0 DUP3 ADD MSTORE PUSH32 0x6472657373000000000000000000000000000000000000000000000000000000 PUSH1 0x20 DUP3 ADD MSTORE POP JUMP JUMPDEST PUSH1 0x0 PUSH2 0x11D5 PUSH1 0x25 DUP4 PUSH2 0xDA6 JUMP JUMPDEST SWAP2 POP PUSH2 0x11E0 DUP3 PUSH2 0x1179 JUMP JUMPDEST PUSH1 0x40 DUP3 ADD SWAP1 POP SWAP2 SWAP1 POP JUMP JUMPDEST PUSH1 0x0 PUSH1 0x20 DUP3 ADD SWAP1 POP DUP2 DUP2 SUB PUSH1 0x0 DUP4 ADD MSTORE PUSH2 0x1204 DUP2 PUSH2 0x11C8 JUMP JUMPDEST SWAP1 POP SWAP2 SWAP1 POP JUMP JUMPDEST PUSH32 0x45524332303A207472616E7366657220746F20746865207A65726F2061646472 PUSH1 0x0 DUP3 ADD MSTORE PUSH32 0x6573730000000000000000000000000000000000000000000000000000000000 PUSH1 0x20 DUP3 ADD MSTORE POP JUMP JUMPDEST PUSH1 0x0 PUSH2 0x1267 PUSH1 0x23 DUP4 PUSH2 0xDA6 JUMP JUMPDEST SWAP2 POP PUSH2 0x1272 DUP3 PUSH2 0x120B JUMP JUMPDEST PUSH1 0x40 DUP3 ADD SWAP1 POP SWAP2 SWAP1 POP JUMP JUMPDEST PUSH1 0x0 PUSH1 0x20 DUP3 ADD SWAP1 POP DUP2 DUP2 SUB PUSH1 0x0 DUP4 ADD MSTORE PUSH2 0x1296 DUP2 PUSH2 0x125A JUMP JUMPDEST SWAP1 POP SWAP2 SWAP1 POP JUMP JUMPDEST PUSH32 0x45524332303A207472616E7366657220616D6F756E7420657863656564732062 PUSH1 0x0 DUP3 ADD MSTORE PUSH32 0x616C616E63650000000000000000000000000000000000000000000000000000 PUSH1 0x20 DUP3 ADD MSTORE POP JUMP JUMPDEST PUSH1 0x0 PUSH2 0x12F9 PUSH1 0x26 DUP4 PUSH2 0xDA6 JUMP JUMPDEST SWAP2 POP PUSH2 0x1304 DUP3 PUSH2 0x129D JUMP JUMPDEST PUSH1 0x40 DUP3 ADD SWAP1 POP SWAP2 SWAP1 POP JUMP JUMPDEST PUSH1 0x0 PUSH1 0x20 DUP3 ADD SWAP1 POP DUP2 DUP2 SUB PUSH1 0x0 DUP4 ADD MSTORE PUSH2 0x1328 DUP2 PUSH2 0x12EC JUMP JUMPDEST SWAP1 POP SWAP2 SWAP1 POP JUMP JUMPDEST PUSH32 0x45524332303A207472616E7366657220616D6F756E7420657863656564732061 PUSH1 0x0 DUP3 ADD MSTORE PUSH32 0x6C6C6F77616E6365000000000000000000000000000000000000000000000000 PUSH1 0x20 DUP3 ADD MSTORE POP JUMP JUMPDEST PUSH1 0x0 PUSH2 0x138B PUSH1 0x28 DUP4 PUSH2 0xDA6 JUMP JUMPDEST SWAP2 POP PUSH2 0x1396 DUP3 PUSH2 0x132F JUMP JUMPDEST PUSH1 0x40 DUP3 ADD SWAP1 POP SWAP2 SWAP1 POP JUMP JUMPDEST PUSH1 0x0 PUSH1 0x20 DUP3 ADD SWAP1 POP DUP2 DUP2 SUB PUSH1 0x0 DUP4 ADD MSTORE PUSH2 0x13BA DUP2 PUSH2 0x137E JUMP JUMPDEST SWAP1 POP SWAP2 SWAP1 POP JUMP JUMPDEST PUSH32 0x4E487B7100000000000000000000000000000000000000000000000000000000 PUSH1 0x0 MSTORE PUSH1 0x11 PUSH1 0x4 MSTORE PUSH1 0x24 PUSH1 0x0 REVERT JUMPDEST PUSH1 0x0 PUSH2 0x13FB DUP3 PUSH2 0xEB9 JUMP JUMPDEST SWAP2 POP PUSH2 0x1406 DUP4 PUSH2 0xEB9 JUMP JUMPDEST SWAP3 POP DUP2 PUSH32 0xFFFFFFFFFFFFFFFFFFFFFFFFFFFFFFFFFFFFFFFFFFFFFFFFFFFFFFFFFFFFFFFF DIV DUP4 GT DUP3 ISZERO ISZERO AND ISZERO PUSH2 0x143F JUMPI PUSH2 0x143E PUSH2 0x13C1 JUMP JUMPDEST JUMPDEST DUP3 DUP3 MUL SWAP1 POP SWAP3 SWAP2 POP POP JUMP JUMPDEST PUSH32 0x4E487B7100000000000000000000000000000000000000000000000000000000 PUSH1 0x0 MSTORE PUSH1 0x12 PUSH1 0x4 MSTORE PUSH1 0x24 PUSH1 0x0 REVERT JUMPDEST PUSH1 0x0 PUSH2 0x1484 DUP3 PUSH2 0xEB9 JUMP JUMPDEST SWAP2 POP PUSH2 0x148F DUP4 PUSH2 0xEB9 JUMP JUMPDEST SWAP3 POP DUP3 PUSH2 0x149F JUMPI PUSH2 0x149E PUSH2 0x144A JUMP JUMPDEST JUMPDEST DUP3 DUP3 DIV SWAP1 POP SWAP3 SWAP2 POP POP JUMP JUMPDEST PUSH32 0x536166654D6174683A206D756C7469706C69636174696F6E206F766572666C6F PUSH1 0x0 DUP3 ADD MSTORE PUSH32 0x7700000000000000000000000000000000000000000000000000000000000000 PUSH1 0x20 DUP3 ADD MSTORE POP JUMP JUMPDEST PUSH1 0x0 PUSH2 0x1506 PUSH1 0x21 DUP4 PUSH2 0xDA6 JUMP JUMPDEST SWAP2 POP PUSH2 0x1511 DUP3 PUSH2 0x14AA JUMP JUMPDEST PUSH1 0x40 DUP3 ADD SWAP1 POP SWAP2 SWAP1 POP JUMP JUMPDEST PUSH1 0x0 PUSH1 0x20 DUP3 ADD SWAP1 POP DUP2 DUP2 SUB PUSH1 0x0 DUP4 ADD MSTORE PUSH2 0x1535 DUP2 PUSH2 0x14F9 JUMP JUMPDEST SWAP1 POP SWAP2 SWAP1 POP JUMP JUMPDEST PUSH32 0x4E487B7100000000000000000000000000000000000000000000000000000000 PUSH1 0x0 MSTORE PUSH1 0x1 PUSH1 0x4 MSTORE PUSH1 0x24 PUSH1 0x0 REVERT JUMPDEST PUSH1 0x0 PUSH2 0x1576 DUP3 PUSH2 0xEB9 JUMP JUMPDEST SWAP2 POP PUSH2 0x1581 DUP4 PUSH2 0xEB9 JUMP JUMPDEST SWAP3 POP DUP3 DUP3 LT ISZERO PUSH2 0x1594 JUMPI PUSH2 0x1593 PUSH2 0x13C1 JUMP JUMPDEST JUMPDEST DUP3 DUP3 SUB SWAP1 POP SWAP3 SWAP2 POP POP JUMP JUMPDEST PUSH1 0x0 PUSH2 0x15AA DUP3 PUSH2 0xEB9 JUMP JUMPDEST SWAP2 POP PUSH2 0x15B5 DUP4 PUSH2 0xEB9 JUMP JUMPDEST SWAP3 POP DUP3 PUSH32 0xFFFFFFFFFFFFFFFFFFFFFFFFFFFFFFFFFFFFFFFFFFFFFFFFFFFFFFFFFFFFFFFF SUB DUP3 GT ISZERO PUSH2 0x15EA JUMPI PUSH2 0x15E9 PUSH2 0x13C1 JUMP JUMPDEST JUMPDEST DUP3 DUP3 ADD SWAP1 POP SWAP3 SWAP2 POP POP JUMP INVALID LOG2 PUSH5 0x6970667358 0x22 SLT KECCAK256 PUSH18 0x8C4BBD27C7EEF35229F8A75BE3F9DD71F002 ADD 0xE6 SSTORE SIGNEXTEND 0xDD 0xE9 0xE1 0x24 SWAP14 0xB7 PUSH15 0xAD0164736F6C634300080C00330000 "
    },
    "gasEstimates": {
      "creation": {
        "codeDepositCost": "315000",
        "executionCost": "infinite",
        "totalCost": "infinite"
      },
      "external": {
        "buyTokens()": "infinite",
        "token()": "infinite",
        "tokenPrice()": "2429",
        "tokensSold()": "2407"
      }
    },
    "methodIdentifiers": {
      "buyTokens()": "d0febe4c",
      "token()": "fc0c546a",
      "tokenPrice()": "7ff9b596",
      "tokensSold()": "518ab2a8"
    }
  },
  "storageLayout": {
    "storage": [
      {
        "astId": 518,
        "contract": "input:EDFCrowdsale",
        "label": "token",
        "offset": 0,
        "slot": "0",
        "type": "t_contract(EDFToken)515"
      },
      {
        "astId": 520,
        "contract": "input:EDFCrowdsale",
        "label": "tokenPrice",
        "offset": 0,
        "slot": "1",
        "type": "t_uint256"
      },
      {
        "astId": 522,
        "contract": "input:EDFCrowdsale",
        "label": "tokensSold",
        "offset": 0,
        "slot": "2",
        "type": "t_uint256"
      }
    ],
    "types": {
      "t_contract(EDFToken)515": {
        "encoding": "inplace",
        "label": "contract EDFToken",
        "numberOfBytes": "20"
      },
      "t_uint256": {
        "encoding": "inplace",
        "label": "uint256",
        "numberOfBytes": "32"
      }
    }
  },
  "userdoc": {
    "kind": "user",
    "methods": {},
    "version": 1
  },
  "contractName": "EDFCrowdsale",
  "deployment": {
    "address": "0x7773b2285a11521e341f3d7272ffC7E52BC7454D",
    "transactionHash": "0x340c3747faf481e171449cc60ec5afc72b47faf319c35ab41b5862992a6c06b0",
    "blockNumber": 7
  }
}